:020000040800F2
:100000000000022039580008090C00080B0C0008F9
:100010000D0C00080F0C0008110C00080000000077
:10002000000000000000000000000000130C0008A9
:10003000150C000800000000170C0008190C00083F
:10004000895800088958000889580008895800080C
:1000500089580008895800088958000889580008FC
:1000600089580008895800088958000889580008EC
:1000700089580008895800088958000889580008DC
:1000800089580008895800088958000889580008CC
:10009000210C000889580008895800088958000870
:1000A00089580008895800088958000889580008AC
:1000B000895800088958000889580008895800089C
:1000C000895800088958000889580008895800088C
:1000D000895800088958000889580008895800087C
:1000E000895800088958000889580008895800086C
:1000F000895800088958000889580008895800085C
:10010000895800088958000889580008895800084B
:10011000895800088958000889580008895800083B
:10012000895800088958000889580008895800082B
:10013000895800088958000889580008895800081B
:10014000895800088958000889580008310C0008AF
:1001500089580008895800088958000889580008FB
:1001600089580008895800088958000889580008EB
:1001700089580008895800088958000800000000C4
:080180008958000889580008A5
:100188000348044B834202D0034B03B1184770471E
:100198007C0000207C000020000000000548064B81
:1001A8001B1AD90F01EBA301491002D0034B03B16D
:1001B800184770477C0000207C00002000000000E9
:1001C80010B5064C237843B9FFF7DAFF044B13B197
:1001D8000448AFF300800123237010BD7C00002089
:1001E80000000000205B000808B5044B1BB104495F
:1001F8000448AFF30080BDE80840CFE700000000E6
:1002080080000020205B000853B94AB9002908BFC4
:1002180000281CBF4FF0FF314FF0FF3000F09CB9B1
:10022800ADF1080C6DE904CE00F006F8DDF804E045
:10023800DDE9022304B070472DE9F04782B0064695
:10024800DDF828E00846B4460D46002B4ED18A4218
:1002580014466DD9B2FA82F242B1C2F12003954038
:1002680026FA03F394401D4306FA02FC260CA7B2B3
:10027800B5FBF6F14FEA1C4306FB115543EA05436B
:1002880001FB07F0984209D9E31801F1FF3580F026
:100298000381984240F20081023923441B1A1FFA55
:1002A8008CFCB3FBF6F006FB10334CEA034C00FB66
:1002B80007F363450AD914EB0C0C00F1FF3580F005
:1002C800ED80634540F2EA80A444023840EA0140E8
:1002D800ACEB030C0021BEF1000F04D02CFA02F3A2
:1002E8000022CEE9003202B0BDE8F0878B4209D97E
:1002F800BEF1000F01D0CEE900610021084602B02E
:10030800BDE8F087B3FA83F1174600294DD183423F
:1003180002D3B24200F20F81B6EB070C60EB030385
:1003280001201D46BEF1000FDDD0CEE900C5DAE799
:10033800002A00F098801A46B4FA84F3002B40F0A3
:10034800AF800B1B270CA6B20121B3FBF7F54FEAD0
:100358001C4007FB153340EA034306FB05F89845A4
:1003680007D9E31805F1FF3002D2984500F2E8807A
:100378000546A3EB08031FFA8CFCB3FBF7F007FB59
:1003880010334CEA034C06FB00F3634508D914EB21
:100398000C0C00F1FF3602D2634500F2CE803046E5
:1003A800ACEB030C40EA054095E7C1F120058B4012
:1003B80022FA05FC4CEA030C00FA01F426FA05F3CC
:1003C800E84002FA01F943EA04084FEA1C4206FA37
:1003D80001FAB0FBF2F71FFA8CF602FB17004FEA9E
:1003E800184444EA004407FB06F0A0420AD91CEB73
:1003F800040407F1FF3380F09C80A04240F299800A
:10040800023F6444241A1FFA88F3B4FBF2F002FB9B
:10041800104443EA044300FB06F69E4209D91CEB4C
:10042800030300F1FF3480F082809E427FD90238B6
:10043800634440EA0740A0FB09749B1BA3423E4665
:10044800A04664D361D0BEF1000F0AD0BAEB060211
:1004580063EB080303FA05F5CA401543CB40CEE920
:10046800005300213FE7730843EAC1734A08190C97
:1004780041EA02414FEAC67C9BB2B2FBF4F0264641
:10048800A04627461F2243EA0143B1FBF4F1A3EB40
:10049800080341EA004158E72946FFE6284615E7E0
:1004A8001A46C3F120019C4026FA01F320FA01F113
:1004B80090400343270C06FA02FCB1FBF7F0A6B202
:1004C80007FB1015190C41EA054100FB06F58D42A2
:1004D8003BD9611801D28D4220D8491B0138B1FBA4
:1004E800F7F5019505FB06F8019D9BB207FB151171
:1004F80043EA0143434526D2E31805F1FF31C6D24A
:100508004345C4D2A91E2344C1E7BA459BD2B7EBE1
:10051800090664EB0C040138A04694E7651B2944DE
:100528000238B1FBF7F5019505FB06F8DCE7204634
:100538007FE71F4666E70846F4E6A44402382FE73B
:10054800023D234415E70199A1E7491BB1FBF7F5E3
:10055800019505FB06F8C7E7704700BF08B500F02E
:100568009BF900F00DFAFCE72DE9F04F8DB007ADCF
:1005780000240794089409940A940B940194594B05
:100588001A6B42F010021A631A6B02F01002019201
:10059800019A02941A6B42F004021A631A6B02F071
:1005A80004020292029A03941A6B42F080021A63C0
:1005B8001A6B02F080020392039A04941A6B42F0B9
:1005C80001021A631A6B02F001020492049A05945C
:1005D8001A6B42F002021A631A6B02F002020592C9
:1005E800059A06941A6B42F008021A631B6B03F013
:1005F80008030693069B3C4F22460821384602F022
:10060800DFFEDFF8F0A001221146504602F0D8FEC6
:10061800DFF8E49022464FF21001484602F0D0FE7F
:100628004FF00808CDF81C800126089609940A9412
:100638002946384602F0C0FD0796089609940A94A0
:100648002946504602F0B8FDCDF81C804FF002084C
:10065800CDF8208009940A944FF0050BCDF82CB002
:100668002946504602F0A8FD07964FF4901ACDF897
:1006780020A0099429461D4802F09EFD04230793F3
:100688000894099429461A4802F096FD4FF48063AD
:100698000793CDF8208009940A94CDF82CB0294608
:1006A800134802F089FD4FF2100307930896099446
:1006B8000A942946484602F07FFD202307930894B0
:1006C80009942946484602F077FDCDF81C80CDF8FC
:1006D80020A009942946384602F06EFD0DB0BDE809
:1006E800F08F00BF003802400010024000000240B6
:1006F8000004024000080240000C024072B6FEE707
:1007080008B50D480D4B03600E234360002383603A
:10071800C3604FF4E02202614FF400124261037695
:1007280043768376C3760377437702F035FF00B9C3
:1007380008BDFFF7E3FF00BFA401002000640040EC
:1007480008B50A480A4B03600A4B436000238360DC
:10075800C3604FF48042026143618361C3610362F5
:1007680003F0CEF900B908BDFFF7C8FF500100201B
:1007780000540040A086010008B50A480A4B0360EF
:100788004FF40072426000238360C3600261074A2D
:1007980042618361C361036203F09EFA00B908BD38
:1007A800FFF7ACFF08010020003C00400077010083
:1007B80008B50D480D4B03604FF482734360002366
:1007C8008360C360036143614FF400728261C36157
:1007D8000362436283620A23C36203F07FFD00B9A8
:1007E80008BDFFF78BFF00BFB000002000300140BC
:1007F80010B594B008AC30220021204605F0FCF872
:100808000023039304930593069307930193204AC7
:10081800116C41F080511164126C02F08052019207
:10082800019A02931B4B1A6842F480421A601B68B3
:1008380003F480430293029B012308934FF480330F
:10084800099302230E934FF480020F92082210920C
:100858004FF4A8721192129307231393204602F0C3
:1008680093F888B90F2303930223049305904FF458
:10087800A05306934FF480530793052103A802F071
:10088800EFFA18B914B010BDFFF738FFFFF736FFBD
:10089800003802400070004000B58BB002F03CFE0A
:1008A800FFF7A6FFFFF760FEFFF72AFFFFF748FFF5
:1008B800FFF762FFFFF77CFF00F042F80023059383
:1008C80006930122079200930193029303930493E2
:1008D80008920E23099369460C4802F003FF70B989
:1008E8000A4802F09DFF60B90221084802F0C6FFDD
:1008F80048B9074BD860986018750BB000BDFFF772
:10090800FDFEFFF7FBFEFFF7F9FE00BFA401002084
:100918009800002004290CD0052902D0022904D00F
:100928007047064B03221A707047044B02221A7054
:100938007047024B01221A70704700BFCC0100209B
:1009480008B501220B490C4803F0D4FE48B90B49FD
:10095800094803F0EEFE38B9074803F02FFF30B915
:1009680008BDFFF7CBFEF2E7FFF7C8FEF4E7FFF795
:10097800C5FEF5E71D090008D00100200C00002085
:1009880008B5024803F024FF08BD00BFD0010020CD
:1009980030B589B000230393049305930693079316
:1009A8000368B3F1A04F01D009B030BD03AA0025F8
:1009B80001951A4C236B43F001032363236B03F067
:1009C80001030193019B4FF40073039311461448EC
:1009D80002F0F2FB4FF4E0530393022304930595CE
:1009E80006950A23079303A90D4802F0E5FB636BFC
:1009F80043F0800363630295636C43F4804363644C
:100A0800636C03F480430293029B2A4629464320E1
:100A180002F034FD432002F041FDC5E700380240F2
:100A28000000024008B5D0F8DC0304F027F808BD40
:100A380008B5D0F8DC0304F035F808BD08B5D0F8DF
:100A4800DC0304F039F808BD704708B5D0F8DC03BA
:100A580004F01DF808BD08B5D0F8DC0304F01BF855
:100A680008BD000090F8CC33012B01D0002070475E
:100A780010B504460F48C0F8DC43C4F8D0034FF063
:100A8800A0430360082343710123C37100238371CA
:100A980002224272837200F057FA40B9054801F009
:100AA800E8F90146204603F0E6FF002010BDFFF7F5
:100AB80025FEF3E7A805002008B5D0F8D00301F01B
:100AC800DDF9012804D0022804D020B1012002E079
:100AD800012000E0022008BD08B5D0F8D00301F0DD
:100AE800C2F908BD0020704708B5D0F8D00301F05E
:100AF800B3F908BD08B590F8CC33012B04D0C82051
:100B080002F036FD002008BD084600F06DF8F6E753
:100B1800D0F8D033C1EB011003EB8000C07D38B1B1
:100B2800C1EB011103EB810383F83C2000207047DF
:100B3800C1EB011103EB810383F83D20F6E708B50B
:100B480002F016FD08BD022804D005D808B102201D
:100B580070477047012070470220704708B5D0F8E9
:100B6800D00301F04DF9FFF7EEFF08BD08B5D0F846
:100B7800D00301F05AF9FFF7E6FF08BD08B5D0F831
:100B8800D00301F064F9FFF7DEFF08BD00B585B0BA
:100B9800D0F8D003BDF820C0CDF808C09DF81CC01F
:100BA800CDF804C09DF818C0CDF800C001F077F961
:100BB800FFF7C9FF05B000BD10B584B0D0F8D00369
:100BC8009DF824C0CDF80CC0BDF820C0CDF808C0F1
:100BD800079C01949DF818C0CDF800C000F0FCF9FE
:100BE800FFF7B1FF04B010BD08B5024600B10122FD
:100BF8000121024802F0E4FB08BD00BF00080240E2
:100C0800FEE7FEE7FEE7FEE7FEE77047704770473E
:100C180008B502F09BFC08BD08B5024802F04DFE7D
:100C280008BD00BFA401002008B5024801F037F84C
:100C380008BD00BFA805002000B583B000210091C1
:100C48000C4B5A6C42F480425A645A6C02F480424B
:100C58000092009A01911A6C42F080521A641B6C3F
:100C680003F080530193019B072002F0F5FB03B0CA
:100C780000BD00BF0038024000B589B000230393CF
:100C880004930593069307930268184B9A4201D080
:100C980009B000BD0021019103F5EA331A6C42F056
:100CA80000721A641A6C02F000720192019A0291A1
:100CB8001A6B42F008021A631B6B03F008030293D5
:100CC800029B0323039302220492069309230793AA
:100CD80003A9074802F070FA00221146142002F016
:100CE800CDFB142002F0DAFBD2E700BF006400401D
:100CF800000C024030B589B0002303930493059398
:100D0800069307930268144B9A4201D009B030BD8C
:100D180000250195114C236B43F002032363236BD9
:100D280003F002030193019B4FF410730393122302
:100D38000493012305930423079303A9084802F0A9
:100D48003BFA0295236C43F400132364236C03F4E9
:100D580000130293029BD9E7005400400038024078
:100D68000004024070B58CB00023079308930993E0
:100D78000A930B9303930493059306930268264BF7
:100D88009A4201D00CB070BD01230393C023049391
:100D98000223059303A802F029F9002838D100217D
:100DA80000911E4B1A6C42F400421A641A6C02F449
:100DB80000420092009A01911A6B42F001021A63F4
:100DC8001A6B02F001020192019A02911A6B42F029
:100DD80004021A631B6B03F004030293029B1023A3
:100DE80007930225089509910C460A9106260B9649
:100DF80007A90B4802F0E0F94FF4A45307930895AC
:100E080009940A940B9607A9064802F0D5F9B9E7A0
:100E1800FFF774FCC3E700BF003C00400038024005
:100E2800000002400008024000B589B00023039387
:100E380004930593069307930268134B9A4201D0D3
:100E480009B000BD0021019103F584335A6C42F4C6
:100E580080525A645A6C02F480520192019A0291AB
:100E68001A6B42F001021A631B6B03F00103029331
:100E7800029BE0230393022304930523079303A90A
:100E8800024802F099F9DBE7003001400000024017
:100E9800F8B50468226A02F00F031F46C2F3434301
:100EA800C2F30A12022B00D0F8BD05461046002AEC
:100EB800FAD0C7EB071305EB8303D96A0029F3D0EF
:100EC800C7EB071305EB83039A6B02445B6B9A42EB
:100ED80007D9C7EB071305EB8303042283F84C20DB
:100EE800E2E706460246204601F01FF9C7EB071362
:100EF80005EB8303DA6A3244DA629A6B32449A6306
:100F080004EB4714D4F810251B8DB342CCD10D4BFC
:100F18001340002BC8D0D4F8003523F0804343F0A9
:100F28000043C4F80035C7EB071305EB830393F8B8
:100F38003C20C7EB071305EB830382F0010283F81B
:100F48003C20B1E70000F81F002843D030B583B03B
:100F5800044603681D4690F8D533BBB1032384F8D3
:100F6800D533B5F1A04F16D0206801F079F8237C6D
:100F78008DF80030231D0ECB206801F022F868B1EF
:100F8800022384F8D533012003B030BD80F8D43370
:100F9800FFF7FEFCE2E70023A371E5E701212068E3
:100FA80001F0F7F820B1022384F8D5330120EBE7EC
:100FB800237C8DF80030231D0ECB206801F01AF930
:100FC80018B9012384F8D533DEE7022384F8D53332
:100FD8000120D9E70120704738B5144615469DF819
:100FE8001020BDF818E0C1EB011C00EB8C0C8CF84C
:100FF80017408CF82630A2BBC1EB011C00EB8C0C0F
:101008004FF003048CF82A409DF81C408CF81940D6
:10101800022B00F085802DD8002B40D0012B06D163
:10102800C1EB011300EB8303002283F82A20C1EBF4
:10103800011300EB8303059ADA62C3F834E0002257
:1010480083F84C209A63597583F84D20C1EB011140
:1010580089001031014482790431006801F0FEFAF8
:1010680038BDC1EB011C00EB8C0C4FF002048CF86E
:101078002A40CDE7032BDAD1002D40F08880C1EB60
:10108800011300EB830393F83D30002B77D1C1EBBC
:10109800011300EB8303002283F82A20C7E7012A03
:1010A800C5D1FDB9BEF1000F05D1C1EB011300EBAD
:1010B800830383F83D20C1EB011300EB830393F80E
:1010C8003D303BB9C1EB011300EB8303002283F8E9
:1010D8002A20ACE7C1EB011300EB8303022283F85B
:1010E8002A20A4E7C1EB011300EB83039B7E012BAD
:1010F8009DD1C1EB011300EB830393F83C303BB95E
:10110800C1EB011300EB8303002283F82A208EE74A
:10111800C1EB011300EB8303022283F82A2086E740
:10112800B5B9C1EB011300EB830393F83D303BB92C
:10113800C1EB011300EB8303002283F82A2076E732
:10114800C1EB011300EB8303022283F82A206EE728
:10115800C1EB011300EB830393F83C303BB9C1EBBF
:10116800011300EB8303002283F82A205FE7C1EB19
:10117800011300EB8303022283F82A2057E7C1EB0F
:10118800011300EB8303022283F82A204FE7C1EB07
:10119800011300EB830393F83C303BB9C1EB011317
:1011A80000EB8303002283F82A2040E7C1EB0113F8
:1011B80000EB8303022283F82A2038E730B583B096
:1011C80004460568D5F840340193D5F840340093B7
:1011D800009B23F02E030093019B13F0020F07D00E
:1011E800019B13F0010F25D1009B43F002030093EC
:1011F800019B13F0080F10D0009B43F008030093E5
:10120800019B13F0040F2DD0637A022B15D0E379DC
:10121800012B22D02046FFF718FC019B13F0200F6A
:1012280003D0009B43F020030093009BC5F8403493
:1012380003B030BDFFF7FCFBD6E7019B03F4C023E6
:10124800B3F5802F04D00121206801F055F8E1E7BB
:101258000221206801F050F8DCE74EF66022C5F85C
:101268000424D7E72046FFF7F6FBD6E770B5054616
:101278000C460668304600F07FFF10F0040F21D0BE
:1012880006EB44130422C3F80825C4EB041305EB4A
:101298008303072283F84D202146286801F04BF983
:1012A8002146286800F068FF10F4007F6CD02146C2
:1012B800286801F040F906EB44164FF40073C6F8AD
:1012C800083570BD2146286800F056FF10F4807F6D
:1012D80011D006EB44134FF48072C3F80825C4EB11
:1012E800041305EB8303082283F84D202146286860
:1012F80001F021F9D4E72146286800F03DFF10F0FD
:10130800080F10D006EB44130822C3F80825C4EBD5
:10131800041305EB8303062283F84D202146286831
:1013280001F009F9BCE72146286800F025FF10F410
:10133800806F11D006EB44134FF48062C3F8082580
:10134800C4EB041305EB8303092283F84D202146DF
:10135800286801F0F0F8A3E72146286800F00CFFA0
:1013680010F0800F9CD006EB44138022C3F80825A8
:10137800C4EB041305EB8303072283F84D202146B1
:10138800286801F0D8F88BE72146286800F0F4FEB9
:1013980010F0010F7DD006EB441101F5A066202363
:1013A800B360C4EB041305EB8303DB7E012B30D061
:1013B800AB794BB1C4EB041305EB83031A6B3069AB
:1013C800C0F31200121A9A63C4EB041305EB8303EB
:1013D800012283F84D2000205864B26093F826302B
:1013E80013B3022B20D0032B01D0012B22D1D1F82B
:1013F800003543F00053C1F80035C4EB041305EB86
:101408008303012283F84C2021462846FFF71CFB62
:1014180010E0C4EB041305EB83030022DA7673684B
:1014280023F480337360C3E72146286801F083F80A
:101438001023B360AB79012B0ED0C4EB041305EB7A
:10144800830393F83C30C4EB041405EB840483F065
:10145800010384F83C3034E7C4EB041205EB820244
:10146800936B128D1344013BB3FBF2F313F0010F9E
:101478003FF427AFC4EB041305EB830393F83C3028
:10148800C4EB041405EB840483F0010384F83C30B6
:1014980017E72146286800F06FFE10F0200F1ED0D5
:1014A80006EB44162023C6F80835C4EB041305EBF5
:1014B80083039B7E012B7FF404AFC4EB041305EB7D
:1014C80083030122DA76C4EB041305EB83030322BA
:1014D80083F84D202146286801F02DF8F1E62146D1
:1014E800286800F049FE10F0020F00F01D8106EB9D
:1014F800441606F5A06202239360C4EB041305EBBF
:10150800830393F84D30012B13D0062B26D0072BDD
:101518002FD0092B2DD0052B68D0032B00F0B480D9
:10152800042B00F0DC80082B00F0F180022B0AD19C
:10153800C7E6C4EB041305EB8303022283F84D20AE
:10154800012283F84C20C4EB041305EB830393F8C2
:101558004C2021462846FFF777FAB2E6C4EB04137D
:1015680005EB8303022283F84D20052283F84C20E3
:10157800E9E7C4EB041305EB8303022183F84D105C
:10158800596C0131596402291BD9C4EB041305EBCA
:101598008303002159649B7E012B07D0C4EB0413FD
:1015A80005EB8303042283F84C20CCE7C4EB041337
:1015B80005EB8303D9761977536823F48033536096
:1015C800ECE7C4EB041305EB8303022283F84C20F9
:1015D80093F826300BB19342B5D1D6F8003523F0F5
:1015E800804343F00043C6F80035ACE7C4EB04136E
:1015F80005EB8303022183F84D10DB7E012BA2D17A
:101608003C2303FB045393F82630032B16D03C23CA
:1016180003FB0453022283F84C203C2303FB0453AE
:1016280093F826300BB1022B8DD1D6F8003523F074
:10163800804343F00043C6F8003584E73C2101FBB2
:1016480004518B6C01338B64022B16D90B46002195
:101658009964D9765B6C022B04D83C2303FB0453B2
:1016680001211977536823F4803353603C2303FB2B
:101678000453042283F84C20CFE73C2303FB045394
:10168800022283F84C20C8E7C4EB041305EB83035C
:10169800022183F84D10DB7E012B7FF454AF3C23ED
:1016A80003FB045383F84C10516841F480315160B6
:1016B800D16841F04001D160D16821F02001D160AA
:1016C80093F8263013B1022B7FF43DAFD6F80035DE
:1016D80023F0804343F00043C6F8003533E7C4EBFA
:1016E800041305EB8303022283F84D2083F84C2072
:1016F80093F8263013B193427FF425AFD6F800351E
:1017080023F0804343F00043C6F800351BE73C2331
:1017180003FB0453022283F84D205A6C01325A64A9
:10172800042283F84C200EE72146286800F024FDA7
:1017380010F0400F18D006EB44134022C3F80825D8
:10174800C4EB041305EB8303052283F84D209B7E2D
:101758002BB9C4EB041305EB830300225A6421461A
:10176800286800F0E8FEACE52146286800F004FD92
:1017780010F0100F3FF4A5ADC4EB041305EB830381
:1017880093F82630032B28D00BB1022B18D1C4EBC9
:10179800041305EB830300225A64AB7933B1C4EB1D
:1017A800041305EB8303DB7E012B09D13C2303FBE8
:1017B8000453042283F84D202146286800F0BBFE1C
:1017C800C4EB041305EB8303DB7E012B12D006EB7D
:1017D80044131022C3F8082573E53C2303FB045384
:1017E80000225A64042283F84D202146286800F01C
:1017F800A2FEE5E7C4EB041305EB83050023EB76B3
:1018080006EB4413D3F8042522F48032C3F80425E8
:10181800D3F80C2542F02002C3F80C25D7E770B5A1
:1018280005460C460668304600F0A6FC10F0040F8A
:1018380010D006EB44160423C6F80835C4EB04138D
:1018480005EB8303072283F84D202146286800F022
:1018580072FE70BD2146286800F08EFC10F0200F43
:101868004AD006EB44162023C6F80835C4EB041307
:1018780005EB83035B7E012B2DD0C4EB041305EB32
:1018880083039B7E012BE4D1C4EB041305EB830394
:10189800DB7E002BDDD1C4EB041305EB830393F847
:1018A8002630012B05D0C4EB041305EB830301227A
:1018B800DA762601C4EB041305EB8303032283F8CD
:1018C8004D202146286800F036FE361B05EB8606BB
:1018D80000237364BDE7C4EB041305EB8303002204
:1018E8005A76022283F84C20032283F84D202146A1
:1018F800286800F020FEC0E72146286800F03CFC7C
:1019080010F4007F0AD006EB44164FF40073C6F8B3
:1019180008352146286800F00EFE9AE72146286817
:1019280000F02AFC10F0010F3BD0C4EB041305EBC8
:10193800830300225A642146286800F01DFC10F039
:10194800400F0AD0C4EB041305EB830301225A7637
:1019580006EB44134022C3F80825C4EB041305EB37
:101968008303DB7E6BB1C4EB041305EB8303002216
:10197800DA7606EB4413D3F8042522F48032C3F850
:10198800042506EB44160122C6F80825C4EB041307
:1019980005EB830383F84D202146286800F0CBFD32
:1019A80057E72146286800F0E7FB10F0400F1ED0EB
:1019B800C4EB041305EB8303052283F84D209B7EBB
:1019C8002BB9C4EB041305EB830301225A76C4EB4D
:1019D800041305EB830300225A642146286800F0AB
:1019E800AAFD06EB44164023C6F8083531E7214620
:1019F800286800F0C1FB10F0080F10D006EB441364
:101A08000822C3F80825C4EB041305EB8303062258
:101A180083F84D202146286800F08DFD19E72146FE
:101A2800286800F0A9FB10F0100F20D0C4EB0413B5
:101A380005EB830300225A64042283F84D205B7E61
:101A48005BB9C4EB041305EB83031B7E2BB9C4EB12
:101A5800041305EB830301225A762146286800F017
:101A68006AFD06EB44131022C3F80825F1E6214667
:101A7800286800F081FB10F0800F38D0AB79F3B103
:101A8800C4EB041205EB8202536C01335364022B3E
:101A980020D83C2303FB0453022283F84C2006EB96
:101AA8004412D2F8003523F0804343F00043C2F8D3
:101AB800003506EB44138022C3F80825C9E63C2309
:101AC80003FB0453072283F84D202146286800F0C1
:101AD80032FDEEE73C2303FB045300225A64042240
:101AE80083F84C2021462846FEF7AEFFE1E7214661
:101AF800286800F041FB10F4806F10D03C2303FBF2
:101B08000453092283F84D202146286800F013FD6C
:101B180006EB44134FF48062C3F8082599E6214682
:101B2800286800F029FB10F0020F3FF492AE06EB94
:101B3800441606F5A062022393603C2303FB04537A
:101B480093F84D30012B23D0032B62D0042B6FD098
:101B5800052B00F08280062B00F08880072B02D02E
:101B6800092B7FF476AE3C2303FB0453022283F84F
:101B78004D205A6C01325A64022A40F281803C237B
:101B880003FB045300225A64042283F84C200EE01D
:101B98003C2303FB0453022283F84D20012283F8DF
:101BA8004C2093F82630023BDBB2934209D93C2300
:101BB80003FB045393F84C2021462846FEF744FFC4
:101BC80047E6A97941B93C2303FB045393F83D2028
:101BD80082F0010283F83D200129E8D13C2303FB70
:101BE80004535B6B002BE2D03C2202FB0452128DA3
:101BF8001344013BB3FBF2F313F0010FD7D03C239E
:101C080003FB045393F83D2082F0010283F83D2042
:101C1800CDE73C2303FB0453022283F84D20DB7EEF
:101C2800012BC4D13C2303FB045383F84C20BEE7AB
:101C38003C2303FB0453022183F84D1083F84C1016
:101C4800DB7E012BB3D13C2303FB04530021D9765F
:101C5800536823F480335360A9E73C2303FB045300
:101C6800022283F84D2083F84C20A0E73C2303FB95
:101C78000453022283F84D20052283F84C2096E76E
:101C88003C2303FB0453022283F84C20D6F800358A
:101C980023F0804343F00043C6F8003587E7F8B5E2
:101CA80004460568284600F070FA012800D0F8BDFF
:101CB800206800F05DFA0028F9D0206800F058FA92
:101CC80010F4001F03D023684FF400125A612068F3
:101CD80000F04EFA10F4801F03D023684FF48012EE
:101CE8005A61206800F044FA10F0806F03D023682E
:101CF8004FF080625A61206800F03AFA10F0020F43
:101D080002D0236802225A61206800F031FA10F0EC
:101D1800005F08D023684FF000525A61D5F840346C
:101D280013F0010F25D0206800F022FA10F0807F10
:101D380032D1206800F01CFA10F0080F30D120686A
:101D480000F016FA10F0007F31D1206800F010FA88
:101D580010F0100FABD02268936923F01003936141
:101D68002046FFF795F82268936943F010039361C2
:101D78009DE71021284600F079F9284600F09BF9E4
:101D8800637A022B03D02046FEF758FECBE70121E9
:101D9800206800F0B1FAF6E72046FFF70FFAC8E727
:101DA8002046FEF73FFE236808225A61C7E72068ED
:101DB80000F0BCFB074600231E4606E0F1B22046B1
:101DC800FFF72DFD334601331E466379B34212D91E
:101DD80006F00F0327FA03F313F0010FF2D005EB17
:101DE8004613D3F8003513F4004FE7D0F1B220467C
:101DF800FFF73CFAE6E723684FF000725A61A4E760
:101E080090F8D433012B0ED010B50446012180F888
:101E1800D413006800F0B0FA206800F01BF9002025
:101E280084F8D40310BD0220704790F8D433012BF6
:101E38000BD010B50446012380F8D433006800F0B5
:101E480057FD002084F8D40310BD0220704708B560
:101E5800006800F072FA08BDC1EB011100EB8100C7
:101E680090F84C007047C1EB011100EB8100806BCA
:101E7800704708B5006800F0ADFA08BD08B50068FD
:101E880000F09DFA08BDC1EB011200EB82020020B0
:101E98009076D07682F8250082F8240070472DE9E4
:101EA800F04F85B00C46164619469A469DF838807C
:101EB8009DF83C70BDF8402090F8D433012B52D0E7
:101EC800054693469146012380F8D433C4EB0413A6
:101ED80000EB830300225A7619755C7583F8267027
:101EE80006F07F029A752146FFF7CDFF16F0800FA6
:101EF80027D1C4EB041305EB83030022DA752868A5
:101F080000F05DFA012F23D0C4EB041305EB830323
:101F180083F818801FFA89F3C4EB041205EB8202D8
:101F2800138502930197CDF8008053463246214627
:101F3800286800F055FA002385F8D43305B0BDE8C9
:101F4800F08FC4EB041305EB83030122DA75D6E79F
:101F5800B8F1010FD8D10028D6D15B46BC2BD3D914
:101F6800BC239946D0E70220E8E782B0002301931A
:101F7800019B01330193019BB3F1706F1CD8036976
:101F8800002BF5DA0A23019302E0019B013B019340
:101F9800019B002BF9D1036943F001030361019B05
:101FA80001330193019BB3F1706F08D8036913F0F3
:101FB800010FF4D1002000E0032002B07047032095
:101FC800FBE784B010B5044603A880E80E009DF82E
:101FD8001130012B21D1A36B23F48033A363E36871
:101FE80023F4840323F04003E360E36823F44013FD
:101FF800E3609DF81830012B0AD02046FFF7B5FFA3
:102008009DF80E30012B1CD0BDE8104004B070477D
:10201800E36843F48013E360EFE7E36843F04003C9
:10202800E3602046FFF7A1FF9DF8153023B9A36BA5
:1020380043F48033A363E3E7A36B23F48033A36300
:10204800DEE7A36843F00603A360A36843F0200318
:10205800A360D9E7836843F00103836000207047D9
:10206800836823F0010383600020704782B0002357
:102078000193019B01330193019BB3F1706F15D854
:102088000369002BF5DA00230193890141F020014F
:102098000161019B01330193019BB3F1706F08D873
:1020A800036913F0200FF4D1002000E0032002B0F0
:1020B80070470320FBE782B000230193019B0133A3
:1020C8000193019BB3F1706F13D80369002BF5DA04
:1020D8000023019310230361019B01330193019BAA
:1020E800B3F1706F08D8036913F0100FF4D1002012
:1020F80000E0032002B070470320FBE710B5044658
:102108009DF8080078B903334FEA930E844608E037
:1021180004EB023303F5805351F8040B18600CF1FB
:10212800010CF445F4D3002010BD00B584460846E0
:102138004FEA920E02F00302002305E00CF58051ED
:10214800096840F8041B01337345F7D37AB10CF5DD
:10215800805CDCF800C00021CBB2DB002CFA03F372
:1021680000F8013B0131013A92B2002AF4D100BDD6
:10217800426980691040704700EB411000F5A06388
:10218800D0F80805DB6818407047406900F0010086
:10219800704738B50546C36823F0C043C3600129BA
:1021A80013D019BBC36843F08043C3600C460A20B0
:1021B80001F0DEF90A342846FFF7E7FF08B1C72C1B
:1021C800F5D9C82C14D0002038BDC36843F000539B
:1021D800C36000240A2001F0CBF90A342846FFF72F
:1021E800D4FF0128EDD0C72CF4D9EAE70120EBE7AA
:1021F8000120E9E784B038B5044605A880E80E0058
:102208000023C4F8003EA36B43F40013A363A36B3D
:1022180023F40023A363A36B23F48023A363E3685D
:1022280013F0400F11D19DF81730012B06D0D4F8C8
:10223800003423F00403C4F800340CE0D4F800346C
:1022480043F00403C4F8003405E0D4F8003423F064
:102258000403C4F8003410212046FFF707FF0546A1
:1022680008B101231D462046FFF725FF08B10123C9
:102278001D46002209E004EB42134FF0FF31C3F87A
:1022880008150021C3F80C1501329DF8153093424A
:10229800F1D80023A3614FF0FF336361124B9C42D6
:1022A80017D08023636203F5C003A3620F4BC4F801
:1022B80000319DF816301BB9A36943F01003A361E0
:1022C800A2690B4B1343A3612846BDE8384004B00C
:1022D80070474FF40073636203F18073A362054B88
:1022E800C4F80031E5E700BF00000440E00040000A
:1022F800080020A30003E00000F5806CD0F800344B
:1023080023F00303C0F80034D0F8003401F00302CE
:102318001343C0F80034012907D002290BD141F238
:102328007073CCF80430002070474BF68033CCF83B
:102338000430002070470120704730B583B0044650
:1023480000250195D0F840340193019B23F02E031A
:102358000193019B43F48073C0F84034642001F07A
:1023680007F9019B23F48073C4F840340A2001F074
:10237800FFF8284603B030BD82B000230193D0F89F
:1023880040340193019B23F02E030193019B13F426
:10239800805F01D101290CD0019B13F4805F05D027
:1023A80021B9019B23F48053C0F84034002002B0C7
:1023B8007047019B43F48053C0F84034ECE782B087
:1023C80000230193D0F8403401930198C0F34140B1
:1023D80002B0704700F58060806880B270470000E6
:1023E8002DE9F843164698469DF8244000EB411520
:1023F80005F5A0634FF0FF329A60022C60D00FD829
:10240800002C5DD0012C08D140F22522DA6016F0AC
:10241800800F76D1002291460CE00122914609E016
:10242800032C4AD140F29D62DA6016F0800F61D128
:102438000022914600225A60DA6842F00202DA600D
:10244800D0F8183401F00F0101228A401343C0F874
:102458001834836943F00073836116F0800F57D1F5
:1024680000231F46FFF7ABFF9DF82030022B53D007
:10247800002243469B0503F0FE53F60206F4F0469D
:102488003343A10401F440210B43BDF82810C1F3E4
:102498000A010B433B43134343F48013C5F800354B
:1024A800032C01D0012C05D1D5F8003543F0005399
:1024B800C5F800354846BDE8F88301229146B9E7DA
:1024C80040F29D42DA6016F0800F05D1164A90421C
:1024D80009D000229146ADE7DA6842F48072DA60EA
:1024E80000229146A6E7DA6842F06002DA6000222C
:1024F80091469FE7DA6842F48072DA6000229146DA
:1025080098E7DA6842F4C072DA600022914691E7EF
:102518004FF400431F46A5E7022802D04FF40032CB
:10252800A7E70022A5E700BF0000044000F580608F
:10253800406980B2704710B582B004460023019309
:1025480000EB411101F5A062D1F80035C3F38143D6
:10255800D1F800054FEAD07C5068D4F808E01EF0A6
:10256800200F08D0C00F30B9BCF1000F5AD0012B92
:1025780058D0032B56D01BB3022B21D0D1F80035ED
:1025880043F08043C1F80035D4F8103413F47F0FBA
:102598004BD1D1F8003523F00043C1F80035D1F80C
:1025A800003543F00043C1F80035019B0133019326
:1025B800019BB3F57A7F35D81368002BF5DB31E042
:1025C800D1F8003543F08043C1F80035A36813F013
:1025D800200F21D1E36A13F47F0F16D1D1F800350B
:1025E80023F00043C1F80035D1F8003543F000432B
:1025F800C1F80035019B01330193019BB3F57A7F44
:1026080010D81368002BF5DB0CE0D1F8003543F047
:102618000043C1F8003505E0D1F8003543F0004328
:10262800C1F80035002002B010BDD1F8003543F0E4
:102638000043C1F80035F5E700EB4110064AC0F841
:102648001025D0F8003523F0804343F00043C0F84C
:1026580000350020704700BF0000088070B584B0C6
:1026680014464B78924A904213D08A79012A2CD08A
:102678000D6A002D5DD08E8AAA19013AB2FBF6F2D6
:1026880092B2B2F5807F55D93602CE614FF480728E
:1026980050E0012C09D00A79002AE6D14A79012AAA
:1026A800E3D11946FFF7C8FFA9E08A7C0AB1022ADC
:1026B800DBD18A79002AD8D100EB4312D2F80C5525
:1026C80025F07005C2F80C55CFE7CA781AB18A8A86
:1026D800CA61012235E08A7C012A05D0012C21D06B
:1026E8000A6ACA6101222CE00A6ABC2A0DD98A8AC0
:1026F800CA610A62CA68013A012A02D90122CA607B
:102708001FE00222CA6001221BE0CA61CA68013ABE
:10271800012A03D90422CA60012212E00322CA60F6
:1027280001220EE00D6A8A8A9542D9D9CA6101222E
:1027380007E00122CE78002E64D08D8A02FB05F5D1
:10274800CD61CD69C5F3120C5A4D05EAC2424CEA77
:10275800020C91F816E04FEA4E7E0EF0C04E00EBE8
:10276800431303F5A0654CEA0E022A610CB18A698D
:102778006A6100F5806EDEF80820D3F8006526F05F
:102788000056C3F80065D3F800656FEA020C4FEAFB
:102798004C7C0CF0005C46EA0C06C3F800658A79AC
:1027A800012A31D000226A60D3F800250392039AE7
:1027B80022F080420392CA78002A73D0039A42F426
:1027C80000420392039A42F000420392039AC3F82C
:1027D8000025A4B9CB7893B90B6A83B1CA7972B9C9
:1027E8008A7C022A77D067D8002A74D0012A65D05B
:1027F800002300930B8C4A788969FFF77FFC00203F
:1028080004B070BDCD619CE74E7C0A7C42EAC612DA
:1028180042F000426A60EA6842F06002EA60CA79FF
:10282800012A17D08A7C012A20D0032A1ED08A7C4C
:10283800012AB9D1CA78002AB6D1CA68032A2CD08D
:102848001FD8012A24D0022AAED16A6842F00E02AB
:102858006A60A9E7CA78002AE4D16A6842F480323B
:102868006A60EA6842F04002EA60DBE7CA79012A56
:10287800DDD1CA78012ADAD16A6842F480326A6006
:10288800D5E7042A90D16A6842F440426A608BE72F
:102898006A6842F400426A6086E76A6842F48042E5
:1028A8006A6081E7039A22F4004203928AE700BF34
:1028B800000004400000F81F032A99D10333DEF812
:1028C800102092B2C3F38F039A4291D2836943F0E6
:1028D800806383618CE70333C26A92B2C3F38F03C8
:1028E8009A4285D2836943F02003836180E700BF61
:1028F80030B583B0044600230193FFF7B1FB1021E4
:102908002046FFF7B3FB054608B101231D462046C4
:10291800FFF7D1FB08B101231D4600220AE004EBB2
:102928004211D1F8003523F0802343F08043C1F8E9
:10293800003501320F2AF2D9002100E001310F29B8
:1029480016D804EB411000F5A062D0F8003523F446
:10295800004343F04043C0F80035019B0133019325
:10296800019BB3F57A7FE9D81368002BF5DBE5E71F
:102978004FF0FF33C4F8143463612046FFF76AFB55
:10298800284603B030BD0000002800F0E28170B591
:1029980082B00446036813F0010F3BD09B4B9B6841
:1029A80003F00C03042B2CD0984B9B6803F00C030A
:1029B800082B21D06368B3F5803F4FD0B3F5A02F23
:1029C80052D0924B1A6822F480321A601A6822F4A4
:1029D80080221A606368002B50D000F0C3FD0546C2
:1029E8008A4B1B6813F4003F14D100F0BBFD401B59
:1029F8006428F5D90320B3E1844B5B6813F4800F96
:102A0800D8D0824B1B6813F4003F03D06368002BB7
:102A180000F0A181236813F0020F54D07B4B9B6810
:102A280013F00C0F3ED0794B9B6803F00C03082B76
:102A380033D0E368002B68D0754B01221A6000F090
:102A480091FD0546714B1B6813F0020F54D100F03D
:102A580089FD401B0228F5D9032081E16B4A1368E0
:102A680043F480331360B5E7684B1A6842F4802258
:102A78001A601A6842F480321A60ABE700F072FDFF
:102A88000546624B1B6813F4003FC3D000F06AFD93
:102A9800401B6428F5D9032062E15C4B5B6813F4A2
:102AA800800FC6D1594B1B6813F0020F03D0E3689F
:102AB800012B40F05281554A136823F0F80321692D
:102AC80043EAC1031360236813F0080F42D0636917
:102AD8006BB34F4B0122C3F8802E00F043FD05462F
:102AE8004A4B5B6F13F0020F34D100F03BFD401BE3
:102AF8000228F5D9032033E1444A136823F0F80388
:102B0800216943EAC1031360DDE7414B00221A60E3
:102B180000F028FD05463D4B1B6813F0020FD2D08C
:102B280000F020FD401B0228F5D9032018E1384B9E
:102B38000022C3F8802E00F015FD0546334B5B6F6D
:102B480013F0020F06D000F00DFD401B0228F5D946
:102B5800032005E1236813F0040F79D02B4B1B6C7D
:102B680013F0805F34D100230193284B1A6C42F094
:102B780080521A641B6C03F080530193019B01235C
:102B88001E46244B1B6813F4807F24D0A368012BB6
:102B980035D0052B40D01D4B1A6F22F001021A6761
:102BA8001A6F22F004021A67A368002B3ED000F0C7
:102BB800D9FC0546154B1B6F13F0020F47D100F0E7
:102BC800D1FC401B41F288339842F3D90320C7E077
:102BD80000231E46D5E70F4A136843F48073136039
:102BE80000F0C0FC05460B4B1B6813F4807FCDD169
:102BF80000F0B8FC401B0228F5D90320B0E0034AD6
:102C0800136F43F001031367CEE700BF003802409B
:102C18000000474200700040584B1A6F42F004020F
:102C28001A671A6F42F001021A67BDE700F09AFCB2
:102C38000546524B1B6F13F0020F08D000F092FCB0
:102C4800401B41F288339842F3D9032088E0EEB95B
:102C5800A369002B00F08380484A926802F00C02B6
:102C6800082A51D0022B17D0454B00221A6600F0D3
:102C780079FC0446414B1B6813F0007F42D000F0FA
:102C880071FC001B0228F5D9032069E03B4A136C4C
:102C980023F080531364DBE7394B00221A6600F0F7
:102CA80061FC0546354B1B6813F0007F06D000F029
:102CB80059FC401B0228F5D9032051E0E369226A38
:102CC8001343626A43EA8213A26A5208013A43EA4A
:102CD8000243E26A43EA0263284A5360284B01220E
:102CE8001A6600F03FFC0446244B1B6813F0007F73
:102CF80006D100F037FC001B0228F5D903202FE08D
:102D080000202DE000202BE0012B2BD01B4B5B6813
:102D180003F48001E269914226D103F03F02216A5F
:102D28008A4223D1616A47F6C0721A40B2EB811F0A
:102D38001ED103F44031A26A5208013AB1EB024FA6
:102D480018D103F07063E26AB3EB026F14D100206C
:102D580006E001207047012002E0012000E018464B
:102D680002B070BD0120FBE70120F9E70120F7E779
:102D78000120F5E70120F3E70120F1E700380240E0
:102D88000000474208B5334B9B6803F00C03042B43
:102D98005BD0082B5BD12F4B5A6802F03F025B686F
:102DA80013F4800F2CD02B4B5868C0F388104FEACF
:102DB800401CBCEB000C6EEB0E0E4FEA8E1343EA80
:102DC8009C634FEA8C11B1EB0C0163EB0E03DB0043
:102DD80043EA5173C90011EB000C43F10003590297
:102DE80000234FEA4C2041EADC51FDF70DFA194B5C
:102DF8005B68C3F3014301335B00B0FBF3F008BD2C
:102E0800144B5868C0F388104FEA401CBCEB000C08
:102E18006EEB0E0E4FEA8E1343EA9C634FEA8C1159
:102E2800B1EB0C0163EB0E03DB0043EA5173C900FD
:102E380011EB000C43F10003990200234FEA8C20A8
:102E480041EA9C51FDF7E0F9D1E70348D7E7034889
:102E5800D5E700BF0038024000127A000024F400D1
:102E6800002800F09B8070B50D4604464F4B1B6848
:102E780003F007038B4208D2CBB24C4A1370136895
:102E880003F007038B4240F08B80236813F0020F96
:102E980017D013F0040F04D0454A936843F4E05365
:102EA8009360236813F0080F04D0414A936843F4F1
:102EB800604393603E4A936823F0F003A1680B4394
:102EC8009360236813F0010F32D06368012B21D07F
:102ED8009A1E012A25D9364A126812F0020F61D0CB
:102EE80033498A6822F0030213438B6000F03AFBEF
:102EF80006462F4B9B6803F00C036268B3EB820F06
:102F080016D000F02FFB801B41F288339842F0D98D
:102F1800032042E0264A126812F4003FE0D1012063
:102F28003BE0234A126812F0007FD9D1012034E037
:102F38001E4B1B6803F00703AB4207D9EAB21B4BD1
:102F48001A701B6803F00703AB422DD1236813F0F6
:102F5800040F06D0164A936823F4E053E1680B4344
:102F68009360236813F0080F07D0114A936823F47D
:102F78006043216943EAC1039360FFF703FF0C4BE9
:102F88009B68C3F303130B4AD35CD8400A4B186001
:102F98000A4B186800F09AFA002070BD01207047AB
:102FA8000120FAE70120F8E70120F6E7003C02409B
:102FB80000380240405B00080800002004000020A0
:102FC800014B1868704700BF0800002008B5FFF7DC
:102FD800F7FF044B9B68C3F38223034AD35CD840B2
:102FE80008BD00BF00380240385B000830B583B028
:102FF8000546036813F0010F02D113F0040F2BD01C
:103008004E4B00229A6600F0ADFA04464C4B1B6802
:1030180013F0006F06D000F0A5FA031B022BF5D9B8
:1030280003201EE06A68AB681B0743EA8213444A20
:10303800C2F88430414B01229A6600F093FA0446A4
:103048003F4B1B6813F0006F06D100F08BFA031B8F
:10305800022BF5D9032004E02B6813F0020F02D1EC
:10306800002003B030BD00230193354B1A6C42F0A9
:1030780080521A641B6C03F080530193019B314A00
:10308800136843F48073136000F06CFA04462D4B08
:103098001B6813F4807F06D100F064FA001B022835
:1030A800F5D90320DDE7264B1B6F13F4407314D0CA
:1030B800EA6802F440729A420FD0214B1A6F22F448
:1030C80040721E490120C1F8400E0020C1F8400E90
:1030D8001A671B6F13F0010F13D1EB6803F44072EA
:1030E800B2F5407F1ED0164A936823F4F813936014
:1030F80013490B6FEA68C2F30B0213430B670020F6
:10310800AFE700F02FFA04460D4B1B6F13F0020FC8
:10311800E3D100F027FA031B41F288329342F3D936
:1031280003209EE706498A6822F4F81223F07043C8
:1031380023F4407313438B60DAE700BF0000474273
:103148000038024000700040012801D0002070477C
:10315800154B9B6813F4000302D01BB31348704748
:10316800114B5B6813F4800F14D00F4B5A6802F0B0
:103178003F020F4BB3FBF2F30B4AD2F88400C0F3C3
:10318800881003FB00F0D2F88430C3F30273B0FB5D
:10319800F3F07047044B5A6802F03F02054BB3FB4B
:1031A800F2F3E9E718467047003802400080BB0098
:1031B80000127A000024F40070B582B08E46002315
:1031C80069E085684FEA430C032101FA0CF125EA0E
:1031D8000105DEF80C1001FA0CF129438160416801
:1031E80021EA0201DEF80420C2F300129A400A43E1
:1031F800426065E0D908083150F8212003F007053E
:10320800AD004FF00F0C0CFA05FC22EA0C0CDEF8AE
:103218001020AA4042EA0C0240F8212067E0072269
:1032280000E0002202FA0CF22A430231604D45F810
:103238002120604A9168E24321EA0405DEF804602F
:1032480016F4801F01D044EA01055A498D60C96807
:1032580002EA0105DEF8046016F4001F01D044EA12
:1032680001055449CD60496802EA0105DEF80460A9
:1032780016F4003F01D044EA01054E494D60096843
:103288000A40DEF8045015F4803F01D044EA0102F8
:1032980048490A6001330F2B00F2878001229A40C7
:1032A800DEF8001001EA020432EA0101F2D1DEF888
:1032B800041001F0030C0CF1FF3CBCF1010F80D9A4
:1032C800DEF8042002F00302032A0AD0C1685D0078
:1032D8000322AA4021EA0201DEF80820AA400A4394
:1032E800C260DEF8042002F00302022A82D00168DC
:1032F8004FEA430C032202FA0CF221EA0201DEF83B
:10330800042002F0030202FA0CF20A430260DEF81B
:10331800042012F4403FBDD000220192264A516C8D
:1033280041F480415164526C02F480420192019A46
:1033380099088D1C1E4A52F8255003F0030C4FEAD9
:103348008C0C0F2202FA0CF225EA02051B4A904265
:103358003FF467AF02F5806290421AD002F58062AE
:10336800904218D002F58062904216D002F5806231
:10337800904214D002F58062904212D002F5806229
:10338800904210D002F5806290423FF448AF082284
:1033980048E7012246E7022244E7032242E70422E3
:1033A80040E705223EE706223CE702B070BD00BFB9
:1033B80000380140003C0140003802400000024053
:1033C8000AB181617047090481617047002807DBF1
:1033D80000F01F02400901239340024A42F82030BE
:1033E800704700BF00E100E0002808DB0901C9B20E
:1033F80000F1604000F5614080F80013704700F06C
:103408000F000901C9B2014B1954704714ED00E0CF
:1034180000B500F00700A0F1030CBCF1040F07D8B9
:10342800C0F1070E0430062806D84FF0000C03E060
:103438004FF0040E4FF0000C4FF0FF3303FA0EF07C
:1034480021EA000101FA0CF103FA0CF322EA030263
:1034580041EA020000BD0000074AD36823F4E06394
:103468001B041B0C000200F4E060034343F0BF633D
:1034780043F40033D360704700ED00E010B5044614
:10348800054BD868C0F30220FFF7C2FF014620466B
:10349800FFF7AAFF10BD00BF00ED00E008B5FFF779
:1034A80095FF08BD0138B0F1807F0BD24FF0E023C3
:1034B8005861054AF02182F82310002098610722FC
:1034C8001A6170470120704700ED00E010B504460E
:1034D8000E4B18680E4B1A784FF47A73B3FBF2F35D
:1034E800B0FBF3F0FFF7DEFF68B90F2C01D901201C
:1034F8000AE0024621464FF0FF30FFF7BFFF054BB9
:103508001C60002000E0012010BD00BF0800002062
:10351800000000200400002008B50B4B1A6842F494
:1035280000721A601A6842F480621A601A6842F4DB
:1035380080721A600320FFF78FFF0020FFF7C6FF95
:10354800FDF77AFB002008BD003C0240034A1168E1
:10355800034B1B780B441360704700BF8809002099
:1035680000000020014B1868704700BF8809002040
:1035780038B50446FFF7F6FF0546B4F1FF3F02D021
:10358800044B1B781C44FFF7EDFF401BA042FAD305
:1035980038BD00BF00000020002800F0A18038B529
:1035A800044690F82030D3B12268136843F0010331
:1035B8001360FFF7D7FF054623685A6812F0010F1A
:1035C80010D1FFF7CFFF401B0A28F5D9636A43F4EF
:1035D80000336362052384F82030012038BDFDF7ED
:1035E8004BFBE1E71A6822F002021A60FFF7BAFF04
:1035F800054623685A6812F0020F0DD0FFF7B2FF94
:10360800401B0A28F5D9636A43F400336362052333
:1036180084F820300120E1E7227E012A3DD01A6893
:1036280022F080021A60637E012B3BD02268136867
:1036380023F040031360A37E012B39D0226813685E
:1036480023F020031360E37E012B37D02268136830
:1036580043F010031360237F012B35D022681368D1
:1036680023F008031360637F012B33D022681368AB
:1036780023F004031360A368E26813432269134329
:10368800626913436268013A21681343CB610020E1
:103698006062012384F82030A0E71A6842F08002B3
:1036A8001A60C0E72268136843F040031360C2E75A
:1036B8002268136843F020031360C4E72268136884
:1036C80023F010031360C6E72268136843F0080369
:1036D8001360C8E72268136843F004031360CAE75D
:1036E8000120704790F82030013BDBB2012B05D94F
:1036F800436A43F4802343620120704710B5474B67
:10370800D3F8002242F00102C3F80022D3F80022C5
:1037180022F47C52C3F80022D3F80022486A42EA15
:103728000022C3F800224A6902F01F02012000FAB1
:1037380002F2D3F81C026FEA020C20EA0200C3F876
:103748001C02CB69CBB9354BD3F80C020CEA00004C
:10375800C3F80C02B1F804E04869CC684EEA044E9C
:10376800483043F830E008888C6840EA04404C69E7
:1037780004F1480E03EBCE035860CB69012B1ED031
:103788008B69002B35D12548D0F804320CEA0303A5
:10379800C0F804320B699BBB2048D0F814320CEAFD
:1037A8000303C0F814320B6A012B30D01B4AD2F83D
:1037B800003223F00103C2F80032002010BD174B7D
:1037C800D3F80C021043C3F80C02B1F804E04869BE
:1037D8000C684EEA044E483043F830E088898C681B
:1037E80040EA04404C6904F1480E03EBCE035860EC
:1037F800C6E70A48D0F804321343C0F80432C9E7D0
:103808000648D0F814321343C0F81432CBE7034902
:10381800D1F81C321343C1F81C32C7E700640040DA
:1038280070B5044690F82030012B06D0436A43F463
:10383800002343620126304670BDDEB2022380F8C1
:1038480020300268136823F001031360FFF78AFE33
:10385800054623685B6813F0010F0CD0FFF782FE62
:10386800431B0A2BF5D9636A43F4003363620523CB
:1038780084F82030DFE700266662DCE790F8203025
:10388800013BDBB2012B05D9436A43F48023436231
:1038980001207047026853690B4353610020704749
:1038A8007047704770477047704770477047704758
:1038B800704770477047704770472DE9F84F0546C5
:1038C80003685C69D3F804809F68DA6891461A69CE
:1038D80092469A69934614F001063BD017F0010608
:1038E80016D001229A6017F0020F08D117F0040FC2
:1038F8000CD117F0080606D04FF4805608E0FFF701
:10390800CFFF002604E0FFF7CEFF01E04FF400668A
:1039180017F4807F0DD02B684FF480729A6017F4EB
:10392800007F40F0928017F4806F00F0928046F498
:10393800005617F4803F0DD02B684FF480329A6000
:1039480017F4003F40F08F8017F4802F00F08F802D
:1039580046F4004614F0080F07D019F0100F04D0F1
:1039680046F400762B681022DA6014F0040F03D0B6
:1039780019F0080F40F0858014F0020F05D02B686D
:10398800DB6813F0030F40F0838014F0400F07D07A
:103998001AF0100F04D046F480662B6810221A61C2
:1039A80014F0200F02D01AF0080F75D114F0100F80
:1039B80004D02B681B6913F0030F74D114F4003F73
:1039C80002D018F0100F72D114F4803F02D018F012
:1039D800080F73D114F4004F33D018F0040F2DD012
:1039E80014F4807F04D01BF0010F01D046F00106CB
:1039F80014F4007F04D01BF0020F01D046F0020639
:103A080014F4806F04D01BF0040F01D046F00406B4
:103A180014F4006F12D01BF070030FD0402B61D04C
:103A280053D8202B58D0302B59D0102B01D146F029
:103A380008062A68936923F0700393612B680422AF
:103A48005A60002E54D1BDE8F88F2846FFF729FFA9
:103A58006FE717F4006F02D046F4804669E72846FE
:103A6800FFF722FF65E72846FFF71CFF72E717F408
:103A7800002F02D046F480366CE72846FFF715FF82
:103A880068E72B680822DA602846FFF710FF73E71B
:103A98002846FFF70BFF78E72B6808221A612846AB
:103AA800FFF707FF82E72846FFF702FF86E72B6844
:103AB80010225A602846FFF7FDFE85E72B6808228A
:103AC8005A602846FFF7F7FE84E7502B0DD0602B8D
:103AD800AFD146F48076ACE746F01006A9E746F089
:103AE8002006A6E746F04006A3E746F08006A0E7D2
:103AF8006B6A33436B622846FFF7DEFEA3E70000DC
:103B0800002800F0DA8038B5044690F83D30002BE4
:103B180051D0242384F83D302268136823F0010330
:103B280013602268136843F4004313602268136823
:103B380023F400431360FFF749FA6268614B9A4225
:103B48003ED8614B98428CBF00230123002B40F0E4
:103B5800B6805E49A1FB00318B0CD4F800C0DCF8BC
:103B6800042022F03F0242EA9142CCF80420216866
:103B78000A6A22F03F02DFF84CC16568654525D81E
:103B8800013313430B622168CA6922F44F4222F0C1
:103B9800FF02D4F804C04B4B9C4522D8431E4FEA81
:103BA8004C0CB3FBFCF3013340F6FC70034254D0D9
:103BB800C3F30B0352E080F83C30FDF79BF8A8E70D
:103BC800434B98428CBF00230123BFE74FF4967CF8
:103BD8000CFB03F3DFF8FCC0ACFB03C39B09013308
:103BE800CFE7D4F808E0BEF1000F1AD1431E0CEB62
:103BF8004C05B3FBF5F30133C3F30B03B3FA83F3BB
:103C08005B09002B57D1BEF1000F19D1431E0CEBF5
:103C18004C0CB3FBFCF30133C3F30B0343F4004335
:103C28001CE00CEB8C0303EB83031D46431EB3FB24
:103C3800F5F30133C3F30B03B3FA83F35B09E0E74E
:103C4800431E0CEB8C0C0CEB8C0CB3FBFCF301331C
:103C5800C3F30B0343F4404300E004231A43CA614F
:103C680021680B6823F0C003E269206A024313430A
:103C78000B6021688B6823F4034323F0FF03226958
:103C8800E068024313438B602168CB6823F0FF038D
:103C98006269A06902431343CB602268136843F04A
:103CA8000103136000202064202384F83D30206342
:103CB80084F83E0038BD0123D0E701207047012079
:103CC800F8E700BFA08601007F841E0083DE1B4347
:103CD800FF083D00D34D6210002800F0C48038B5BD
:103CE800044690F84130002B53D0022284F841203A
:103CF8002168CB6923F47B6323F00F03CB6123682E
:103D08001A62636993426CD0E368002B48D1102390
:103D18001D46A368202B01D86B001D460120FFF724
:103D280013FA2369B3F5007F3DD0B0FBF5F000EB43
:103D3800800043006269B3FBF2F305334B4AA2FBF0
:103D48000323C3F3C002C2EBD3035B0811029A1E1C
:103D5800FD2A40D822690A4321681A430A62216869
:103D6800CB6923F47B6323F00F036268A0680243E6
:103D7800E0680243A0690243134343F40063CB6144
:103D8800236A012B2FD000206064012384F841307E
:103D980038BD80F84030364B4363FCF7E3FFA4E7B7
:103DA80020231D46B5E7E36853B1AB00B0FBF3F041
:103DB80000EB800043006269B3FBF2F30533BDE713
:103DC800EB00B0FBF3F000EB800043006269B3FB4B
:103DD800F2F30533B2E7636C43F010036364012028
:103DE800D6E70021B6E7234B63632268224B9A4249
:103DF80020D04FF04022D36923F47B6323F00F03D4
:103E0800D36122681C4B9A4216D04FF040220223FD
:103E180013622268184B9A4210D04FF0402CDCF8FD
:103E28001C309BB26268B2F5007F0AD0CAB94FF461
:103E3800807008E0114ADEE7104AE8E7DFF83CC086
:103E4800EDE74FF48070B4F808E0A189228B40EACE
:103E58000E0001430A43134343F40063CCF81C30BB
:103E680091E70020EFE70120704700BFCDCCCCCC14
:103E7800FF3E00080D4100080038004000340040B3
:103E8800704708B5426A03681288DA60436A0233E9
:103E98004362438D9BB2013B9BB24385438D9BB2EA
:103EA80003B108BD0268536823F0A00353600123DF
:103EB80080F84130FFF7E4FFF3E7704708B503687F
:103EC800DA68C36A1A80C36A0233C362438E9BB23C
:103ED800013B9BB24386438E9BB203B108BD026887
:103EE800536823F060035360012380F84130FFF7E3
:103EF800E4FFF3E7704710B584B0044603689A6896
:103F0800039290F84120042A05D094F84130032BFD
:103F18002CD004B010BD039A12F0010F03D05B68D7
:103F280013F0400F1FD1039B13F0400FEDD023680F
:103F38005A6812F0200FE8D05A6822F060025A60DE
:103F4800002301932368DA6801929B680193019B1F
:103F5800012384F84130636C43F002036364204614
:103F6800FFF7C8FFD1E7FFF7A9FFDCE7039B13F0D2
:103F7800020F04D023685B6813F0800F1DD1039BE8
:103F880013F0080FC5D023685A6812F0200FC0D06C
:103F98005A6822F0A0025A600023029323689B68A3
:103FA8000293029B012384F84130636C43F00403BD
:103FB80063642046FFF79EFFABE72046FFF761FFEB
:103FC800DDE7704708B5436A9A1C426202681B889D
:103FD800D360438D9BB2013B9BB24385438D9BB21B
:103FE8003BB90268536823F0A0035360438E9BB229
:103FF80003B108BD012380F84130FFF7E2FFF8E77D
:1040080008B50268154B9A421CD04FF04023DA6875
:10401800C36A991CC1621A80438E9BB2013B9BB252
:104028004386438E9BB263B902680C4B9A420CD00C
:104038004FF04022536823F060035360438D9BB2D6
:104048002BB108BDA3F58063E1E7054AF2E7012338
:1040580080F84130FFF7B5FFF3E700BF00380040B4
:104068000034004008B5436A9A1C42621A88016805
:10407800134B994218D04FF04023DA60438D9BB21E
:10408800013B9BB24385438D9BB263B902680C4BDD
:104098009A420CD04FF04022536823F0A00353609B
:1040A800438E9BB22BB108BDA3F58063E5E7054AB3
:1040B800F2E7012380F84130FFF783FFF3E700BF01
:1040C800003800400034004008B50368DA68C36A65
:1040D800991CC1621A80438E9BB2013B9BB24386F6
:1040E800438E9BB23BB90268536823F06003536068
:1040F800438D9BB203B108BD012380F84130FFF71F
:1041080060FFF8E710B586B0044603689A68059220
:10411800704A93426FD04FF04022916804915B68D7
:104128000393536802936368B3F5007F01D0002BB3
:1041380070D1059B13F0020F03D0039B13F0800F7F
:104148005CD1049B13F0010F03D0029B13F0400FC6
:1041580058D1049B13F0400F24D0029B13F0200F7A
:1041680020D022685B4B9A4250D04FF040225368CF
:1041780023F0600353602268536823F0A003536060
:10418800002300932368DA6800929B680093009BE1
:10419800012384F84130636C43F0020363642046D2
:1041A800FFF7A8FE059B13F0080F22D0039B13F01E
:1041B800200F1ED02268536823F0A00353602268A2
:1041C800444B9A4224D04FF04022536823F06003B6
:1041D80053600023019323689B680193019B01238B
:1041E80084F84130636C43F0040363642046FFF7AE
:1041F80081FE06B010BDA2F580628EE72046FFF76B
:10420800E1FE9EE72046FFF7FBFEA2E7324AAEE753
:10421800314ADAE7049B13F0020F03D0029B13F034
:10422800800F4AD1059B13F0010F03D0039B13F0B5
:10423800400F46D1059B13F0400F1CD0039B13F091
:10424800200F18D02268536823F060035360226857
:10425800204B9A4239D04FF04022536823F0A003F4
:104268005360012384F84130636C43F002036364B4
:104278002046FFF73FFE049B13F0080FB9D0029BBE
:1042880013F0200FB5D02268124B9A421FD04FF07E
:104298004022536823F0A00353602268536823F038
:1042A80060035360012384F84130636C43F00403D6
:1042B80063642046FFF71EFE9BE72046FFF7D2FE09
:1042C800B0E72046FFF700FFB4E7034AC5E7024A14
:1042D800DFE700BF003800400034004000285AD013
:1042E80010B50446436A33B94368B3F5827F05D0F5
:1042F8000023C36102E00023036143610023A3623A
:1043080094F85130002B40D0022384F851302268B1
:10431800136823F040031360636803F48273A26890
:1043280002F404421343E26802F400621343226970
:1043380002F002021343626902F001021343A26908
:1043480002F400721343E26902F038021343226A4E
:1043580002F080021343A26A02F400522168134358
:104368000B60638B03F00403626A02F01002216899
:1043780013434B602268D36923F40063D3610020A0
:104388006065012384F8513010BD84F85030204610
:10439800FCF74AFDB8E7012070470000034AD2F84D
:1043A800883043F47003C2F88830704700ED00E0AD
:1043B80008B503780B2B00D008BDD0F87C33002B50
:1043C800FAD09B699847F7E738B50446002306E01A
:1043D80003F1E00204EB82020021516001330F2B4C
:1043E800F6D9002304E0E218002182F81C110133F9
:1043F800B3F5007FF7D30025257065700123A370FE
:10440800C4F8C45323764022A271657684F81C53FD
:1044180084F81D3384F81F5384F81E534FF48072B8
:10442800294604F11C0001F0E7FA4FF4007229460E
:1044380004F58E7001F0E0FAC4F82653C4F82A5344
:10444800C4F82E53C4F83253A4F836533E222946F2
:1044580004F54E7001F0D0FA284638BD30B585B065
:1044680005464478042C00F0DF801ED8022C00F0AA
:104478008B800CD864B3012C07D1122100F057FEB1
:10448800002867D102236B7022E1012420E1032C6C
:1044980009D1092100F066FE002840F0A880042315
:1044A8006B70012414E1012412E1062C00F0F48061
:1044B800072C00F00A81052C08D190F83413002944
:1044C80040F0D88006234370012401E10124FFE075
:1044D800082100F02CFE18B1032823D00124F7E0AE
:1044E80095F82D33AB714FF001026A7002930446C0
:1044F800019095F81D33009395F81C338022297993
:10450800284600F02AFFAB790293019495F81D33F1
:10451800009395F81C3322466979284600F01DFF60
:104528000124D5E095F81E330133DBB285F81E333C
:10453800032B03D90D232B700124C9E06979284680
:1045480000F036FF2979284600F032FF00232B704F
:104558000124BDE0032840F0BB8095F81E330133E9
:10456800DBB285F81E33032B02D90D232B70AFE085
:104578006979284600F01CFF2979284600F018FFC1
:1045880000236B702B70A3E0012100F029FE18B105
:10459800032826D001249BE00220FCF7D0FA4FF034
:1045A800010385F81C3303236B70AB790293002455
:1045B800019495F81D330093012380222979284618
:1045C80000F0CBFEAB790293019495F81D3300936C
:1045D80095F81C3322466979284600F0BEFE01246E
:1045E80076E00D232B7000236B70012470E0032804
:1045F80001D001246CE095F81E330133DBB285F855
:104608001E33032B03D90D232B70012460E0697935
:10461800284600F0CDFE2979284600F0C9FE00237F
:104628006B702B70012453E0B0F83A1300F09AFD38
:1046380018B905236B7001244AE0032801D001242E
:1046480046E095F81E330133DBB285F81E33032BA1
:1046580003D90D232B7001243AE06979284600F02C
:10466800A7FE2979284600F0A3FE00236B702B7063
:1046780001242DE0FF2300F58E7200F08EFD18B99D
:1046880006236B70012423E0032801D001241FE0D6
:1046980006236B7001241BE090F8351319B9072322
:1046A8004370012414E0FF2300F58E7200F075FDBD
:1046B80018B907236B7001240AE0032801D00124EC
:1046C80006E007236B70012402E090F8364314B922
:1046D800204605B030BDFF2300F58E72214600F05C
:1046E8005CFD04460028F3D0032801D00124EFE73D
:1046F8000024EDE7D8B170B50E46044680F8CC2307
:104708000025C0F87C53C0F88053FFF75DFE84F89D
:10471800235384F8205384F8215384F822530EB18C
:10472800C4F8D4632046FCF79DF9002070BD022030
:1047380070470A4651B1D0F880334BB9591CC0F8BC
:104748008013DE3340F82320002070470220704792
:104758000220704790F83C338B4203D980F8241329
:10476800002070470220704710B5044600200BE077
:104778004FF01A0C0CFB0E4E9EF849C39C451CD0FA
:10478800FF2B1AD00130C0B2012815D886464FF049
:104798001A0C0CFB004C9CF847C38C4501D0FF2930
:1047A800F0D14FF01A0C0CFB0E4C9CF848C3944502
:1047B800DED0FF2AE6D1DBE7FF2010BD10B50446A6
:1047C800FCF7CCF901212046FCF794F9002010BD34
:1047D80030B587B0044602238DF8173090F821339E
:1047E800012B1BD02278D3B2062A00F00881062BB1
:1047F80017D9092B00F0BC8046D8072B00F0AE80F3
:10480800082B40F0A58094F83D13204600F0F9FCF1
:10481800002840F09D800923237099E0032303704A
:10482800E0E7022B5FD018D8002B3AD0012B40F0DC
:104838008F8094F82333012B45D0D4F8C833B3F5CF
:104848007A7F49D994F81F330133DBB284F81F33D8
:10485800032B3ED90D2323707AE0032B00F0E78069
:10486800052B75D12046FFF7F9FD8DF817009DF847
:104878001730002B6CD184F8243394F83733012B8C
:1048880069D00723237063E00A2B00F08C800B2B80
:104898005ED1D4F87C33002B5AD05B692046984708
:1048A80056E094F82033002B52D001232370C820FF
:1048B800FCF745F92046FCF761F9002384F81C331E
:1048C800C4F8C83344E0002384F81F33022323705C
:1048D8003EE0002323703BE00A33C4F8C8330A20C3
:1048E800FCF72DF934E0D4F8D43313B10421204671
:1048F80098476420FCF723F92046FCF7DDF884F894
:104908001D03052323700021204600F03EFD607141
:104918008021204600F039FD01462071A3790293D9
:104928000025019594F81D33009394F81C338022D8
:10493800204600F012FDA3790293019594F81D33E7
:10494800009394F81C332A466179204600F005FD4F
:10495800002007B030BD08232370F9E7D4F8D4331A
:10496800002BF5D001212046984708232370EFE754
:1049780094F83F3313F0200F02D10A232370E7E79E
:104988000121204600F04EFC8DF817009DF81730E5
:1049980013B90A232370DBE79DF81730032BD7D10F
:1049A8000A232370D4E7D4F88033002BD0D0002317
:1049B800C4F87C3373B1D4F87C33EBB19B682046E0
:1049C8009847B0B906232370D4F8D433032120467E
:1049D8009847BDE703F1DE0254F82220107994F8D5
:1049E8004713884202D00133DBB2E3E7C4F87C23E3
:1049F800E1E70D232370ABE70D232370A8E7D4F874
:104A08007C338BB11B69204698478DF817009DF8B9
:104A1800173013B90B2323709AE79DF81730022B30
:104A280096D10D23237093E70D23237090E700237D
:104A380084F821332046FFF7C7FCD4F87C332BB128
:104A4800DB68204698470023C4F87C33D4F8D43375
:104A580013B105212046984794F82233012B03D03F
:104A68002046FCF77BF873E7002384F822332046BE
:104A7800FFF7A4FE6CE7C0F8C413704708B5D0F878
:104A8800C4230132C0F8C423FFF792FC08BD0123F8
:104A980080F823337047002380F82333012380F8FC
:104AA800213370470346012280F82023002083F831
:104AB800210383F82203704738B50446012380F8A0
:104AC8002133002580F8205380F82353FCF74EF853
:104AD8002179204600F06CFC6179204600F068FCE2
:104AE800284638BD03468C4600296FD0097880F8DF
:104AF80026139CF8011080F827139CF802109CF8E4
:104B0800030041EA0021A3F828139CF8041083F855
:104B18002A139CF8051083F82B139CF8061083F8C9
:104B28002C139CF8071083F82D1393F81D03012804
:104B38002DD902283BD00320082A48D99CF8082000
:104B48009CF8091042EA0122A3F82E239CF80A20B7
:104B58009CF80B1042EA0122A3F830239CF80C20A1
:104B68009CF80D1042EA0122A3F832239CF80E208B
:104B780083F834239CF80F2083F835239CF8102001
:104B880083F836239CF8112083F8372370472029AF
:104B980014D008D8082913D0102913D0082183F875
:104BA8002D130020C8E74029F8D10020C4E70829C0
:104BB8000AD0082183F82D130020BDE70020BBE7A9
:104BC8000020B9E70020B7E70020B5E702207047CA
:104BD8000B7803704B7843708B788370CB78C370F5
:104BE8000B7903714B7943718B798371CB79C371DD
:104BF8000B7A0372704700B5864613780B705378AA
:104C08004B7093788B7092F803C081F803C01379C6
:104C1800507943EA00238B80907988715A1E92B2AA
:104C2800B2F5007F0CD200219EF81D23DAB90CF0F2
:104C38000302022A06D052B9402B19D9032117E0E2
:104C48000321F1E7B3F5007F12D9032110E0012A0F
:104C580003D0032A01D003210AE0431EDBB20F2B45
:104C680006D9032104E0012A04D0022A1FD0032117
:104C7800084600BD0CF00302022A00D01AB9402BE6
:104C8800F6D90321F4E7012A03D0032A09D0032126
:104C9800EEE7421ED2B20F2A1AD8402BE8D90321D8
:104CA800E6E7B8B1B3F5806FE2D31146E0E71CF050
:104CB800030C03D1082BDBD00321D9E7BCF1030F88
:104CC80001D00321D4E738B1082BD1D96146CFE709
:104CD8000321CDE71146CBE76146C9E74378032BAB
:104CE80000D070470378023B9A4228BF1A4692B216
:104CF800002307E000EB030C9CF802C001F801CB8D
:104D080002339BB29342F5D300230B70E9E730B529
:104D180083B00546047E062C00F0968016D9092C2F
:104D280000F0C3803CD8072C00F0AB80082C35D1AC
:104D38000179FBF7D9FE012800F0AF80042800F0C4
:104D4800B080052800F0E880012442E0032C5CD004
:104D580011D8012C36D0022C0BD14179FBF7C4FEB7
:104D68000446012838D004284BD0022849D0012411
:104D78002FE001242DE0042C53D0052C0CD1012464
:104D8800009443798289816800F080FAD5F8C433A9
:104D9800EB8106232B761CE001241AE0012418E09D
:104DA8000A2C00F08F800B2C0AD1437E0133DBB232
:104DB8004376022B00F29D8001240476847008E07B
:104DC800012406E0427900F1100100F04EFA0223B6
:104DD8002B76204603B030BD2B7CEA8A42B113F013
:104DE800800F02D105232B76F3E703232B76F0E718
:104DF80013F0800F02D107232B76EAE709232B76DD
:104E0800E7E70B232B760124E3E7D0F8C433C3810B
:104E180003798289816800F052FA04232B760124F1
:104E2800D7E70179FBF760FE0446012805D005287D
:104E380070D0042804D00124CBE709232B76C8E7D7
:104E48000B232B760124C4E74179FBF74DFE04467A
:104E5800012807D0052808D002280AD004280CD039
:104E68000124B6E707232B76B3E70C232B7603241C
:104E7800AFE705232B760124ABE70B232B7602241F
:104E8800A7E703790022114600F019FAD5F8C433D0
:104E9800EB8108232B7601249BE70D232B76002436
:104EA80097E70B232B76012493E701240094437999
:104EB8000022114600F0EAF9D5F8C433EB810A2341
:104EC8002B7686E74179FBF70FFE012805D00228EB
:104ED80007D0042809D001247BE70D232B76002472
:104EE80077E709232B76012473E70B232B7601241C
:104EF8006FE7D0F8D4330621984700246C76697997
:104F0800284600F055FA2979284600F051FA2C7005
:104F180002245EE703245CE703245AE70B8802783F
:104F280013440B800378184470472DE9F04383B08D
:104F3800002900F0AF8005460C460B78092B01D0FC
:104F480009230B70237885F83833637885F839336B
:104F5800A378E17843EA0123B3F5807F28BF4FF4B3
:104F68008073A5F83A33237985F83C33637985F85B
:104F78003D33A37985F83E33E37985F83F33237AC7
:104F880085F84033092A40F288800923ADF80630B5
:104F98000026B146012E73D8B5F83A23BDF806307D
:104FA8009A426DD90DF106012046FFF7B7FF044676
:104FB8004378042BEED10378092B01D00923037021
:104FC800B04605F54E701A2306FB03F30833184460
:104FD80021460230FFF7FCFD002712E0072323706B
:104FE80005F54E7101371A2303FB08F303EBC703DA
:104FF80008331944224604312846FFF7FCFD814650
:10500800FFB2012F32D81A2303FB085393F8463313
:10501800BB422BD9B5F83A23BDF806309A4225D9B8
:105028000DF106012046FFF779FF04464378052B6A
:10503800E7D11A2303FB085393F84733012BCDD14B
:105048001A2303FB085393F84833023BDBB2012BC6
:10505800C4D81A2303FB085393F84933002BBFD154
:105068000378092BBCD009230370B9E71A2303FB83
:10507800085898F84633BB4215D80136F6B289E786
:1050880095F83C33022B28BF0223B34207D90323E8
:10509800994604E00223994601E0002399464846D0
:1050A80003B0BDE8F08303239946F8E710B504463A
:1050B8008078012803D0022808D0012005E0A160EB
:1050C800A281012323760223A37010BD2046FFF797
:1050D8001EFE30B1032804D00228F6D10123A370A4
:1050E800F3E70123A37000232376EEE708B58E4685
:1050F80094461946BDF808208378012B02D0FFF7A3
:10510800D5FF08BD6EF07F0E80F810E006234374CB
:10511800A0F812C00CF47F4CBCF5407F03D00023EC
:105128008382C282EBE740F209438382F9E7B1F553
:10513800007F15D870B582B005460C4600F58E7311
:105148001E4600914FF480720021FFF7CFFF08B18F
:1051580002B070BD224631462846FFF7C3FCF7E788
:1051680003207047B1F5807F15D870B582B0064628
:105178000C4600F11C031D4600914FF400720021FB
:10518800FFF7B4FF08B102B070BD22462946304689
:10519800FFF7CBFEF7E703207047F0B583B0B3F510
:1051A800007F17D815461E46BAB100F58E7217460D
:1051B8000093134641F440720021FFF797FF04461D
:1051C80010B1204603B0F0BD324629463846FFF7F5
:1051D80085FDF6E703231C46F3E703231C46F0E7A7
:1051E80008B58378012B04D000221146FFF75EFF33
:1051F80008BD002303740522427441828382C3825E
:10520800F2E708B58378012B04D000221146FFF796
:105218004DFF08BD00230374092242744182838232
:10522800C382F2E708B58378012B04D00022114627
:10523800FFF73CFF08BD0023037403224274418238
:105248008382C382F2E708B58378012B04D0002259
:105258001146FFF72BFF08BD022303740123437493
:10526800002343828182C382F1E710B584B00B46E4
:1052780011460024039408220292019300942346C5
:105288002246FBF799FC204604B010BD00B585B056
:105298008C4619469DF8183090F81DE3BEF1000FB2
:1052A80000D0002303930292CDF804C00123009399
:1052B80000231A46FBF780FC002005B000BD10B59E
:1052C80084B08C461946002403940292CDF804C099
:1052D800012200922346FBF76FFC204604B010BD64
:1052E80000B585B08C4619469DF8183090F81DE336
:1052F800BEF1000F00D0002303930292CDF804C042
:105308000123009302230022FBF756FC002005B07E
:1053180000BD10B584B08C4619460024039402924F
:10532800CDF804C0012200920223FBF745FC204679
:1053380004B010BD00230F2B0CD803F1E00200EBE2
:105348008202526812F4004F02D00133DBB2F2E756
:10535800184670474FF6FF70704700B585B0BDF826
:1053680020C0CDF808C09DF81CC0CDF804C09DF839
:1053780018C0CDF800C0FBF709FC002005B000BD3F
:1053880008B5FBF7AFFB002008BD38B505460C464D
:10539800FFF7D0FF4FF6FF73984207D000F00F03D6
:1053A80044F40041E03305EB83035960C0B238BDD3
:1053B8000F2906D8E03100EB81004368C3F30E03E0
:1053C8004360002070470020704708B5212202740E
:1053D800202242740022428282820722C282FFF780
:1053E80065FE08BD08B5A12202742122427400227C
:1053F800428282820722C282FFF758FE08BD38B572
:105408000446D0F87C33D9694031FFF7EBFF0546F5
:1054180020B9D4F8D433022120469847284638BD0D
:1054280038B50446D0F87C33DD69297879B9297B09
:10543800B1B9697BF1B9D4F87C33D86928B100F0E7
:1054480029FAD4F87C330022DA61002038BDFFF74E
:1054580097FF29782046FFF7ABFF00232B70E6E77C
:105468002046FFF78DFF297B2046FFF7A1FF002389
:105478002B73DEE72046FFF783FF697B2046FFF7A3
:1054880097FF00236B73D6E7F0B585B00446012378
:1054980002221146FFF768F9012800F2AE8006469D
:1054A80001462046FFF756F90746002840F0AA8033
:1054B800D4F87C53502000F0E5F9E861D4F87C3347
:1054C800DD69002D00F0A18050220021284600F05F
:1054D80093FA1A2303FB064393F84E2393F94E33AA
:1054E800002B72DB69782046FFF74FFF01462870D2
:1054F8006A786B8902930323019394F81D33009310
:1055080094F81C332046FFF728FF0022297820460C
:10551800FBF7FEFA00231A460A212046FFF724F972
:10552800012875D81A2303FB004393F84E2393F9F7
:105538004E33002B51DBAA731A2303FB0043B3F845
:1055480050332B831A2303FB004393F8562393F914
:105558005633002B49DBAA731A2303FB0040B0F82B
:1055680058332B83A97B2046FFF70FFF6873E97B2D
:105578002046FFF70AFF2873AA7B697B2B8B0293CF
:105588000226019694F81D33009394F81C332046A4
:10559800FFF7E3FEEA7B297B6B8B0293019694F875
:1055A8001D33009394F81C332046FFF7D6FE0026DF
:1055B80085F84C603246697B2046FBF7A9FA3246EB
:1055C800297B2046FBF7A4FA19E06A701A2303FB2B
:1055D8000646B6F850336B8184E7EA731A2303FB57
:1055E8000043B3F850336B83ACE7EA731A2303FB29
:1055F8000043B3F858336B83B4E702231F46384699
:1056080005B0F0BD02231F46F9E702231F46F6E75F
:1056180002231F46F3E7704730B583B00546D0F83C
:105628007C33DC6994F84D30012B0CD0022B18D157
:10563800617BFBF759FA01281ED0022811D10123FA
:1056480084F84D300DE0606A228B90420BD9637B61
:10565800E169012000902846FFF742FE022384F802
:105668004D3003B030BD637BE1690122009282B204
:105678002846FFF735FEF1E7636A228B93420AD981
:105688009B1A6362E3691344E361636A33B10123DC
:1056980084F84D30E5E700236362F6E784F84D307F
:1056A8002846FFF7B8FFDCE7704738B50446D0F85E
:1056B8007C33DD6995F84E30032B17D0042B1DD1B0
:1056C800297BFBF711FA012818D1297B2046FBF723
:1056D80003FAAB6A834202D06A8B82420FD000235E
:1056E80085F84E302046FFF7DFFF07E02B7B6A8BFB
:1056F800296AFFF70EFE042385F84E3038BD1B1AC1
:10570800AB622B6A03442B62032385F84E30F5E71E
:10571800704770B50546D0F87C33DE6996F84C4082
:10572800022C23D00CD9032C50D0042C16D10021E4
:10573800FFF789FD002853D186F84C0001244BE07F
:10574800002C49D0012C07D1B16CFFF73EFE38B9C7
:10575800022386F84C303FE001243DE001243BE081
:1057680001283BD0042386F84C3035E006F140018F
:10577800FFF738FE044610BB86F84C0096F8441034
:10578800B36C1A79914201D0012425E096F84610AD
:105798009A79914201D001241EE096F845105A7971
:1057A800914201D0012417E0326C1B689A4201D063
:1057B800012411E02846FFF7ABFF01240CE0012883
:1057C8000AD0042386F84C30012405E0FFF724FFB3
:1057D8002846FFF76AFF0124204670BD0446FBE710
:1057E8000124F9E708B503460D4A0E490E4800683A
:1057F80040B10D4800680344521A934208D80A4A37
:10580800136008BD0848DFF824C0C0F800C0F0E7FE
:1058180000F00AF90C2303604FF0FF30F1E700BFF6
:1058280000000220000400008C090020D80A002093
:10583800DFF834D0FEF7B2FD0C480D490D4A0023BD
:1058480002E0D458C4500433C4188C42F9D30A4A2D
:105858000A4C002301E013600432A242FBD300F09B
:10586800E9F8FAF77BFE70470000022000000020EC
:105878007C000020645B00087C000020D80A00201F
:10588800FEE70000024B0146186800F02DB800BF83
:105898002C000020024B0146186800F0F1B800BF48
:1058A8002C00002070B50F4C0E462168054611B932
:1058B80000F0AAF820603146284600F0A5F8431CFD
:1058C80003D14FF0FF34204670BDC41C24F00304FC
:1058D800A042F8D0211A284600F096F80130F2D1FB
:1058E800EFE700BF900900202DE9F843CD1C25F013
:1058F800030508350C2D38BF0C25002D064601DBA5
:10590800A94204D90C2333600020BDE8F883334F43
:1059180000F066F83B681C463CBB29463046FFF75A
:10592800C1FF431C044656D13C68A046B8F1000F9D
:1059380040D1002C49D023684146304604EB030986
:1059480000F062F8814540D121686D1A2946304639
:10595800FFF7A8FF013038D023682B4423603B6849
:105968005A685ABBC7F800800EE02268521B1ED442
:105978000B2A16D96119A342256018BF59606368BC
:1059880008BF396062514B60304600F02FF804F1CF
:105998000B00231D20F00700C21A1CBF1B1AA350BE
:1059A800B3E76268A3420CBF3A605A60ECE723464B
:1059B8006468B1E74446D8F80480B7E71A465B68DC
:1059C800A342FBD100235360DEE70C23336030464B
:1059D80000F00CF898E70560D6E700BF94090020AE
:1059E800014800F04BB800BFD40A0020014800F07D
:1059F80046B800BFD40A002002440346934200D1AF
:105A0800704703F8011BF9E738B5064C0023054633
:105A180008462360FFF7E6FE431C02D1236803B162
:105A28002B6038BDD00A0020014B1868704700BFB2
:105A38002C00002070B50D4B0D4C00261D1BB6EB3D
:105A4800A50F09D100F068F80A4C0B4B00261D1B66
:105A5800B6EBA50F05D170BD54F8043B9847013645
:105A6800EDE754F8043B98470136F1E75C5B000822
:105A78005C5B00085C5B0008605B0008704770476F
:105A880037B5002944D051F8043C0190002BA1F10E
:105A98000404B8BFE418FFF7A3FF1E4A019813686F
:105AA80033B96360146003B0BDE83040FFF79EBFB0
:105AB800A34208D9256861198B4201BF19685B6840
:105AC80049192160EDE71A465B680BB1A342FAD980
