:020000040800F2
:1000000000000220ED590008D90E0008DB0E0008A0
:10001000DD0E0008DF0E0008E10E00080000000001
:10002000000000000000000000000000E30E0008D7
:10003000E50E000800000000E70E0008E90E0008C9
:100040003D5A00083D5A00083D5A00083D5A000834
:100050003D5A00083D5A00083D5A00083D5A000824
:100060003D5A00083D5A00083D5A00083D5A000814
:100070003D5A00083D5A00083D5A00083D5A000804
:100080003D5A00083D5A00083D5A00083D5A0008F4
:10009000F10E00083D5A00083D5A00083D5A00087C
:1000A0003D5A00083D5A00083D5A00083D5A0008D4
:1000B0003D5A00083D5A00083D5A00083D5A0008C4
:1000C0003D5A00083D5A00083D5A00083D5A0008B4
:1000D0003D5A00083D5A00083D5A00083D5A0008A4
:1000E0003D5A00083D5A00083D5A00083D5A000894
:1000F0003D5A00083D5A00083D5A00083D5A000884
:100100003D5A00083D5A00083D5A00083D5A000873
:100110003D5A00083D5A00083D5A00083D5A000863
:100120003D5A00083D5A00083D5A00083D5A000853
:100130003D5A00083D5A00083D5A00083D5A000843
:100140003D5A00083D5A00083D5A0008010F0008BA
:100150003D5A00083D5A00083D5A00083D5A000823
:100160003D5A00083D5A00083D5A00083D5A000813
:100170003D5A00083D5A00083D5A000800000000A2
:080180003D5A00083D5A000839
:100188000348044B834202D0034B03B1184770471E
:100198007C0000207C000020000000000548064B81
:1001A8001B1AD90F01EBA301491002D0034B03B16D
:1001B800184770477C0000207C00002000000000E9
:1001C80010B5064C237843B9FFF7DAFF044B13B197
:1001D8000448AFF300800123237010BD7C00002089
:1001E80000000000405A000808B5044B1BB1044940
:1001F8000448AFF30080BDE80840CFE700000000E6
:1002080080000020405A000870B50F4B0F4DAB42DC
:10021800A3EB050607D0B610002455F8043B0134BB
:100228009847A642F9D805F007FC094D094B5E1B13
:10023800AB424FEAA60606D0002455F8043B013429
:100248009847A642F9D870BD7C5A00087C5A000825
:100258007C5A0008805A0008830730B547D0541EDE
:10026800002A3ED0CAB2034601E0013C39D303F864
:10027800012B9D07F9D1032C2CD9CDB205EB05250F
:100288000F2C05EB054535D9A4F1100222F00F0C0F
:1002980003F1100EE6444FEA121C1A46C2E9005553
:1002A800C2E9025510327245F8D10CF1010214F07E
:1002B8000C0F03EB021204F00F0C13D0ACF1040383
:1002C80023F003030433134442F8045B9342FBD145
:1002D8000CF003042CB1C9B21C4403F8011BA3425F
:1002E800FBD130BD64461346002CF4D1F9E7034630
:1002F8001446C0E71A46A446E0E700BF014B186859
:10030800704700BF00000020024B0146186800F04B
:100318002FB800BF00000020024B0146186800F00B
:10032800A7B800BF0000002070B5104E336805461E
:100338000C46B3B12146284600F0FCF8431C0CD00B
:10034800C41C24F00304A04205D0211A284600F05A
:10035800F1F8013001D0204670BD4FF0FF3420463F
:1003680070BD194600F0E6F83060E3E7D4010020DC
:100378002DE9F843CD1C25F0030508350C2D38BFB1
:100388000C25002D064618DBA94216D8DFF8DC80BC
:1003980000F0CCF8D8F80420A2B1144603E0636852
:1003A80022467BB11C4623685B1BF8D40B2B1FD855
:1003B8009442636854D053600CE00C2333600020EF
:1003C800BDE8F88329463046FFF7AEFF431C0446D4
:1003D80019D00560304600F0ABF804F10B00231D7E
:1003E80020F00700C21A1CBF1B1AA350BDE8F883EF
:1003F80061199442256014BF5160C8F80410635114
:1004080063684B60E6E7D8F804701FB33C467F6822
:10041800002FFBD123683946304604EB030900F06E
:1004280089F8814516D12368ED1A29463046FFF729
:100438007BFF01300ED02368D8F804202B442360BA
:10044800536883B1A34203D01A465B689C42FBD130
:100458000023B0E70C233360304600F069F8AEE7BC
:10046800C8F80430B6E7C8F80470B3E7D401002030
:10047800002950D038B551F8043C0C1F002BB8BFE8
:10048800E418054600F052F8274A13682BB1A34236
:100498000CD92168601883422CD063602846146008
:1004A800BDE8384000F044B8A3420FD81A465B684C
:1004B800002BF9D111685018844217D02CD36360EF
:1004C80054602846BDE8384000F032B8116850182A
:1004D800A04214D020D8216860188342EFD1186850
:1004E8005B680844C4E900035460EAE723680B44E6
:1004F8001360E6E718685B6808442060CDE7206869
:100508000144501883421160DBD1D3E9000401444F
:10051800C2E90014D5E770470C232B602846BDE8D4
:10052800384000F005B800BFD8010020704700BF70
:10053800704700BF38B5074D0022044608462A60B8
:1005480005F02CFA431C00D038BD2B68002BFBD0DB
:10055800236038BDDC01002053B94AB9002908BF1F
:1005680000281CBF4FF0FF314FF0FF3000F06AB990
:10057800ADF1080C6DE904CE00F006F8DDF804E0F2
:10058800DDE9022304B070472DE9F047089D0E46C7
:1005980004460F46002B4AD194468C45B2FA82F2A3
:1005A80060D942B1C2F12003974020FA03F30CFA54
:1005B80002FC1F4394404FEA1C4E1FFA8CF6B7FB0F
:1005C800FEF1230C0EFB117743EA074301FB06F00B
:1005D80098420AD91CEB030301F1FF3780F015811B
:1005E800984240F21281023963441B1AA4B2B3FB49
:1005F800FEF00EFB103344EA034400FB06F6A64265
:100608000AD91CEB040400F1FF3380F00081A642F4
:1006180040F2FD806444023840EA0140A41B0021F6
:100628001DB1D4400023C5E90043BDE8F0878B42E3
:1006380005D90DB1C5E9000100210846F5E7B3FA6F
:1006480083F1002946D1B34202D3824200F2F580F9
:10065800841A66EB030201201746002DE5D0C5E990
:100668000047E2E7002A40F09380A1EB0C034FEA31
:100678001C471FFA8CFE0121B3FBF7F607FB163067
:10068800230C43EA00430EFB06F0984208D91CEB02
:10069800030306F1FF3802D2984200F2D0804646A2
:1006A8001B1AA4B2B3FBF7F007FB103344EA034468
:1006B8000EFB00FEA64508D91CEB040400F1FF332D
:1006C80002D2A64500F2B6801846A4EB0E0440EA12
:1006D8000640A5E7C1F120078B4022FA07FC4CEA47
:1006E800030C06FA01FE20FA07F426FA07F344EA97
:1006F8000E0400FA01F84FEA1C404FEA1449B3FB14
:10070800F0FE1FFA8CF600FB1E3349EA03430EFB8A
:1007180006F9994502FA01F20BD91CEB03030EF115
:10072800FF3A80F08580994540F28280AEF1020E52
:100738006344A3EB0909A4B2B9FBF0F300FB1399D6
:1007480044EA094403FB06F6A64208D91CEB040454
:1007580003F1FF3068D2A64266D9023B644443EAFB
:100768000E40A41BA0FB02E6B4427346B14652D326
:100778004FD05DB1B8EB030264EB090404FA07F744
:1007880022FA01F31F43CC40C5E9007400214CE76D
:10079800C2F1200120FA01F30CFA02FC26FA01F159
:1007A800964033434FEA1C471FFA8CFEB1FBF7F023
:1007B80007FB1016190C41EA064100FB0EF68E42A3
:1007C80004FA02F408D91CEB010100F1FF382DD21C
:1007D8008E422BD902386144891B9BB2B1FBF7F6D4
:1007E80007FB161143EA014306FB0EF1994208D9AB
:1007F8001CEB030306F1FF3814D2994212D9023ECA
:1008080063445B1A46EA004136E73946EDE6184686
:1008180002E7F045ADD2BEEB020366EB0C060138E9
:10082800B146A6E74646ECE7034698E74046D3E7D5
:10083800D6467EE76444023847E708460DE7023E9D
:1008480063442DE7704700BF2DE9F04F8DB00024B9
:100858000794089409940A940B940194564B1A6BC4
:1008680042F010021A631A6B02F010020192019A08
:1008780002941A6B42F004021A631A6B02F0040223
:100888000292029A03941A6B42F080021A631A6B5E
:1008980002F080020392039A04941A6B42F0010258
:1008A8001A631A6B02F001020492049A05941A6BF7
:1008B80042F002021A631A6B02F002020592059ACC
:1008C80006941A6B42F008021A631B6B03F00803C4
:1008D8000693069B394E22460821304602F0B6FEA2
:1008E800DFF8E09001221146484602F0AFFEDFF83B
:1008F800D88022464FF21001404602F0A7FE082792
:1009080007970125089509940A9407A9304602F02B
:10091800A7FD0795089509940A9407A9484602F087
:100928009FFD07970227089709940A944FF0050A34
:10093800CDF82CA007A9484602F092FD07954FF480
:100948009019CDF82090099407A91D4802F088FD58
:100958000423079308940994DFF870B007A9584650
:1009680002F07EFD4FF480630793089709940A9478
:10097800CDF82CA007A9584602F072FD4FF21003DB
:100988000793089509940A9407A9404602F068FD60
:10099800202307930894099407A9404602F060FDB4
:1009A8000797CDF82090099407A9304602F058FD22
:1009B8000DB0BDE8F08F00BF0038024000100240C3
:1009C8000000024000080240000C024000040240FF
:1009D80072B6FEE708B50D480D4B03600E23436061
:1009E80000238360C3604FF4E02202614FF40012D9
:1009F8004261037643768376C3760377437702F0C2
:100A08000DFF00B908BDFFF7E3FF00BFEC020020AF
:100A18000064004008B50A480A4B03600A4B43606B
:100A280000238360C3604FF48042026143618361A5
:100A3800C361036203F0AAF900B908BDFFF7C8FF54
:100A48009802002000540040A086010008B50A481A
:100A58000A4B03604FF40072426000238360C36056
:100A68000261074A42618361C361036203F06CFA61
:100A780000B908BDFFF7ACFF50020020003C004061
:100A88000077010008B50D480D4B03604FF48273E1
:100A9800436000238360C360036143614FF40072C5
:100AA8008261C3610362436283620A23C36203F003
:100AB80049FD00B908BDFFF78BFF00BFF801002012
:100AC8000030014000B595B03022002108A8FFF79A
:100AD800C3FB0023039304930593069307930193A1
:100AE800214A116C41F080511164126C02F080525D
:100AF8000192019A02931D4B1A6842F480421A60CF
:100B08001B6803F480430293029B012308934FF46C
:100B18008033099302230E934FF480020F92082228
:100B280010924FF4A872119212930723139308A8F6
:100B380002F084F898B90F23039302230493002347
:100B480005934FF4A05306934FF480530793052160
:100B580003A802F0DDFA20B915B05DF804FBFFF731
:100B680037FFFFF735FF00BF003802400070004034
:100B780000B58BB002F012FEFFF7A4FFFFF764FE8A
:100B8800FFF728FFFFF746FFFFF760FFFFF77AFF41
:100B980000F044F80023059306930122079200937E
:100BA800019302930393049308920E2309936946D1
:100BB8000D4802F0D9FE08B1FFF70AFF0A4802F013
:100BC8006FFF08B1FFF704FF0221074802F096FF04
:100BD80038B9064B0022DA609A601A7500F03EF8C0
:100BE800FCE7FFF7F5FE00BFEC020020E001002063
:100BF80004290CD0052902D0022904D07047064BDD
:100C080003221A707047044B02221A707047024B75
:100C180001221A70704700BF1403002008B5012292
:100C28000B490C4803F086FE48B90B49094803F004
:100C3800A0FE38B9074803F0E1FE30B908BDFFF758
:100C4800C7FEF2E7FFF7C4FEF4E7FFF7C1FEF5E7DA
:100C5800F90B0008180300205C00002008B50248C2
:100C680003F0D6FE08BD00BF1803002070B588B099
:100C78000023039304930593069307930368B3F142
:100C8800A04F01D008B070BD002501951A4C236B08
:100C980043F001032363236B03F001030193019BDA
:100CA8004FF400730393154E03A9304602F0D8FBA6
:100CB8004FF4E053039302230493059506950A2302
:100CC800079303A9304602F0CBFB636B43F0800324
:100CD80063630295636C43F480436364636C03F459
:100CE80080430293029B2A462946432002F008FDCE
:100CF800432002F015FDC5E700380240000002401D
:100D080008B5D0F8DC0303F0CEFF08BD08B5D0F86D
:100D1800DC0303F0DCFF08BD08B5D0F8DC0303F002
:100D2800E0FF08BD704708B5D0F8DC0303F0C4FF46
:100D380008BD08B5D0F8DC0303F0C2FF08BD000009
:100D480090F8CC33012B01D00020704710B5044631
:100D58000F48C0F8DC43C4F8D0034FF0A043036049
:100D6800082343710123C371002383710222427255
:100D7800837200F04BFA40B9054801F0D8F90146F2
:100D8800204603F08DFF002010BDFFF721FEF3E79A
:100D9800F006002008B5D0F8D00301F0CDF90128FD
:100DA80004D0022804D020B1012002E0012000E094
:100DB800022008BD08B5D0F8D00301F0B2F908BD8B
:100DC8000020704708B5D0F8D00301F0A3F908BD9A
:100DD80008B590F8CC33012B04D0C82002F00AFDE6
:100DE800002008BD084600F067F8F6E7D0F8D033D1
:100DF800C1EB011003EB8000C07D38B1C1EB0111DC
:100E080003EB810383F83C2000207047C1EB0111FC
:100E180003EB810383F83D20F6E708B502F0EAFC0E
:100E280008BD022805D8DFE800F00504020001200B
:100E380070470220704708B5D0F8D00301F03EF99A
:100E4800FFF7EFFF08BD08B5D0F8D00301F04BF964
:100E5800FFF7E7FF08BD08B5D0F8D00301F055F952
:100E6800FFF7DFFF08BD10B584B0D0F8D003BDF898
:100E7800204002949DF81C4001949DF8184000946D
:100E880001F06BF9FFF7CDFF04B010BD10B584B0C9
:100E9800D0F8D0039DF824400394BDF82040029474
:100EA800079C01949DF81840009400F0F6F9FFF7AC
:100EB800B8FF04B010BD000008B5024600B1012219
:100EC8000121024802F0C2FB08BD00BF0008024031
:100ED800FEE7FEE7FEE7FEE7FEE77047704770476C
:100EE80008B502F075FC08BD08B5024802F025FEF9
:100EF80008BD00BFEC02002008B5024801F030F838
:100F080008BD00BFF006002000B583B000210091A5
:100F18000C4B5A6C42F480425A645A6C02F4804278
:100F28000092009A01911A6C42F080521A641B6C6C
:100F380003F080530193019B072002F0CFFB03B01D
:100F48005DF804FB0038024010B588B00023039315
:100F580004930593069307930268184B9A4201D0AD
:100F680008B010BD0024019403F5EA331A6C42F06E
:100F780000721A641A6C02F000720192019A0294CB
:100F88001A6B42F008021A631B6B03F00803029302
:100F9800029B0323039302220492069309230793D7
:100FA80003A9074802F05CFA22462146142002F001
:100FB800A7FB142002F0B4FBD2E700BF0064004096
:100FC800000C024030B589B00023039304930593C5
:100FD800069307930268144B9A4201D009B030BDBA
:100FE80000250195114C236B43F002032363236B07
:100FF80003F002030193019B4FF410730393122330
:101008000493012305930423079303A9084802F0D6
:1010180027FA0295236C43F400132364236C03F42A
:1010280000130293029BD9E70054004000380240A5
:101038000004024070B58CB000230793089309930D
:101048000A930B9303930493059306930268254B25
:101058009A4201D00CB070BD01230393C0230493BE
:101068000223059303A802F019F9002837D10024B8
:1010780000941D4B1A6C42F400421A641A6C02F474
:1010880000420092009A01941A6B42F001021A631E
:101098001A6B02F001020192019A02941A6B42F053
:1010A80004021A631B6B03F004030293029B1023D0
:1010B80007930226089609940A9406250B9507A912
:1010C8000A4802F0CDF94FF4A453079308960994FF
:1010D8000A940B9507A9064802F0C2F9BAE7FFF788
:1010E80077FCC4E7003C00400038024000000240A2
:1010F8000008024000B589B00023039304930593C8
:10110800069307930268144B9A4202D009B05DF81F
:1011180004FB0021019103F584335A6C42F4805298
:101128005A645A6C02F480520192019A02911A6B25
:1011380042F001021A631B6B03F001030293029B46
:10114800E0230393022304930523079303A9034889
:1011580002F086F9DAE700BF0030014000000240E3
:10116800F8B50668346A04F00F07C4F34343C4F3C0
:101178000A14022B00D0F8BD0546002CFBD0C7EBA3
:10118800071300EB8303D96A0029F4D0C7EB0713D0
:1011980000EB83039A6B22445B6B9A4207D9C7EB37
:1011A800071700EB8705042385F84C30E3E7224650
:1011B800304601F017F9C7EB071305EB8303DA6A2A
:1011C8002244DA629A6B22449A6306EB4716D6F8F1
:1011D80010251B8DA342CED10B4B1340002BCAD038
:1011E800D6F8003523F0804343F00043C6F80035B5
:1011F800C7EB071305EB830393F83C2082F0010249
:1012080083F83C20B7E700BF0000F81F002842D051
:1012180030B583B00446056890F8D533BBB10323D5
:1012280084F8D533B5F1A04F16D0206801F075F8D1
:10123800237C8DF80030231D0ECB206801F01EF8AA
:1012480068B1022384F8D533012003B030BD80F89B
:10125800D433FFF70BFDE2E70023A371E5E7012193
:10126800206801F0F3F820B1022384F8D533012077
:10127800EBE7237C8DF80030231D0ECB206801F0AE
:1012880017F918B9012384F8D533DEE7022384F867
:10129800D5330120D9E70120704738B59DF81040B3
:1012A800BDF81850C1EB011C00EB8C0C8CF8172012
:1012B8008CF8263094B9C1EB011C00EB8C0C4FF074
:1012C800030E8CF82AE09DF81CE08CF819E0032B3B
:1012D80000F2B180DFE803F00BA84C7AC1EB011CE7
:1012E80000EB8C0C4FF0020E8CF82AE0EFE7012C93
:1012F80040F0A180F2B935B9C1EB011300EB8303CB
:10130800012283F83D20C1EB011300EB830393F81E
:101318003D303BB9C1EB011300EB8303002283F896
:101328002A2088E0C1EB011300EB8303022283F833
:101338002A2080E0C1EB011300EB83039B7E012B85
:1013480079D1C1EB011300EB830393F83C303BB92F
:10135800C1EB011300EB8303002283F82A206AE023
:10136800C1EB011300EB8303022283F82A2062E019
:10137800AAB9C1EB011300EB830393F83D3033B9ED
:10138800C1EB011300EB830383F82A2053E0C1EB80
:10139800011300EB8303022283F82A204BE0C1EB00
:1013A800011300EB830393F83C303BB9C1EB011305
:1013B80000EB8303002283F82A203CE0C1EB0113F1
:1013C80000EB8303022283F82A2034E0AAB9C1EB98
:1013D800011300EB830393F83D3033B9C1EB0113DC
:1013E80000EB830383F82A2025E0C1EB011300EB0F
:1013F8008303022283F82A201DE0C1EB011300EBCE
:10140800830393F83C303BB9C1EB011300EB830332
:10141800002283F82A200EE0C1EB011300EB8303BE
:10142800022283F82A2006E0C1EB011300EB8303B4
:10143800002283F82A20C1EB011300EB8303059AED
:10144800DA625D63002283F84C209A63597583F849
:101458004D20C1EB0111890010310144827904311A
:10146800006801F047FA38BD30B583B00446056816
:10147800D5F840340193D5F840340093009B23F00D
:101488002E030093019B13F0020F07D0019B13F06A
:10149800010F25D1009B43F002030093019B13F039
:1014A800080F10D0009B43F008030093019B13F032
:1014B800040F2DD0637A022B15D0E379012B22D0AB
:1014C8002046FFF730FC019B13F0200F03D0009B50
:1014D80043F020030093009BC5F8403403B030BDAF
:1014E800FFF714FCD6E7019B03F4C023B3F5802F64
:1014F80004D00121206801F05BF8E1E702212068AF
:1015080001F056F8DCE74EF66022C5F80424D7E768
:101518002046FFF70EFCD6E7F8B505460C460668E8
:10152800304600F086FF10F0040F21D006EB44137C
:101538000422C3F80825C4EB041305EB8303072230
:1015480083F84D202146286801F043F92146286890
:1015580000F06FFF10F4007F6CD02146286801F07E
:1015680038F906EB44164FF40073C6F80835F8BD91
:101578002146286800F05DFF10F4807F11D006EB4B
:1015880044134FF48072C3F80825C4EB041305EB29
:101598008303082283F84D202146286801F019F9B1
:1015A800D4E72146286800F044FF10F0080F10D057
:1015B80006EB44130822C3F80825C4EB041305EB13
:1015C8008303062283F84D202146286801F001F99B
:1015D800BCE72146286800F02CFF10F4806F11D07A
:1015E80006EB44134FF48062C3F80825C4EB0413D8
:1015F80005EB8303092283F84D202146286801F072
:10160800E8F8A3E72146286800F013FF10F0800FE0
:101618009CD006EB44138022C3F80825C4EB0413BE
:1016280005EB8303072283F84D202146286801F043
:10163800D0F88BE72146286800F0FBFE10F0010F78
:101648007CD006EB441606F5A0672023BB60C4EBEC
:10165800041305EB8303DB7E012B1DD0AB794BB163
:10166800C4EB041305EB83031A6B3969C1F3120148
:10167800521A9A63C4EB041305EB8303012283F81F
:101688004D2000215964BA6093F82630032B14D8F2
:10169800DFE803F00D250D25C4EB041305EB8303E8
:1016A8000022DA767B6823F480337B60D6E7214614
:1016B800286801F08EF81023BB60AB79012B20D08D
:1016C800C4EB041305EB830393F83C30C4EB041418
:1016D80005EB840483F0010384F83C3047E7D6F82F
:1016E800003543F00053C6F80035C4EB041305EB8E
:1016F8008303012283F84C2021462846FFF712FB7A
:10170800DBE7C4EB041205EB8202936B128D1344E2
:10171800013BB3FBF2F313F0010F3FF428AFC4EB26
:10172800041305EB830393F83C30C4EB041405EB76
:10173800840483F0010384F83C3018E721462868C4
:1017480000F077FE10F0200F1ED006EB4416202381
:10175800C6F80835C4EB041305EB83039B7E012B05
:101768007FF405AFC4EB041305EB83030122DA769B
:10177800C4EB041305EB8303032283F84D202146B1
:10178800286801F026F8F2E62146286800F051FEA4
:1017980010F0020F00F0228106EB441606F5A06255
:1017A80002239360C4EB041305EB830393F84D30D5
:1017B800013B082B1ED801A151F823F0E9170008B6
:1017C800771500084119000899190008A1180008A0
:1017D8001318000829180008C91900082918000852
:1017E800C4EB041305EB8303022283F84D20012286
:1017F80083F84C20C4EB041305EB830393F84C20C7
:1018080021462846FFF78EFAB1E6C4EB041305EB30
:101818008303022283F84D20052283F84C20E9E750
:10182800C4EB041305EB8303022183F84D10596CB4
:101838000131596402291AD9C4EB041305EB830357
:10184800002159649B7E012B07D0C4EB041305EBE0
:101858008303042283F84C20CCE73C2303FB045386
:10186800D9761977536823F480335360EDE7C4EBD6
:10187800041305EB8303022283F84C2093F82630E7
:101888000BB19342B6D1D6F8003523F0804343F02C
:101898000043C6F80035ADE7C4EB041305EB83033A
:1018A800022183F84D10DB7E012BA3D1C4EB041376
:1018B80005EB830393F82630032B17D03C2303FB57
:1018C8000453022283F84C20C4EB041305EB830372
:1018D80093F826300BB1022B8CD1D6F8003523F0C3
:1018E800804343F00043C6F8003583E73C2101FB01
:1018F80004518B6C01338B64022B16D90B460021E3
:101908009964D9765B6C022B04D83C2303FB0453FF
:1019180001211977536823F4803353603C2303FB78
:101928000453042283F84C20CEE73C2303FB0453E2
:10193800022283F84C20C7E7C4EB041305EB8303AA
:10194800022183F84D10DB7E012B7FF453AFC4EBEB
:10195800041305EB830383F84C10516841F480317C
:101968005160D16841F04001D160D16821F0200177
:10197800D16093F8263013B1022B7FF43BAFD6F831
:10198800003523F0804343F00043C6F8003531E7C3
:10199800C4EB041305EB8303022283F84D2083F87C
:1019A8004C2093F8263013B193427FF423AFD6F836
:1019B800003523F0804343F00043C6F8003519E7AB
:1019C800C4EB041305EB8303022283F84D205A6C01
:1019D80001325A64042283F84C200BE72146286818
:1019E80000F027FD10F0400F18D006EB44134022FA
:1019F800C3F80825C4EB041305EB8303052283F819
:101A08004D209B7E2BB9C4EB041305EB8303002206
:101A18005A642146286800F0DCFEA8E521462868BB
:101A280000F007FD10F0100F3FF4A1ADC4EB041354
:101A380005EB830393F82630032B28D00BB1022B38
:101A480018D1C4EB041305EB830300225A64AB7965
:101A580033B1C4EB041305EB8303DB7E012B09D1FF
:101A68003C2303FB0453042283F84D2021462868B5
:101A780000F0AFFEC4EB041305EB8303DB7E012B00
:101A880012D006EB44131022C3F808256FE53C2357
:101A980003FB045300225A64042283F84D20214694
:101AA800286800F096FEE5E7C4EB041305EB830510
:101AB8000023EB7606EB4413D3F8042522F4803296
:101AC800C3F80425D3F80C2542F02002C3F80C25EE
:101AD800D7E700BF70B505460C460668304600F0EB
:101AE800A8FC10F0040F10D006EB44160423C6F827
:101AF8000835C4EB041305EB8303072283F84D2054
:101B08002146286800F065FE70BD2146286800F06F
:101B180090FC10F0200F4AD006EB44162023C6F89C
:101B28000835C4EB041305EB83035B7E012B2DD032
:101B3800C4EB041305EB83039B7E012BE4D1C4EBB8
:101B4800041305EB8303DB7E002BDDD1C4EB041308
:101B580005EB830393F82630012B05D0C4EB04135F
:101B680005EB83030122DA762601C4EB041305EBA7
:101B78008303032283F84D202146286800F029FEBC
:101B8800361B05EB860600237364BDE7C4EB04131C
:101B980005EB830300225A76022283F84C200322A5
:101BA80083F84D202146286800F013FEC0E721463F
:101BB800286800F03EFC10F4007F0AD006EB4416BB
:101BC8004FF40073C6F808352146286800F001FE76
:101BD8009AE72146286800F02CFC10F0010F3BD052
:101BE800C4EB041305EB830300225A6421462868DA
:101BF80000F01FFC10F0400F0AD0C4EB041305EBF3
:101C0800830301225A7606EB44134022C3F80825C1
:101C1800C4EB041305EB8303DB7E6BB1C4EB041345
:101C280005EB83030022DA7606EB4413D3F8042588
:101C380022F48032C3F8042506EB44160122C6F8C4
:101C48000825C4EB041305EB830383F84D202146D4
:101C5800286800F0BEFD57E72146286800F0E9FB38
:101C680010F0400F1ED0C4EB041305EB83030522CC
:101C780083F84D209B7E2BB9C4EB041305EB83033B
:101C880001225A76C4EB041305EB830300225A643D
:101C98002146286800F09DFD06EB44164023C6F84F
:101CA800083531E72146286800F0C3FB10F0080F1B
:101CB80010D006EB44130822C3F80825C4EB04131C
:101CC80005EB8303062283F84D202146286800F09F
:101CD80080FD19E72146286800F0ABFB10F0100FD3
:101CE80020D0C4EB041305EB830300225A640422BA
:101CF80083F84D205B7E5BB9C4EB041305EB8303CB
:101D08001B7E2BB9C4EB041305EB830301225A761F
:101D18002146286800F05DFD06EB44131022C3F845
:101D28000825F1E62146286800F083FB10F0800FB3
:101D380038D0AB79F3B1C4EB041205EB8202536CD3
:101D480001335364022B20D83C2303FB04530222A3
:101D580083F84C2006EB4412D2F8003523F0804378
:101D680043F00043C2F8003506EB44138022C3F861
:101D78000825C9E63C2303FB0453072283F84D20BA
:101D88002146286800F025FDEEE73C2303FB0453B9
:101D980000225A64042283F84C2021462846FEF784
:101DA800C1FFE1E72146286800F043FB10F4806F8B
:101DB80010D03C2303FB0453092283F84D2021460D
:101DC800286800F006FD06EB44134FF48062C3F860
:101DD800082599E62146286800F02BFB10F0020F31
:101DE8003FF492AE06EB441606F5A0620223936018
:101DF8003C2303FB045393F84D30013B082B3FF67B
:101E080083AE01A151F823F0351E0008111B00080C
:101E1800A31E0008C11E0008EB1E00080F1F0008C3
:101E2800231F0008111B0008231F00083C2303FB85
:101E38000453022283F84D20012283F84C2093F8A2
:101E48002630023BDBB2934253D8A97941B93C23EF
:101E580003FB045393F83D2082F0010283F83D20F0
:101E6800012946D13C2303FB04535B6B002B40D074
:101E78003C2202FB0452128D1344013BB3FBF2F3E4
:101E880013F0010F35D03C2303FB045393F83D2096
:101E980082F0010283F83D202BE03C2303FB04532E
:101EA800022283F84D20DB7E012B22D13C2303FB49
:101EB800045383F84C201CE03C2303FB0453022109
:101EC80083F84D1083F84C10DB7E012B11D13C2395
:101ED80003FB04530021D976536823F480335360FD
:101EE80007E03C2303FB0453022283F84D2083F8C8
:101EF8004C203C2303FB045393F84C2021462846EE
:101F0800FEF710FF00E63C2303FB0453022283F88C
:101F18004D20052283F84C20EBE73C2303FB0453B8
:101F2800022283F84D205A6C01325A64022A08D9D9
:101F38003C2303FB045300225A64042283F84C20F8
:101F4800D7E73C2303FB0453022283F84C20D6F83E
:101F5800003523F0804343F00043C6F80035C8E756
:101F6800F8B504460568284600F06CFA012800D048
:101F7800F8BD206800F059FA0028F9D0206800F070
:101F880054FA10F4001F03D023684FF400125A616A
:101F9800206800F04AFA10F4801F03D023684FF439
:101FA80080125A61206800F040FA10F0806F03D068
:101FB80023684FF080625A61206800F036FA10F00A
:101FC800020F02D0236802225A61206800F02DFA1D
:101FD80010F0005F08D023684FF000525A61D5F81E
:101FE800403413F0010F25D0206800F01EFA10F0DD
:101FF800807F32D1206800F018FA10F0080F30D135
:10200800206800F012FA10F0007F31D1206800F04B
:102018000CFA10F0100FABD02268936923F010036C
:1020280093612046FFF79CF82268936943F01003F8
:1020380093619DE71021284600F075F9284600F0C5
:1020480097F9637A022B03D02046FEF765FECBE7AB
:102058000121206800F0ACFAF6E72046FFF704FA01
:10206800C8E72046FEF74CFE236808225A61C7E7F6
:10207800206800F0A9FB0746002604E0F1B22046DC
:10208800FFF728FD01366379B34212D906F00F0332
:1020980027FA03F313F0010FF4D005EB4613D3F836
:1020A800003513F4004FE9D0F1B22046FFF734FAB7
:1020B800E8E723684FF000725A61A7E790F8D43335
:1020C800012B0ED010B50446012180F8D413006806
:1020D80000F0AEFA206800F01AF9002084F8D40362
:1020E80010BD0220704790F8D433012B0BD010B5E7
:1020F8000446012380F8D433006800F055FD002021
:1021080084F8D40310BD0220704708B5006800F0B9
:1021180070FA08BDC1EB011100EB810090F84C008A
:102128007047C1EB011100EB8100806B704708B567
:10213800006800F0ABFA08BD08B5006800F09BFA2B
:1021480008BDC1EB011200EB820200209076D07628
:1021580082F8250082F8240070472DE9F04F85B0F9
:102168001F469DF838A09DF83C90BDF840B090F807
:10217800D433012B54D005460C461646D8460123C5
:1021880080F8D433C1EB011300EB830300225A76A5
:102198001F75597583F8269006F07F029A75FFF728
:1021A800D0FF16F0800F29D1C4EB041305EB83038D
:1021B8000022DA75286800F05EFAB9F1010F24D020
:1021C800C4EB041305EB830383F818A01FFA88F304
:1021D800C4EB041205EB820213850293CDF8049038
:1021E800CDF800A03B4632462146286800F054FA54
:1021F800002385F8D43305B0BDE8F08FC4EB041391
:1022080005EB83030122DA75D4E7BAF1010FD7D1C0
:102218000028D5D1BBF1BC0FD2D94FF0BC08CFE70D
:102228000220E8E782B000230193019B0133019368
:10223800019BB3F1706F1CD80369002BF5DA0A23F0
:10224800019302E0019B013B0193019B002BF9D113
:10225800036943F001030361019B01330193019B6F
:10226800B3F1706F08D8036913F0010FF4D100209F
:1022780000E0032002B070470320FBE784B010B5EC
:10228800044603A880E80E009DF81130012B21D1E7
:10229800A36B23F48033A363E36823F4840323F05C
:1022A8004003E360E36823F44013E3609DF81830CB
:1022B800012B0AD02046FFF7B5FF9DF80E30012B01
:1022C8001CD0BDE8104004B07047E36843F48013A5
:1022D800E360EFE7E36843F04003E3602046FFF77D
:1022E800A1FF9DF8153023B9A36B43F48033A36392
:1022F800E3E7A36B23F48033A363DEE7A36843F02B
:102308000603A360A36843F02003A360D9E78368AA
:1023180043F00103836000207047836823F00103C2
:1023280083600020704782B000230193019B013332
:102338000193019BB3F1706F15D80369002BF5DA8F
:1023480000230193890141F020010161019B0133C0
:102358000193019BB3F1706F08D8036913F0200F44
:10236800F4D1002000E0032002B070470320FBE70F
:1023780082B000230193019B01330193019BB3F1C8
:10238800706F13D80369002BF5DA0023019310232B
:102398000361019B01330193019BB3F1706F08D86E
:1023A800036913F0100FF4D1002000E0032002B0FD
:1023B80070470320FBE710B59DF8084084B9033344
:1023C8004FEA930E4FF0000C08E000EB023303F5E0
:1023D800805351F8044B1C600CF1010CF445F4D304
:1023E800002010BD10B5844608464FEA920E02F050
:1023F8000302002305E00CF58051096840F8041B2E
:1024080001337345F7D37AB10CF5805CDCF80040F2
:102418000021CBB2DB0024FA03F300F8013B0131C1
:10242800013A92B2002AF4D110BD42698069104085
:10243800704700EB411000F5A063D0F80805DB6891
:1024480018407047406900F00100704738B50546EC
:10245800C36823F0C043C360012913D019BBC36804
:1024680043F08043C36000240A2001F0C3F90A3412
:102478002846FFF7E7FF08B1C72CF5D9C82C14D0B8
:10248800002038BDC36843F00053C36000240A200D
:1024980001F0B0F90A342846FFF7D4FF0128EDD03F
:1024A800C72CF4D9EAE70120EBE70120E9E70000AF
:1024B80084B038B5044605A880E80E000023C4F8A7
:1024C800003EA36B43F40013A363A36B23F4002320
:1024D800A363A36B23F48023A363E36813F0400F83
:1024E80011D19DF81730012B06D0D4F8003423F011
:1024F8000403C4F800340CE0D4F8003443F00403B7
:10250800C4F8003405E0D4F8003423F00403C4F818
:10251800003410212046FFF706FF054600B10125CB
:102528002046FFF725FF00B10125002209E004EB52
:1025380042134FF0FF31C3F808150021C3F80C15FA
:1025480001329DF815309342F1D80023A3614FF072
:10255800FF336361124B9C4217D08023636203F5FB
:10256800C003A3620F4BC4F800319DF816301BB9A5
:10257800A36943F01003A361A2690B4B1343A36142
:102588002846BDE8384004B070474FF400736362D2
:1025980003F18073A362054BC4F80031E5E700BF7F
:1025A80000000440E0004000080020A30003E00011
:1025B80000F5806CD0F8003423F00303C0F8003431
:1025C800D0F8003401F003021343C0F800340129A5
:1025D80007D002290BD141F27073CCF804300020E7
:1025E80070474BF68033CCF8043000207047012048
:1025F800704730B583B0044600250195D0F84034C3
:102608000193019B23F02E030193019B43F48073F4
:10261800C0F84034642001F0EDF8019B23F4807386
:10262800C4F840340A2001F0E5F8284603B030BD6C
:1026380082B000230193D0F840340193019B23F02A
:102648002E030193019B13F4805F01D101290CD063
:10265800019B13F4805F05D021B9019B23F48053BB
:10266800C0F84034002002B07047019B43F4805307
:10267800C0F84034ECE782B000230193D0F840342E
:1026880001930198C0F3414002B0704700F58060A3
:10269800806880B2704700002DE9F84391461C46D7
:1026A8009DF8245000EB411606F5A0634FF0FF3269
:1026B8009A60032D7AD8DFE805F0026B021940F220
:1026C8009D42DA6019F0800F04D13E4A904207D04B
:1026D800002712E0DA6842F48072DA6000270CE022
:1026E800DA6842F06002DA60002706E040F29D6294
:1026F800DA6019F0800F45D1002700225A60DA68A5
:1027080042F00202DA60D0F8183401F00F01012219
:102718008A401343C0F81834836943F00073836117
:1027280019F0800F44D14FF00008FFF7A4FF9DF87F
:102738002030022B3FD00022A30503F0FE534FEABE
:10274800C92909F4F04943EA0903A90401F440211D
:102758000B43BDF82810C1F30A010B4343EA0803F1
:10276800134343F48013C6F80035032D01D0012D1F
:1027780005D1D6F8003543F00053C6F80035384681
:10278800BDE8F883DA6842F48072DA600027B4E7BB
:1027980040F22522DA6019F0800F01D10027ACE75A
:1027A800DA6842F4C072DA600027A6E70127A4E7D6
:1027B8004FF40048B9E7022802D04FF40032BBE7D3
:1027C8000022B9E70000044000F58060406980B24B
:1027D800704770B483B00023019300EB411101F5F9
:1027E800A062D1F80035C3F38143D1F8005554688D
:1027F800866816F0200F08D0ED0FE40F2CB9002DD5
:102808005AD0012B58D0032B56D01BB3022B21D002
:10281800D1F8003543F08043C1F80035D0F81034C2
:1028280013F47F0F4CD1D1F8003523F00043C1F8E1
:102838000035D1F8003543F00043C1F80035019B5D
:1028480001330193019BB3F57A7F35D81368002BC8
:10285800F5DB31E0D1F8003543F08043C1F80035AD
:10286800836813F0200F21D1C36A13F47F0F16D1A8
:10287800D1F8003523F00043C1F80035D1F8003510
:1028880043F00043C1F80035019B01330193019BDC
:10289800B3F57A7F10D81368002BF5DB0CE0D1F87C
:1028A800003543F00043C1F8003505E0D1F80035A4
:1028B80043F00043C1F80035002003B070BC7047F6
:1028C800D1F8003543F00043C1F80035F4E70000C3
:1028D80000EB4110064AC0F81025D0F8003523F067
:1028E800804343F00043C0F800350020704700BF24
:1028F8000000088070B584B04B78A34CA04216D075
:102908008C79012C2DD00D6A002D5ED0B1F814C041
:1029180005EB0C04013CB4FBFCF4A4B2B4F5807FD5
:1029280054D94FEA0C24CC614FF480744EE0012A4C
:1029380007D08C88B4F5807FE2D11946FFF7C8FF2D
:102948001EE18C7C0CB1022CDAD18C79002CD7D109
:1029580000EB4314D4F80C5525F07005C4F80C5559
:10296800CEE7CC781CB18C8ACC61012435E08C7C14
:10297800012C05D0012A21D00C6ACC6101242CE05D
:102988000C6ABC2C0DD98C8ACC610C62CC68013CD9
:10299800012C02D90124CC601FE00224CC60012460
:1029A8001BE0CC61CC68013C012C03D90424CC6029
:1029B800012412E00324CC6001240EE00D6A8C8A05
:1029C800A542D9D9CC61012407E00124CE78002E94
:1029D80060D08D8A04FB05F5CD61CD69C5F3120C75
:1029E8006A4D05EAC4444CEA040C8C7D640704F083
:1029F800C04400EB431303F5A06E4CEA0404CEF880
:102A0800104012B18C69CEF8144000F58065AC68AE
:102A180014F0010F0CBF4FF0010C4FF0000CD3F86D
:102A2800004524F00054C3F80045D3F8004544EAB3
:102A38004C74C3F800458C79012C2DD00024CEF8B5
:102A48000440D3F800450394039C24F08044039485
:102A5800CC78002C7DD0039C44F400440394039C60
:102A680044F000440394039CC3F80045002A40F056
:102A78008780CB78002B40F083800B6A002B7FD0B7
:102A8800CA79002A7CD18A7C032A72D8DFE802F04E
:102A980066806680CD61A0E74E7C0C7C44EAC61453
:102AA80044F00044CEF80440DEF80C4044F06004E2
:102AB800CEF80C40CC79012C12D08C7C012C1FD084
:102AC800032C1DD08C7C012CBBD1CC78002CB8D128
:102AD800CC68013C032CB4D8DFE804F01F262D3461
:102AE800CC78002CE9D1DEF8044044F48034CEF8E8
:102AF8000440DEF80C4044F04004CEF80C40DCE71B
:102B0800CC79012CDED1CC78012CDBD1DEF8044065
:102B180044F48034CEF80440D4E7DEF8044044F4AA
:102B28000044CEF804408CE7DEF8044044F00E047C
:102B3800CEF8044085E7DEF8044044F48044CEF83B
:102B480004407EE7DEF8044044F44044CEF80440F4
:102B580077E7039C24F40044039480E70333C26AB4
:102B680092B2C3F38F03934203D9836943F02003DE
:102B78008361002300930B8C4A788969FFF71BFC5B
:102B8800002004B070BD00BF000004400000F81F22
:102B980003332A6992B2C3F38F039A42E9D2836955
:102BA80043F080638361E4E730B583B004460023D3
:102BB8000193FFF7B2FB10212046FFF7B4FB05464F
:102BC80000B101252046FFF7D3FB00B10125002203
:102BD8000AE004EB4211D1F8003523F0802343F0DA
:102BE8008043C1F8003501320F2AF2D9002100E0F4
:102BF80001310F2916D804EB411000F5A062D0F876
:102C0800003523F4004343F04043C0F80035019BEE
:102C180001330193019BB3F57A7FE9D81368002B40
:102C2800F5DBE5E74FF0FF33C4F814346361204661
:102C3800FFF76DFB284603B030BD0000002800F008
:102C4800E08170B582B00446036813F0010F3BD0F1
:102C58009F4B9B6803F00C03042B2CD09C4B9B6868
:102C680003F00C03082B21D06368B3F5803F4FD0E5
:102C7800B3F5A02F52D0964B1A6822F480321A600E
:102C88001A6822F480221A606368002B50D000F082
:102C9800ABFD05468E4B1B6813F4003F14D100F0C2
:102CA800A3FD401B6428F5D90320B1E1884B5B687C
:102CB80013F4800FD8D0864B1B6813F4003F03D061
:102CC8006368002B00F09F81236813F0020F54D033
:102CD8007F4B9B6813F00C0F3ED07D4B9B6803F035
:102CE8000C03082B33D0E368002B68D0794B012202
:102CF8001A6000F079FD0546754B1B6813F0020F4A
:102D080054D100F071FD401B0228F5D903207FE162
:102D18006F4A136843F480331360B5E76C4B1A6845
:102D280042F480221A601A6842F480321A60ABE7D3
:102D380000F05AFD0546664B1B6813F4003FC3D0EC
:102D480000F052FD401B6428F5D9032060E1604B78
:102D58005B6813F4800FC6D15D4B1B6813F0020F3C
:102D680003D0E368012B40F05081594A136823F0DF
:102D7800F803216943EAC1031360236813F0080FBD
:102D880042D063696BB3534B0122C3F8802E00F025
:102D98002BFD05464E4B5B6F13F0020F34D100F04C
:102DA80023FD401B0228F5D9032031E1484A136866
:102DB80023F0F803216943EAC1031360DDE7454BBB
:102DC80000221A6000F010FD0546414B1B6813F005
:102DD800020FD2D000F008FD401B0228F5D90320CD
:102DE80016E13C4B0022C3F8802E00F0FDFC05469E
:102DF800374B5B6F13F0020F06D000F0F5FC401B59
:102E08000228F5D9032003E1236813F0040F77D0D3
:102E18002F4B1B6C13F0805F33D1002301932C4B95
:102E28001A6C42F080521A641B6C03F080530193B1
:102E3800019B0125284B1B6813F4807F23D0A368CE
:102E4800012B34D0052B38D0214B1A6F22F0010208
:102E58001A671A6F22F004021A67A368002B3DD084
:102E680000F0C2FC06461A4B1B6F13F0020F46D146
:102E780000F0BAFC801B41F288339842F3D9032052
:102E8800C6E00025D6E7144A136843F4807313603C
:102E980000F0AAFC0646104B1B6813F4807FCED1C5
:102EA80000F0A2FC801B0228F5D90320B0E0084AF4
:102EB800136F43F001031367CFE7054B1A6F42F016
:102EC80004021A671A6F42F001021A67C5E700BFC9
:102ED80000380240000047420070004000F084FCC7
:102EE8000646524B1B6F13F0020F08D000F07CFC13
:102EF800801B41F288339842F3D9032088E0EDB96A
:102F0800A369002B00F08380484A926802F00C0203
:102F1800082A51D0022B17D0454B00221A6600F020
:102F280063FC0446414B1B6813F0007F42D000F05D
:102F38005BFC001B0228F5D9032069E03B4A136CAF
:102F480023F080531364DBE7394B00221A6600F044
:102F58004BFC0546354B1B6813F0007F06D000F08C
:102F680043FC401B0228F5D9032051E0E369226A9B
:102F78001343626A43EA8213A26A5208013A43EA97
:102F88000243E26A43EA0263284A5360284B01225B
:102F98001A6600F029FC0446244B1B6813F0007FD6
:102FA80006D100F021FC001B0228F5D903202FE0F0
:102FB80000202DE000202BE0012B2BD01B4B5B6861
:102FC80003F48001E269914226D103F03F02216AAD
:102FD8008A4223D1616A47F6C0721A40B2EB811F58
:102FE8001ED103F44031A26A5208013AB1EB024FF4
:102FF80018D103F07063E26AB3EB026F14D10020BA
:1030080006E001207047012002E0012000E00020D6
:1030180002B070BD0120FBE70120F9E70120F7E7C6
:103028000120F5E70120F3E70120F1E7003802402D
:103038000000474208B5334B9B6803F00C03042B90
:103048005BD0082B5BD12F4B5A6802F03F025B68BC
:1030580013F4800F2CD02B4B5868C0F388104FEA1C
:10306800401CBCEB000C6EEB0E0E4FEA8E1343EACD
:103078009C634FEA8C11B1EB0C0163EB0E03DB0090
:1030880043EA5173C90011EB000C43F100035902E4
:1030980000234FEA4C2041EADC51FDF75DFA194B59
:1030A8005B68C3F3014301335B00B0FBF3F008BD79
:1030B800144B5868C0F388104FEA401CBCEB000C56
:1030C8006EEB0E0E4FEA8E1343EA9C634FEA8C11A7
:1030D800B1EB0C0163EB0E03DB0043EA5173C9004B
:1030E80011EB000C43F10003990200234FEA8C20F6
:1030F80041EA9C51FDF730FAD1E70348D7E7034886
:10310800D5E700BF0038024000127A000024F4001E
:10311800002800F09B8070B50D4604464F4B1B6895
:1031280003F007038B4208D2CBB24C4A13701368E2
:1031380003F007038B4240F08B80236813F0020FE3
:1031480017D013F0040F04D0454A936843F4E053B2
:103158009360236813F0080F04D0414A936843F43E
:10316800604393603E4A936823F0F003A1680B43E1
:103178009360236813F0010F32D06368012B21D0CC
:103188009A1E012A25D9364A126812F0020F61D018
:1031980033498A6822F0030213438B6000F024FB52
:1031A80006462F4B9B6803F00C036268B3EB820F53
:1031B80016D000F019FB801B41F288339842F0D9F1
:1031C800032042E0264A126812F4003FE0D10120B1
:1031D8003BE0234A126812F0007FD9D1012034E085
:1031E8001E4B1B6803F00703AB4207D9EAB21B4B1F
:1031F8001A701B6803F00703AB422DD1236813F044
:10320800040F06D0164A936823F4E053E1680B4391
:103218009360236813F0080F07D0114A936823F4CA
:103228006043216943EAC1039360FFF703FF0C4B36
:103238009B68C3F303130B4AD35CD8400A4B18604E
:103248000A4B186800F084FA002070BD012070470E
:103258000120FAE70120F8E70120F6E7003C0240E8
:1032680000380240605A000858000020540000202E
:10327800014B1868704700BF5800002008B5FFF7D9
:10328800F7FF044B9B68C3F38223034AD35CD840FF
:1032980008BD00BF00380240585A000830B583B056
:1032A8000446036813F0050F06D1236813F0020FD4
:1032B8002ED1002003B030BD4A4B00229A6600F0A0
:1032C80093FA0546484B1B6813F0006F06D000F0D0
:1032D8008BFA431B022BF5D90320EBE76268A3683E
:1032E8001B0743EA8213404AC2F884303D4B01224F
:1032F8009A6600F079FA05463B4B1B6813F0006F9D
:10330800D3D100F071FA431B022BF5D90320D1E782
:1033180000230193344B1A6C42F080521A641B6CE0
:1033280003F080530193019B304A136843F4807380
:10333800136000F059FA05462C4B1B6813F4807F84
:1033480006D100F051FA431B022BF5D90320B1E74F
:10335800254B1B6F13F4407314D0E26802F44072DB
:103368009A420FD0204B1A6F22F440721D49012057
:10337800C1F8400E0020C1F8400E1A671B6F13F009
:10338800010F13D1E36803F44072B2F5407F1ED0F9
:10339800154A936823F4F813936013490B6FE26896
:1033A800C2F30B0213430B67002083E700F01CFAFB
:1033B80005460D4B1B6F13F0020FE3D100F014FA12
:1033C800401B41F288339842F3D9032072E706493B
:1033D8008A6822F4F81223F0704323F440731343ED
:1033E8008B60DAE700004742003802400070004076
:1033F800012801D000207047154B9B6813F4000387
:1034080002D01BB313487047114B5B6813F4800F4D
:1034180014D00F4B5A6802F03F020F4BB3FBF2F384
:103428000B4AD2F88400C0F3881003FB00F0D2F8EE
:103438008430C3F30273B0FBF3F07047044B5A684F
:1034480002F03F02054BB3FBF2F3E9E700207047B7
:10345800003802400080BB0000127A000024F4000B
:1034680000230F2B00F2E98070B582B065E0856813
:103478004FEA430E032404FA0EF425EA0405CC6847
:1034880004FA0EF42C438460446824EA02044A686F
:10349800C2F300129A40224342605CE0DC08083420
:1034A80050F8242003F00705AD004FF00F0E0EFA78
:1034B80005FE22EA0E0E0A69AA4042EA0E0240F808
:1034C80024205CE0072200E0002202FA0EF22A43E0
:1034D80002345A4D45F82420594A94686FEA0C0280
:1034E80024EA0C054E6816F4801F01D04CEA040546
:1034F800534CA560E46802EA04054E6816F4001F00
:1035080001D04CEA04054E4CE560646802EA040503
:103518004E6816F4003F01D04CEA0405484C65603B
:10352800246822404D6815F4803F01D04CEA04021B
:10353800434C226001330F2B7DD801229A400C683E
:1035480004EA020C32EA0404F4D14C6804F00304DF
:10355800013C012C8BD94A6802F00302032A09D0E6
:10356800C4685D000322AA4024EA02048A68AA40CB
:103578002243C2604A6802F00302022A8ED004681D
:103588004FEA430E032202FA0EF224EA02044A68C2
:1035980002F0030202FA0EF2224302604A6812F4B1
:1035A800403FC7D000220192264A546C44F480441C
:1035B8005464526C02F480420192019A9C08A51C42
:1035C8001E4A52F8255003F0030E4FEA8E0E0F22C2
:1035D80002FA0EF225EA02051B4A90423FF474AF44
:1035E80002F5806290421AD002F58062904218D0AB
:1035F80002F58062904216D002F58062904214D0A3
:1036080002F58062904212D002F58062904210D09A
:1036180002F5806290423FF455AF082255E7012237
:1036280053E7022251E703224FE704224DE7052220
:103638004BE7062249E702B070BD704700380140E9
:10364800003C014000380240000002400AB181619C
:103658007047090481617047002807DB00F01F02EA
:10366800400901239340024A42F82030704700BFC6
:1036780000E100E0002808DB0901C9B200F1604060
:1036880000F5614080F80013704700F00F00090151
:10369800C9B2014B1954704714ED00E000B500F0B1
:1036A8000700C0F1070CBCF1040F28BF4FF0040C51
:1036B800031D062B0FD9C31E4FF0FF3E0EFA0CF068
:1036C80021EA000199400EFA03FE22EA0E0241EABD
:1036D80002005DF804FB0023EEE70000074AD36808
:1036E80023F4E0631B041B0C000200F4E0600343B6
:1036F80043F0BF6343F40033D360704700ED00E04C
:1037080010B50446054BD868C0F30220FFF7C6FF82
:1037180001462046FFF7AEFF10BD00BF00ED00E0F8
:1037280008B5FFF799FF08BD0138B0F1807F0BD2CB
:103738004FF0E0235861054AF02182F82310002059
:10374800986107221A6170470120704700ED00E078
:1037580010B504460E4B1A784FF47A73B3FBF2F3A4
:103768000C4A1068B0FBF3F0FFF7DEFF68B90F2CC6
:1037780001D901200AE0002221464FF0FF30FFF76F
:10378800BFFF054B1C60002000E0012010BD00BFFA
:1037980050000020580000205400002008B50B4BB2
:1037A8001A6842F400721A601A6842F480621A6059
:1037B8001A6842F480721A600320FFF78FFF002016
:1037C800FFF7C6FFFDF7A0FB002008BD003C024044
:1037D800034A1168034B1B780B441360704700BF02
:1037E800D00A002050000020014B1868704700BF25
:1037F800D00A002038B50446FFF7F6FF0546B4F1B5
:10380800FF3F02D0044B1B781C44FFF7EDFF401B21
:10381800A042FAD338BD00BF50000020002800F0B5
:10382800A18038B5044690F82030D3B122681368D7
:1038380043F001031360FFF7D7FF054623685A6872
:1038480012F0010F10D1FFF7CFFF401B0A28F5D95E
:10385800636A43F400336362052384F8203001204F
:1038680038BDFDF771FBE1E71A6822F002021A6021
:10387800FFF7BAFF054623685A6812F0020F0DD009
:10388800FFF7B2FF401B0A28F5D9636A43F40033F7
:103898006362052384F820300120E1E7227E012AB3
:1038A8003DD01A6822F080021A60637E012B3BD05B
:1038B8002268136823F040031360A37E012B39D0DC
:1038C8002268136823F020031360E37E012B37D0AE
:1038D8002268136843F010031360237F012B35D04F
:1038E8002268136823F008031360637F012B33D029
:1038F8002268136823F004031360A368E268134383
:1039080022691343626913436268013A21681343C9
:10391800CB6100206062012384F82030A0E71A6898
:1039280042F080021A60C0E72268136843F040033F
:103938001360C2E72268136843F020031360C4E7EA
:103948002268136823F010031360C6E7226813681F
:1039580043F008031360C8E72268136843F00403C0
:103968001360CAE70120704790F82030013BDBB2B2
:10397800012B05D9436A43F4802343620120704731
:1039880030B5464BD3F8002242F00102C3F80022BA
:10399800D3F8002222F47C52C3F80022D3F8002284
:1039A800486A42EA0022C3F800224A6902F01F026C
:1039B800012000FA02F2D3F81C026FEA020C20EA96
:1039C8000200C3F81C02CB69C3B9344BD3F80C020C
:1039D8000CEA0000C3F80C028C884869CD6844EAF8
:1039E8000544483043F830408C68088840EA044071
:1039F8004C6904F1480E03EBCE035860CB69012BE8
:103A08001ED08B69002B33D12448D0F804320CEA3D
:103A18000303C0F804320B698BBB2048D0F814327A
:103A28000CEA0303C0F814320B6A012B2ED01B4A90
:103A3800D2F8003223F00103C2F80032002030BD72
:103A4800164BD3F80C021043C3F80C028C88486953
:103A58000D6844EA0544483043F8304088894C6989
:103A68008D6840EA0540483403EBC4035860C8E752
:103A78000A48D0F804321343C0F80432CBE70748A9
:103A8800D0F814321343C0F81432CDE70349D1F803
:103A98001C321343C1F81C32C9E700BF0064004060
:103AA80070B5044690F82050EDB2012D06D0436A57
:103AB80043F4002343620125284670BD022380F8A1
:103AC80020300268136823F001031360FFF78CFEAF
:103AD800064623685B6813F0010F0CD0FFF784FEDD
:103AE800831B0A2BF5D9636A43F400336362052309
:103AF80084F82030E0E700256562DDE790F82030A3
:103B0800013BDBB2012B05D9436A43F480234362AE
:103B180001207047026853690B43536100207047C6
:103B280070477047704770477047704770477047D5
:103B3800704770477047704770472DE9F84F054642
:103B480003685C69D3F804809F68D3F80CA0D3F8A5
:103B58001090D3F818B014F001063BD017F0010606
:103B680016D001229A6017F0020F08D117F0040F3F
:103B78000CD117F0080606D04FF4805608E0FFF77E
:103B8800CFFF002604E0FFF7CEFF01E04FF4006608
:103B980017F4807F0DD02B684FF480729A6017F469
:103BA800007F40F0968017F4806F00F0968046F40E
:103BB800005617F4803F0DD02B684FF480329A607E
:103BC80017F4003F40F0938017F4802F00F09380A3
:103BD80046F4004614F0080F07D01AF0100F04D06E
:103BE80046F400762B681022DA6014F0040F03D034
:103BF8001AF0080F40F0898014F0020F05D02B68E6
:103C0800DB6813F0030F40F0878014F0400F07D0F3
:103C180019F0100F04D046F480662B6810221A6140
:103C280014F0200F02D019F0080F79D114F0100FFA
:103C380004D02B681B6913F0030F78D114F4003FEC
:103C480002D018F0100F76D114F4803F02D018F08B
:103C5800080F77D114F4004F37D018F0040F31D083
:103C680014F4807F04D01BF0010F01D046F0010648
:103C780014F4007F04D01BF0020F01D046F00206B6
:103C880014F4806F04D01BF0040F01D046F0040632
:103C980014F4006F16D01BF0700B13D0BBF1400F5B
:103CA80066D056D8BBF1200F5CD0BBF1300F5CD08A
:103CB800BBF1100F01D146F008062A68936923F07A
:103CC800700393612B6804225A60002E56D1BDE818
:103CD800F88F2846FFF725FF6BE717F4006F02D02F
:103CE80046F4804665E72846FFF71EFF61E7284649
:103CF800FFF718FF6EE717F4002F02D046F480365E
:103D080068E72846FFF711FF64E72B680822DA60A6
:103D18002846FFF70CFF6FE72846FFF707FF74E711
:103D28002B6808221A612846FFF703FF7EE728461A
:103D3800FFF7FEFE82E72B6810225A602846FFF73D
:103D4800F9FE81E72B6808225A602846FFF7F3FE40
:103D580080E7BBF1500F0ED0BBF1600FADD146F438
:103D68008076AAE746F01006A7E746F02006A4E703
:103D780046F04006A1E746F080069EE76B6A3343AB
:103D88006B622846FFF7D8FEA1E70000002800F084
:103D9800CC8070B5044690F83D30002B77D02423B2
:103DA80084F83D302268136823F001031360226809
:103DB800136843F4004313602268136823F4004334
:103DC8001360FFF75BFA62685A4B9A4264D85A4B01
:103DD80098428CBF00230123002B40F0A88057494C
:103DE800A1FB00318B0C25686A6822F03F0242EA89
:103DF80091426A6021680A6A22F03F0266684D4D66
:103E0800AE424FD8013313430B622168CA6922F4CA
:103E18004F4222F0FF026568464B9D424CD8431E34
:103E28006D00B3FBF5F3013340F6FC70034278D024
:103E3800C3F30B031A43CA6121680B6823F0C0035C
:103E4800E269206A024313430B6021688B6823F4FC
:103E5800034323F0FF032269E068024313438B60A6
:103E68002168CB6823F0FF036269A069024313430A
:103E7800CB602268136843F00103136000202064BC
:103E8800202384F83D30206384F83E0070BD80F81C
:103E98003C30FDF797F882E7294B98428CBF002306
:103EA800012399E74FF4967505FB03F3254DA5FB10
:103EB80003539B090133A6E7A668BEB9431E05EB69
:103EC800450CB3FBFCF30133C3F30B03B3FA83F3E1
:103ED8005B0943BBC6B9431E05EB4505B3FBF5F3C8
:103EE8000133C3F30B0343F40043A3E7431E05EB7D
:103EF800850C0CEB8C0CB3FBFCF30133C3F30B0305
:103F0800B3FA83F35B09E4E7431E05EB850505EB8C
:103F18008505B3FBF5F30133C3F30B0343F44043C7
:103F280088E7042386E7012384E7012070470120FE
:103F3800ACE700BFA08601007F841E0083DE1B4320
:103F4800FF083D00D34D6210002800F0BF8038B54F
:103F5800044690F84130002B51D0022284F84120C9
:103F68002168CB6923F47B6323F00F03CB612368BB
:103F78001A626369934263D0E368002B46D1102527
:103F8800A368202B00D86D000120FFF731FA2369C0
:103F9800B3F5007F3CD0B0FBF5F000EB80004300A8
:103FA8006269B3FBF2F30533494AA2FB0323C3F367
:103FB800C002C2EBD3035B0811029A1EFD2A41D846
:103FC80022690A4321681A430A622168CB6923F4EB
:103FD8007B6323F00F036268A0680243E068024332
:103FE800A0690243134343F40063CB61236A012BA6
:103FF8002ED000206064012384F8413038BD80F859
:104008004030344B4363FDF715F8A6E72025B7E7A2
:10401800E36853B1AD00B0FBF5F000EB800043005E
:104028006269B3FBF2F30533BEE7ED00B0FBF5F0D0
:1040380000EB800043006269B3FBF2F30533B3E79A
:104048000021BAE7636C43F0100363640120D5E7ED
:10405800214B63632268214B9A421FD04FF04022C4
:10406800D36923F47B6323F00F03D36122681B4BCE
:104078009A4215D04FF0402302221A622268174B49
:104088009A4210D04FF04025EB699BB26268B2F5B6
:10409800007F0AD0C2B94FF4807008E0104ADFE709
:1040A800A3F58063E8E70E4DEEE74FF48070B4F8AF
:1040B80008C0A189228B40EA0C0001430A4313433C
:1040C80043F40063EB6194E70020F0E701207047B8
:1040D800CDCCCCCC634100087543000800380040C3
:1040E80000340040704708B5426A03681288DA60F5
:1040F800436A02334362438D9BB2013B9BB24385C3
:10410800438D9BB203B108BD0268536823F0A00336
:104118005360012380F84130FFF7E4FFF3E770476D
:1041280008B50368DA68C36A1A80C36A0233C362CF
:10413800438E9BB2013B9BB24386438E9BB203B135
:1041480008BD0268536823F060035360012380F8B8
:104158004130FFF7E4FFF3E7704710B584B0044639
:1041680002689368039390F84130DBB2042B06D0C1
:1041780094F84130DBB2032B2CD004B010BD039B64
:1041880013F0010F03D0536813F0400F1FD1039BA6
:1041980013F0400FECD023685A6812F0200FE7D0D4
:1041A8005A6822F060025A60002301932368DA6893
:1041B80001929B680193019B012384F84130636C51
:1041C80043F0020363642046FFF7C6FFD0E7FFF71A
:1041D800A7FFDCE7039B13F0020F04D023685B689A
:1041E80013F0800F1DD1039B13F0080FC5D023686F
:1041F8005A6812F0200FC0D05A6822F0A0025A6004
:104208000023029323689B680293029B012384F88E
:104218004130636C43F0040363642046FFF79CFF5E
:10422800ABE72046FFF75FFFDDE7704708B5436A55
:104238009A1C426202681B88D360438D9BB2013B83
:104248009BB24385438D9BB23BB90268536823F008
:10425800A0035360438E9BB203B108BD012380F8CD
:104268004130FFF7E2FFF8E708B50268154B9A42BC
:104278001CD04FF04023DA68C36A991CC1621A80C7
:10428800438E9BB2013B9BB24386438E9BB263B97C
:1042980002680C4B9A420CD04FF04022536823F02E
:1042A80060035360438D9BB22BB108BDA3F58063B7
:1042B800E1E7054AF2E7012380F84130FFF7B5FF4F
:1042C800F3E700BF003800400034004008B5436AF7
:1042D8009A1C42621A880168134B994218D04FF011
:1042E8004023DA60438D9BB2013B9BB24385438DEB
:1042F8009BB263B902680C4B9A420CD04FF0402233
:10430800536823F0A0035360438E9BB22BB108BDC2
:10431800A3F58063E5E7054AF2E7012380F8413019
:10432800FFF783FFF3E700BF003800400034004088
:1043380008B50368DA68C36A991CC1621A80438E9B
:104348009BB2013B9BB24386438E9BB23BB902684A
:10435800536823F060035360438D9BB203B108BDDB
:10436800012380F84130FFF760FFF8E710B586B009
:10437800044603689A680592704A93426FD04FF0DA
:104388004022916804915B680393536802936368C1
:10439800B3F5007F01D0002B70D1059B13F0020FFD
:1043A80003D0039B13F0800F5CD1049B13F0010F23
:1043B80003D0029B13F0400F58D1049B13F0400F19
:1043C80024D0029B13F0200F20D022685B4B9A4226
:1043D80050D04FF04022536823F0600353602268A6
:1043E800536823F0A0035360002300932368DA681E
:1043F80000929B680093009B012384F84130636C12
:1044080043F0020363642046FFF7A6FE059B13F002
:10441800080F22D0039B13F0200F1ED02268536888
:1044280023F0A00353602268444B9A4224D04FF0F3
:104438004022536823F060035360002301932368EC
:104448009B680193019B012384F84130636C43F01E
:10445800040363642046FFF77FFE06B010BDA2F593
:1044680080628EE72046FFF7E1FE9EE72046FFF7D1
:10447800FBFEA2E7324AAEE7314ADAE7049B13F0C3
:10448800020F03D0029B13F0800F4AD1059B13F053
:10449800010F03D0039B13F0400F46D1059B13F087
:1044A800400F1CD0039B13F0200F18D022685368CC
:1044B80023F0600353602268204B9A4239D04FF0B2
:1044C8004022536823F0A0035360012384F841304D
:1044D800636C43F0020363642046FFF73DFE049BD0
:1044E80013F0080FB9D0029B13F0200FB5D0226843
:1044F800124B9A421FD04FF04022536823F0A0037A
:1045080053602268536823F060035360012384F8E2
:104518004130636C43F0040363642046FFF71CFEDC
:104528009BE72046FFF7D2FEB0E72046FFF700FFE3
:10453800B4E7034AC5E7024ADFE700BF0038004096
:104548000034004000285AD010B50446436A33B9F5
:104558004368B3F5827F05D00023C36102E00023DE
:10456800036143610023A36294F85130002B40D0CB
:10457800022384F851302268136823F04003136043
:10458800636803F48273A26802F404421343E26886
:1045980002F400621343226902F0020213436269C3
:1045A80002F001021343A26902F400721343E269A4
:1045B80002F038021343226A02F080021343A26A0F
:1045C80002F40052216813430B60638B03F0040369
:1045D800626A02F01002216813434B602268D369B3
:1045E80023F40063D36100206065012384F851300F
:1045F80010BD84F850302046FCF77CFDB8E7012058
:1046080070470000034AD2F8883043F47003C2F8B8
:104618008830704700ED00E008B50378DBB20B2B5B
:1046280000D008BDD0F87C33002BFAD09B6998479E
:10463800F7E738B50446002306E003F1E00204EB8F
:1046480082020021516001330F2BF6D9002304E0C8
:10465800E218002182F81C110133B3F5007FF7D36B
:104668000025257065700123A370C4F8C453237610
:104678004022A271657684F81C5384F81D3384F8AF
:104688001F5384F81E534FF48072294604F11C000E
:10469800FBF7E2FD4FF40072294604F58E70FBF734
:1046A800DBFDC4F82653C4F82A53C4F82E53C4F8C3
:1046B8003253A4F836533E22294604F54E70FBF7D0
:1046C800CBFD284638BD70B584B004464578072D23
:1046D80000F22C81DFE815F00800480069009A0014
:1046E800BF00E500FE001701082100F01FFE18B109
:1046F800032821D0012509E194F82D33A371012560
:10470800657002930026019694F81D33009394F87F
:104718001C3380222179204600F013FFA3790293ED
:10472800019694F81D33009394F81C33324661794E
:10473800204600F006FFE9E094F81E330133DBB2AF
:1047480084F81E33032B03D90D2323700125DDE0E4
:104758006179204600F01DFF2179204600F019FFFD
:10476800002323700125D1E0122100F0DFFD10B9EC
:1047780002236370CAE0032840F0C88094F81E330F
:104788000133DBB284F81E33032B02D90D232370C7
:10479800BCE06179204600F0FCFE2179204600F05B
:1047A800F8FE002363702370B0E0012100F014FECE
:1047B80018B1032824D00125A8E00220FCF72DFB1E
:1047C800012584F81C5303236370A3790293002600
:1047D800019694F81D3300932B46802221792046B8
:1047E80000F0AFFEA3790293019694F81D3300936D
:1047F80094F81C3332466179204600F0A2FE85E029
:104808000D2323700023637001257FE0092100F048
:10481800A8FD18B904236370012577E0032801D0A7
:10482800012573E094F81E330133DBB284F81E339C
:10483800032B03D90D232370012567E061792046F6
:1048480000F0A7FE2179204600F0A3FE0023637044
:10485800237001255AE0B0F83A1300F082FD18B928
:1048680005236370012551E0032801D001254DE09F
:1048780094F81E330133DBB284F81E33032B03D9BB
:104888000D232370012541E06179204600F081FE67
:104898002179204600F07DFE0023637023700125F6
:1048A80034E090F8341319B90623437001252DE03C
:1048B800FF2300F58E7200F06FFD18B906236370B0
:1048C800012523E0032801D001251FE0062363709A
:1048D80001251BE090F8351319B90723437001250A
:1048E80014E0FF2300F58E7200F056FD18B9072377
:1048F800637001250AE0032801D0012506E007239B
:104908006370012502E090F8365315B9284604B0C3
:1049180070BDFF2300F58E72294600F03DFD054667
:104928000028F3D0032803D00125EFE70125EDE7A0
:104938000025EBE7D8B170B50E46044680F8CC23C5
:104948000025C0F87C53C0F88053FFF772FE84F846
:10495800235384F8205384F8215384F822530EB14A
:10496800C4F8D4632046FCF7EBF9002070BD0220A0
:1049780070470A4651B1D0F880334BB9591CC0F87A
:104988008013DE3340F82320002070470220704750
:104998000220704790F83C338B4203D980F82413E7
:1049A800002070470220704710B5044600200BE035
:1049B8004FF01A0C0CFB0E4E9EF849C39C451CD0B8
:1049C800FF2B1AD00130C0B2012815D886464FF007
:1049D8001A0C0CFB004C9CF847C38C4501D0FF29EE
:1049E800F0D14FF01A0C0CFB0E4C9CF848C39445C0
:1049F800DED0FF2AE6D1DBE7FF2010BD10B5044664
:104A0800FCF719FA01212046FCF7E2F9002010BD55
:104A180030B587B0044602238DF8173090F821335B
:104A2800DBB2012B11D02378DBB20B2B7CD8DFE86B
:104A380013F00F002100460012017B007E00EF00FA
:104A480093009D00A700C300090103230370EAE750
:104A580094F82033002B67D001232370C820FCF77B
:104A6800DCF92046FCF7F7F9002384F81C33C4F876
:104A7800C83359E094F82333DBB2012B0FD0D4F8B4
:104A8800C833B3F57A7F13D994F81F330133DBB2F7
:104A980084F81F33032B08D90D23237044E0002327
:104AA80084F81F33022323703EE0002323703BE089
:104AB8000A33C4F8C8330A20FCF7AFF934E0D4F855
:104AC800D43313B10421204698476420FCF7A5F994
:104AD8002046FCF75FF984F81D03052323700021A5
:104AE800204600F043FD60718021204600F03EFD25
:104AF80001462071A37902930025019594F81D338E
:104B0800009394F81C338022204600F01AFDA37904
:104B18000293019594F81D33009394F81C332A46A8
:104B28006179204600F00DFD002007B030BD204619
:104B3800FFF7C9FD8DF817009DF81730002BF3D14A
:104B480084F8243394F83733012B02D007232370D9
:104B5800EAE708232370E7E7D4F8D433002BE3D03F
:104B680001212046984708232370DDE794F83D1378
:104B7800204600F042FC0028D6D109232370D3E751
:104B880094F83F3313F0200F02D10A232370CBE7A8
:104B98000121204600F042FC8DF817009DF81730DF
:104BA80013B90A232370BFE79DF81730DBB2032B34
:104BB800BAD10A232370B7E7D4F88033002BB3D0D7
:104BC8000023C4F87C3373B1D4F87C33EBB19B6811
:104BD80020469847B0B906232370D4F8D43303216C
:104BE80020469847A0E703F1DE0254F82220107906
:104BF80094F84713884202D00133DBB2E3E7C4F8E4
:104C08007C23E1E70D2323708EE70D2323708BE7C8
:104C1800D4F87C339BB11B69204698478DF8170060
:104C28009DF8173013B90B2323707DE79DF81730D3
:104C3800DBB2022B7FF478AF0D23237074E70D23CA
:104C4800237071E7D4F87C33002B3FF46DAF5B69B8
:104C58002046984768E7002384F821332046FFF769
:104C6800E8FCD4F87C332BB1DB6820469847002356
:104C7800C4F87C33D4F8D43313B1052120469847BF
:104C880094F82233DBB2012B03D02046FCF7D3F88B
:104C98004AE7002384F822332046FFF7AFFE43E7B4
:104CA800C0F8C413704708B5D0F8C4230132C0F85F
:104CB800C423FFF7B1FC08BD012380F823337047F4
:104CC800002380F82333012380F8213370470346FB
:104CD800012280F82023002083F8210383F822038F
:104CE800704738B50446012380F82133002580F841
:104CF800205380F82353FCF7A6F82179204600F0CA
:104D080048FC6179204600F044FC284638BD000084
:104D180003468C46002970D0097880F826139CF841
:104D2800011080F827139CF802109CF8030041EA50
:104D38000021A3F828139CF8041083F82A139CF880
:104D4800051083F82B139CF8061083F82C139CF895
:104D5800071083F82D1393F81D0301282DD9022875
:104D680040D00320082A49D99CF808209CF809104B
:104D780042EA0122A3F82E239CF80A209CF80B1083
:104D880042EA0122A3F830239CF80C209CF80D106D
:104D980042EA0122A3F832239CF80E2083F8342338
:104DA8009CF80F2083F835239CF8102083F83623CD
:104DB8009CF8112083F83723704720290BD808293D
:104DC8000BD30839C9B20E4820FA01F111F0010FCE
:104DD80003D00020C6E740290BD0082183F82D1303
:104DE8000020BFE7082906D0082183F82D130020EA
:104DF800B8E70020B6E70020B4E70220704700BFFC
:104E0800010100010B7803704B7843708B78837035
:104E1800CB78C3700B7903714B7943718B798371AC
:104E2800CB79C3710B7A0372704710B58646137835
:104E38000B7053784B7093788B7092F803C081F89D
:104E480003C01379507943EA00238B8094798C71DD
:104E58005A1E92B2B2F5007F0CD200209EF81D2394
:104E6800CAB90CF0030CBCF1030F46D8DFE80CF00C
:104E7800090D040D0320F1E7B3F5007F10D90320D5
:104E88000EE0402B0CD903200AE0013CE4B20F2CC1
:104E980006D9032004E0012A03D0022A1CD00320EB
:104EA80010BD0CF0030CBCF1030F28D8DFE80CF0A0
:104EB8000206020E402BF3D90320F1E7013CE4B2CD
:104EC8000F2C1ED8402BEBD90320E9E7DCB1B3F552
:104ED800806FE5D36046E3E71CF0030C03D1082B91
:104EE800DED00320DCE7BCF1030F01D00320D7E7B5
:104EF8005CB1082BD4D96046D2E70320D0E7032061
:104F0800CEE70320CCE76046CAE76046C8E74378A7
:104F1800032B00D070470378023B9A4228BF1A46F9
:104F280092B2002307E000EB030C9CF802C001F8E2
:104F380001CB02339BB29342F5D300230B70E9E710
:104F480030B583B00446057E6B1E0A2B00F2DD8067
:104F5800DFE803F00610354155627D899CA9C00041
:104F6800427900F1100100F07CFA022323762846EA
:104F780003B030BD4179FBF725FF0546012805D070
:104F8800042818D0022816D00125F0E7237CE28AED
:104F980042B113F0800F02D105232376E7E70323FC
:104FA8002376E4E713F0800F02D107232376DEE7A8
:104FB80009232376DBE70B2323760125D7E7D0F8EF
:104FC800C433C38103798289816800F071FA0423AC
:104FD80023760125CBE70179FBF7F4FE0546012886
:104FE80006D0052800F09380042804D00125BEE7E8
:104FF80009232376BBE70B2323760125B7E7012591
:10500800009543798289816800F03CFAD4F8C4336A
:10501800E38106232376AAE74179FBF7D3FE054609
:10502800431E042B75D8DFE803F0030A740E06004C
:10503800072323769BE70C232376032597E705238D
:105048002376012593E70B23237602258FE703793F
:105058000022114600F02CFAD4F8C433E381082367
:105068002376012583E70179FBF7ACFE012805D0FB
:10507800042807D005284ED0012578E70D2323768C
:10508800002574E70B232376012570E70125009599
:1050980043790022114600F0F5F9D4F8C433E381CE
:1050A8000A23237663E74179FBF78CFE012805D0B4
:1050B800022807D0042809D0012558E70D232376B4
:1050C800002554E709232376012550E70B2323768F
:1050D80001254CE7437E0133DBB24376022B03D82C
:1050E80001250576857042E7D0F8D4330621984724
:1050F800002565766179204600F04BFA2179204633
:1051080000F047FA2570022531E701252FE703252E
:105118002DE701252BE7032529E70B88027813449F
:105128000B800378184470472DE9F04383B00029B9
:1051380000F0B28005460C460B78092B01D00923F4
:105148000B70237885F83833637885F83933A3787A
:10515800E17843EA0123B3F5807F28BF4FF48073D9
:10516800A5F83A33237985F83C33637985F83D33DC
:10517800A37985F83E33E37985F83F33237A85F8B8
:105188004033092A40F28A800923ADF80630002608
:105198003746012E77D8B5F83A23BDF806309A423B
:1051A80071D90DF106012046FFF7B7FF0446437891
:1051B800042BEED10378092B01D009230370B146E3
:1051C80005F54E701A2306FB03F3083318442146ED
:1051D8000230FFF717FE4FF0000814E00723237092
:1051E80005F54E7108F101081A2303FB09F303EBD7
:1051F800C80308331944224604312846FFF715FE30
:1052080007465FFA88F8B8F1010F32D81A2303FB72
:10521800095393F8463343452BD9B5F83A23BDF8DB
:1052280006309A4225D90DF106012046FFF775FF91
:1052380004464378052BE6D11A2303FB095393F858
:105248004733012BCAD11A2303FB095393F8483378
:10525800023BDBB2012BC1D81A2303FB095393F895
:105268004933002BBCD10378092BB9D0092303702B
:10527800B6E71A2303FB095999F84633434512D870
:105288000136F6B285E795F83C33022B28BF022396
:10529800B34204D9032702E0022700E0002738467A
:1052A80003B0BDE8F0830327F9E710B5044680781A
:1052B800012803D0022808D0012005E0A160A281BE
:1052C800012323760223A37010BD2046FFF738FE82
:1052D80030B1032804D00228F6D10123A370F3E7E4
:1052E8000123A37000232376EEE708B58E46944683
:1052F8001946BDF808208378012B02D0FFF7D5FFA7
:1053080008BD6EF07F0E80F810E006234374A0F805
:1053180012C00CF47F4CBCF5407F03D0002383827D
:10532800C282EBE740F209438382F9E7B1F5007FD7
:1053380015D870B582B005460C4600F58E760091FA
:1053480033464FF480720021FFF7CFFF08B102B057
:1053580070BD224631462846FFF7DAFCF7E70320FE
:105368007047B1F5807F15D870B582B004460D46F8
:1053780000F11C06009133464FF400720021FFF73C
:10538800B4FF08B102B070BD2A4631462046FFF787
:10539800CBFEF7E703207047F0B583B0B3F5007F85
:1053A80016D815461C46AAB100F58E7700933B46E1
:1053B80041F440720021FFF798FF064610B13046CD
:1053C80003B0F0BD224629463846FFF7A0FDF6E7B0
:1053D8000326F4E70326F2E708B58378012B04D007
:1053E80000221146FFF761FF08BD00230374052260
:1053F800427441828382C382F2E708B58378012B25
:1054080004D000221146FFF750FF08BD00230374A3
:105418000922427441828382C382F2E708B5837805
:10542800012B04D000221146FFF73FFF08BD0023DF
:1054380003740322427441828382C382F2E708B56F
:105448008378012B04D000221146FFF72EFF08BDF8
:105458000223037401234374002343828182C3829D
:10546800F1E710B584B00B461146002403940822D6
:1054780002920193009423462246FBF707FD20463B
:1054880004B010BD30B585B00C4619469DF82030E3
:1054980090F81D5305B10023039302920194012350
:1054A800009300231A46FBF7F1FC002005B030BD3D
:1054B80030B585B00D461946002403940292019533
:1054C800012200922346FBF7E1FC204605B030BDDF
:1054D80030B585B00C4619469DF8203090F81D531C
:1054E80005B1002303930292019401230093022340
:1054F8000022FBF7CBFC002005B030BD30B585B0ED
:105508000D46194600240394029201950122009247
:105518000223FBF7BBFC204605B030BD00230F2B50
:105528000CD803F1E00200EB8202526812F4004F3B
:1055380002D00133DBB2F2E7184670474FF6FF702E
:10554800704710B584B0BDF8204002949DF81C4007
:1055580001949DF818400094FBF785FC002004B0E6
:1055680010BD08B5FBF72CFC002008BD38B5044673
:105578000D46FFF7D3FF4FF6FF73984207D000F0B0
:105588000F0345F40045E03304EB83046560C0B2C3
:1055980038BD0F2906D8E03100EB81004368C3F31A
:1055A8000E034360002070470020704708B5212291
:1055B8000274202242740022428282820722C2821E
:1055C800FFF773FE08BD08B5A122027421224274B8
:1055D8000022428282820722C282FFF766FE08BD4D
:1055E80038B50446D0F87C33D9694031FFF7EBFF72
:1055F800054620B9D4F8D4330221204698472846D6
:1056080038BD38B50446D0F87C33DD69297879B9D6
:10561800297BB1B9697BF1B9D4F87C33D86928B151
:10562800FAF77AFED4F87C330022DA61002038BD1C
:10563800FFF797FF29782046FFF7ABFF00232B7071
:10564800E6E72046FFF78DFF297B2046FFF7A1FFFD
:1056580000232B73DEE72046FFF783FF697B204694
:10566800FFF797FF00236B73D6E7F0B585B00446C4
:10567800012302221146FFF797F9012800F2AE80B4
:10568800064601462046FFF785F90746002840F000
:10569800A980D4F87C535020FAF736FEE861D4F894
:1056A8007C33DD69002D00F09F80502200212846C0
:1056B800FAF7D2FD1A2303FB064393F84E2393F916
:1056C8004E33002B72DB69782046FFF74FFF014607
:1056D80028706A786B8902930323019394F81D3329
:1056E800009394F81C332046FFF72BFF00222978FB
:1056F8002046FBF77BFB00231A460A212046FFF7CA
:1057080053F9012872D81A2303FB004393F84E2358
:1057180093F94E33002B51DBAA731A2303FB004382
:10572800B3F850332B831A2303FB004393F8562313
:1057380093F95633002B49DBAA731A2303FB004065
:10574800B0F858332B83A97B2046FFF70FFF687307
:10575800E97B2046FFF70AFF2873AA7B697B2B8B1E
:1057680002930226019694F81D33009394F81C3393
:105778002046FFF7E6FEEA7B297B6B8B02930196B6
:1057880094F81D33009394F81C332046FFF7D9FE94
:10579800002685F84C603246697B2046FBF726FBDD
:1057A8003246297B2046FBF721FB18E06A701A2352
:1057B80003FB0646B6F850336B8184E7EA731A2375
:1057C80003FB0043B3F850336B83ACE7EA731A2347
:1057D80003FB0043B3F858336B83B4E7022738461A
:1057E80005B0F0BD0227FAE70227F8E70227F6E737
:1057F800704730B583B00546D0F87C33DC6994F83F
:105808004D30012B0CD0022B18D1617BFBF7DAFA53
:1058180001281ED0022811D1012384F84D300DE053
:10582800606A228B90420BD9637BE169012000906A
:105838002846FFF74DFE022384F84D3003B030BDF3
:10584800637BE1690122009282B22846FFF740FE9D
:10585800F1E7636A228B93420AD99B1A6362E36970
:105868001344E361636A33B1012384F84D30E5E7FB
:1058780000236362F6E7002384F84D302846FFF7DB
:10588800B7FFDBE7704738B50446D0F87C33DD69ED
:1058980095F84E30032B17D0042B1DD1297BFBF72D
:1058A80091FA012818D1297B2046FBF783FAAB6AC5
:1058B800834202D06A8B82420FD0002385F84E3093
:1058C8002046FFF7DFFF07E02B7B6A8B296AFFF78B
:1058D80015FE042385F84E3038BD1B1AAB622B6ABF
:1058E80003442B62032385F84E30F5E7704770B503
:1058F8000446D0F87C33DE6996F84C50042D04D861
:10590800DFE805F03B0513353D00012535E0B16CB6
:10591800FFF74CFE18B9022386F84C302DE0012819
:1059280036D0042386F84C3027E006F14001FFF713
:105938004AFE0546A0B9002386F84C30736CB26C59
:1059480051684B4033F07F4324D1316C136899423E
:1059580001D0012511E02046FFF7C8FF01250CE022
:1059680001280AD0042386F84C30012505E0FFF70A
:1059780040FF2046FFF787FF0125284670BD00211C
:10598800FFF75DFD40B9002386F84C300125F4E7A8
:105998000546F2E70125F0E70125EEE710B50346D5
:1059A8000C4A0D490D48006840B10C480068034492
:1059B800521A934206D8094A136010BD0748084C8A
:1059C8000460F2E7FAF79AFC0C2303604FF0FF300B
:1059D800F3E700BF0000022000040000D40A002002
:1059E800D80A0020DFF834D0FEF70CFE0C480D4929
:1059F8000D4A002302E0D458C4500433C4188C4222
:105A0800F9D30A4A0A4C002301E013600432A24287
:105A1800FBD3FAF7F9FBFBF7ABF87047000002205D
:105A2800000000207C000020845A00087C00002030
:105A3800D80A0020FEE70000F8B500BFF8BC08BC93
:105A48009E467047F8B500BFF8BC08BC9E46704734
:105A58000000000001020304000000000000000034
:0C5A680001020304060708094344430040
:085A74001CABFF7F01000000E4
:045A7C00F10100082C
:045A8000C901000850
:105A84000400002000000000980000200001002015
:105A94006801002000000000000000000000000079
:105AA40000000000000000000000000000000000F2
:105AB40000000000000000000000000000000000E2
:105AC40000000000000000000000000000000000D2
