:020000040800F2
:100000000000052065300008550B0008570B00085C
:10001000590B00085B0B00085D0B00080000000096
:100020000000000000000000000000005F0B00085E
:10003000610B000800000000630B0008650B00085E
:10004000B5300008B5300008B5300008B5300008FC
:10005000B5300008B5300008B5300008B5300008EC
:10006000B5300008B5300008B5300008B5300008DC
:10007000B5300008B5300008B5300008B5300008CC
:10008000B5300008B5300008B5300008B5300008BC
:100090006D0B0008B5300008B5300008B530000819
:1000A000B5300008B5300008B5300008B53000089C
:1000B000B5300008B5300008B5300008B53000088C
:1000C000B5300008B5300008B5300008B53000087C
:1000D000B5300008B5300008B5300008B53000086C
:1000E000B5300008B5300008B5300008B53000085C
:1000F000B5300008B5300008B5300008B53000084C
:10010000B5300008B5300008B5300008B53000083B
:10011000B5300008B5300008B5300008B53000082B
:10012000B5300008B5300008B5300008B53000081B
:10013000B5300008B5300008B5300008B53000080B
:10014000B5300008B5300008B5300008B5300008FB
:10015000B5300008B5300008B5300008B5300008EB
:10016000B5300008B5300008B5300008B5300008DB
:10017000B5300008B53000080000000000000000A5
:10018000B5300008B5300008B5300008B5300008BB
:10019000B5300008B530000800000000B530000898
:1001A000B5300008B5300008000000000000000075
:1001B000B53000080000000000000000B530000865
:1001C000B5300008B5300008B5300008B53000087B
:0801D000B5300008B53000084D
:1001D8000348044B834202D0034B03B118477047CE
:1001E8000C0000200C000020000000000548064B11
:1001F8001B1AD90F01EBA301491002D0034B03B11D
:10020800184770470C0000200C0000200000000078
:1002180010B5064C237843B9FFF7DAFF044B13B146
:100228000448AFF300800123237010BD0C000020A8
:1002380000000000B830000808B5044B1BB10449A1
:100248000448AFF30080BDE80840CFE70000000095
:1002580010000020B830000870B50F4B0F4DAB42AE
:10026800A3EB050607D0B610002455F8043B01346B
:100278009847A642F9D802F01BFF094D094B5E1BAF
:10028800AB424FEAA60606D0002455F8043B0134D9
:100298009847A642F9D870BDF0300008F030000841
:1002A800F0300008F4300008830730B547D0541EFA
:1002B800002A3ED0CAB2034601E0013C39D303F814
:1002C800012B9D07F9D1032C2CD9CDB205EB0525BF
:1002D8000F2C05EB054535D9A4F1100222F00F0CBF
:1002E80003F1100EE6444FEA121C1A46C2E9005503
:1002F800C2E9025510327245F8D10CF1010214F02E
:100308000C0F03EB021204F00F0C13D0ACF1040332
:1003180023F003030433134442F8045B9342FBD1F4
:100328000CF003042CB1C9B21C4403F8011BA3420E
:10033800FBD130BD64461346002CF4D1F9E70346DF
:100348001446C0E71A46A446E0E700BF53B94AB9C5
:10035800002908BF00281CBF4FF0FF314FF0FF30C5
:1003680000F06AB9ADF1080C6DE904CE00F006F8AA
:10037800DDF804E0DDE9022304B070472DE9F04719
:10038800089D0E4604460F46002B4AD194468C45DC
:10039800B2FA82F260D942B1C2F12003974020FA42
:1003A80003F30CFA02FC1F4394404FEA1C4E1FFA59
:1003B8008CF6B7FBFEF1230C0EFB117743EA0743DB
:1003C80001FB06F098420AD91CEB030301F1FF3741
:1003D80080F01581984240F21281023963441B1A59
:1003E800A4B2B3FBFEF00EFB103344EA034400FB57
:1003F80006F6A6420AD91CEB040400F1FF3380F08C
:100408000081A64240F2FD806444023840EA01407F
:10041800A41B00211DB1D4400023C5E90043BDE859
:10042800F0878B4205D90DB1C5E9000100210846C6
:10043800F5E7B3FA83F1002946D1B34202D38242E9
:1004480000F2F580841A66EB030201201746002D9E
:10045800E5D0C5E90047E2E7002A40F09380A1EB28
:100468000C034FEA1C471FFA8CFE0121B3FBF7F679
:1004780007FB1630230C43EA00430EFB06F09842B4
:1004880008D91CEB030306F1FF3802D2984200F2A8
:10049800D08046461B1AA4B2B3FBF7F007FB103313
:1004A80044EA03440EFB00FEA64508D91CEB0404ED
:1004B80000F1FF3302D2A64500F2B6801846A4EB3D
:1004C8000E0440EA0640A5E7C1F120078B4022FA56
:1004D80007FC4CEA030C06FA01FE20FA07F426FA98
:1004E80007F344EA0E0400FA01F84FEA1C404FEA09
:1004F8001449B3FBF0FE1FFA8CF600FB1E3349EAE1
:1005080003430EFB06F9994502FA01F20BD91CEBDD
:1005180003030EF1FF3A80F08580994540F282800E
:10052800AEF1020E6344A3EB0909A4B2B9FBF0F3E0
:1005380000FB139944EA094403FB06F6A64208D9CE
:100548001CEB040403F1FF3068D2A64266D9023BD3
:10055800644443EA0E40A41BA0FB02E6B44273467F
:10056800B14652D34FD05DB1B8EB030264EB090436
:1005780004FA07F722FA01F31F43CC40C5E90074D7
:1005880000214CE7C2F1200120FA01F30CFA02FC29
:1005980026FA01F1964033434FEA1C471FFA8CFEB6
:1005A800B1FBF7F007FB1016190C41EA064100FBF6
:1005B8000EF68E4204FA02F408D91CEB010100F190
:1005C800FF382DD28E422BD902386144891B9BB249
:1005D800B1FBF7F607FB161143EA014306FB0EF1E0
:1005E800994208D91CEB030306F1FF3814D299424B
:1005F80012D9023E63445B1A46EA004136E739469F
:10060800EDE6184602E7F045ADD2BEEB020366EB15
:100618000C060138B146A6E74646ECE7034698E7DC
:100628004046D3E7D6467EE76444023847E70846A3
:100638000DE7023E63442DE7704700BF08B500F0A0
:1006480035FAFEE72DE9F0478EB0002409940A94A4
:100658000B940C940D9401945F4B1A6B42F00402B6
:100668001A631A6B02F004020192019A02941A6B3F
:1006780042F020021A631A6B02F020020292029AD8
:1006880003941A6B42F080021A631A6B02F080021C
:100698000392039A04941A6B42F002021A631A6BCB
:1006A80002F002020492049A05941A6B42F0400286
:1006B8001A631A6B02F040020592059A06941A6BA7
:1006C80042F010021A631A6B02F010020692069AA0
:1006D80007941A6B42F008021A631A6B02F00802B8
:1006E8000792079A08941A6B42F001021A631B6B6F
:1006F80003F001030893089B384E22464FF4A441A7
:10070800304601F0F7FCDFF8E0A0224644F2810110
:10071800504601F0EFFC324F224642F24201384681
:1007280001F0E8FCDFF8C48022464FF4206140461F
:1007380001F0E0FC4FF40059CDF824904FF48813F1
:100748000A930B9409A9274801F0E4FB4FF484436A
:10075800099301250A950B940C9409A9304601F0D8
:10076800D9FB44F2810309930A950B940C9409A9C7
:10077800504601F0CFFB4FF4805309930A950B952F
:100788000C9409A9304601F0C5FBCDF824900A94D1
:100798000B9409A9304601F0BDFB42F242030993CC
:1007A8000A950B940C9409A9384601F0B3FB4FF451
:1007B800206309930A950B940C9409A9404601F00B
:1007C800A9FB802309930A940B9409A9384601F0E0
:1007D800A1FB0EB0BDE8F0870038024000140240CB
:1007E80000180240000802400004024000100240C5
:1007F80008B52A4B2A4A002100F056FC68B9284B54
:100808001B68B3F5817F09D0254B1B6840F2032292
:10081800934219D0B3F5417F2AD008BD204B1B69FC
:10082800012BF1D11D4B1B78112B06D000224FF460
:1008380000711C4801F05EFCE6E701224FF40071EC
:10084800184801F057FCDFE7154A1269012AE1D17F
:10085800124A1278112A05D0134A12684FF44871C7
:10086800D163D7E7104A12684FF49661D163D1E794
:100878000B4B1B69012BD0D1084B1B78112B06D0D1
:1008880000224FF40061094801F034FCC5E7012259
:100898004FF40061054801F02DFCBEE72800002058
:1008A8003000002000140240900500200010024093
:1008B80072B6FEE708B50D480D4B03601023436080
:1008C80000238360C3604FF4E02202614FF40012FA
:1008D8004261037643768376C3760377437700F0E5
:1008E80071FA00B908BDFFF7E3FF00BFD805002083
:1008F8000064004008B50A480A4B03604FF4E1332E
:10090800436000238360C36003610C2242618361FA
:10091800C36101F067FD00B908BDFFF7C9FF00BF5B
:10092800480500200048004008B50C484FF0A04397
:100938000360062303710222C2710023837142728D
:1009480001228272C372037342738273C37301F00C
:1009580079FD00B908BDFFF7ABFF00BF64000020B8
:1009680000B58FB000230A930B930C930D93089353
:1009780009930193029303930493059306930793B2
:100988001F484FF08042026060224260836044F654
:100998001F62C2600361836102F0FEF828BB4FF456
:1009A80080530A930AA9164802F001FAF8B91448C4
:1009B80002F01EF9E8B900230893099308A9104822
:1009C80002F006FBB8B96023019300230293039356
:1009D8000593082201A90A4802F06EF968B9084887
:1009E80000F038F90FB05DF804FBFFF761FFFFF77F
:1009F8005FFFFFF75DFFFFF75BFFFFF759FF00BFE2
:100A08009005002000B595B03422002107A8FFF713
:100A18004BFC0023029303930493059306930093DE
:100A2800204A116C41F080511164126C02F080521E
:100A38000092009A01931C4B1A6842F440421A60D3
:100A48001B6803F440430193019B012307934FF470
:100A5800A023089302230D934FF480020E920822DC
:100A68000F924FF4C07110910421119112921393B7
:100A780007A801F047F888B90F23029302230393CC
:100A8800002304934FF4805205920693032102A891
:100A980000F074FD20B915B05DF804FBFFF708FFFE
:100AA800FFF706FF003802400070004000B58BB029
:100AB80001F0C8FBFFF7A6FFFFF7C4FDFFF7FAFE3A
:100AC800FFF718FFFFF730FFFFF74AFF00230593F2
:100AD80006930122079200930193029303930493D0
:100AE80008920E2309936946144800F011FAF8B9E0
:100AF800124800F0ABFAE8B90221104800F089FB6F
:100B0800D0B90F4B4FF481721A600022DA609A60F4
:100B1800042119611A7508210A4802F0D7F901223F
:100B28004FF48041084801F0E5FA0BB05DF804FB8A
:100B3800FFF7BEFEFFF7BCFEFFF7BAFED8050020A0
:100B48004C0000209005002000140240FEE7FEE75C
:100B5800FEE7FEE7FEE770477047704708B501F00B
:100B68008BFB08BD08B5024800F071FB08BD00BF4B
:100B7800D805002082B0002100910B4B5A6C42F43A
:100B880080425A645A6C02F480420092009A0191A1
:100B98001A6C42F080521A641B6C03F08053019364
:100BA800019B02B0704700BF0038024010B588B002
:100BB8000023039304930593069307930268184B45
:100BC8009A4201D008B010BD0024019403F5EA331D
:100BD8001A6C42F000721A641A6C02F000720192E8
:100BE800019A02941A6B42F008021A631B6B03F015
:100BF80008030293029B03230393022204920693A1
:100C08000923079303A9074801F084F922462146DE
:100C1800142001F0C9FA142001F0D6FAD2E700BF77
:100C280000640040000C02400368B3F1804F00D01C
:100C3800704782B000230193054B1A6C42F0010201
:100C48001A641B6C03F001030193019B02B0704707
:100C58000038024000B587B0002301930293039344
:100C6800049305930368B3F1804F02D007B05DF891
:100C780004FB002300930B4B1A6B42F002021A6329
:100C88001B6B03F002030093009B4FF480630193F6
:100C9800022302930123059301A9034801F03AF9BD
:100CA800E4E700BF003802400004024000B589B004
:100CB8000023039304930593069307930268154B47
:100CC8009A4202D009B05DF804FB0021019103F5B6
:100CD800F8331A6C42F480221A641A6C02F48022E7
:100CE8000192019A02911A6B42F008021A631B6B77
:100CF80003F008030293029B4FF44073039302230B
:100D08000493032306930723079303A9024801F0DA
:100D180001F9D7E700480040000C024070B59EB0CA
:100D28000446002119911A911B911C911D9158227A
:100D380003A8FFF7B9FA2368B3F1A04F01D01EB09A
:100D480070BD2023039303A800F0EEFC002832D1E5
:100D580000250195194C236B43F001032363236B92
:100D680003F001030193019B4FF4E8531993022305
:100D78001A931B9503231C930A231D93104E19A93C
:100D8800304601F0C7F84FF4007319931A951B9574
:100D980019A9304601F0BEF8636B43F08003636322
:100DA8000295636C43F480436364636C03F480438B
:100DB8000293029BC3E7FFF77BFDC9E700380240B7
:100DC80000000240002800F0A18038B5044690F8E1
:100DD8002030D3B12268136843F00103136001F097
:100DE80057FA054623685A6812F0010F10D101F02E
:100DF8004FFA401B0A28F5D9636A43F4003363624B
:100E0800052384F82030012038BDFFF7CFFEE1E745
:100E18001A6822F002021A6001F03AFA05462368BD
:100E28005A6812F0020F0DD001F032FA401B0A285E
:100E3800F5D9636A43F400336362052384F82030EC
:100E48000120E1E7227E012A3DD01A6822F08002C3
:100E58001A60637E012B3BD02268136823F040039D
:100E68001360A37E012B39D02268136823F0200376
:100E78001360E37E012B37D02268136843F0100318
:100E88001360237F012B35D02268136823F00803F1
:100E98001360637F012B33D02268136823F00403A7
:100EA8001360A368E268134322691343626913431A
:100EB8006268013A21681343CB6100206062012314
:100EC80084F82030A0E71A6842F080021A60C0E770
:100ED8002268136843F040031360C2E7226813686E
:100EE80043F020031360C4E72268136823F010035B
:100EF8001360C6E72268136843F008031360C8E765
:100F08002268136843F004031360CAE7012070479E
:100F180090F82030013BDBB2012B05D9436A43F43A
:100F2800802343620120704730B40368454A9342E6
:100F380000D0454BD3F8002242F00102C3F800224A
:100F4800414A934247D04A6902F01F02012000FA41
:100F580002F2D3F81C026FEA020C20EA0200C3F87E
:100F68001C02C869B0B9D3F80C020CEA0000C3F837
:100F78000C028C884869CD6844EA0544483043F837
:100F880030400C8848698D6844EA0544483003EBD2
:100F9800C0004460C86901282BD0886900283FD167
:100FA800D3F804020CEA0000C3F804020869002818
:100FB8003CD1D3F814020CEA0000C3F81402096A01
:100FC800012939D0D3F8002222F00102C3F8002207
:100FD800002030BC7047D3F8002222F47C52C3F8BA
:100FE8000022D3F80022486A42EA0022C3F800220D
:100FF800A9E7D3F80C021043C3F80C028C8848699F
:101008000D6844EA0544483043F830408C89486903
:101018008D6844EA0544483003EBC0004460BCE7EF
:10102800D3F804021043C3F80402BFE7D3F814024C
:101038001043C3F81402C2E7D3F81C120A43C3F8DA
:101048001C22BFE7006C00400064004070B50446F5
:1010580090F82050EDB2012D06D0436A43F40023E6
:1010680043620125284670BD022380F820300268BB
:10107800136823F00103136001F00AF90646236898
:101088005B6813F0010F0CD001F002F9831B0A2BE7
:10109800F5D9636A43F400336362052384F820308A
:1010A800E0E700256562DDE790F820C00CF1FF3C21
:1010B8005FFA8CFCBCF1010F00F2A58030B451B985
:1010C8000468E46814F0030F10D1436A43F4001372
:1010D800436201207EE00468246914F0030F05D1FF
:1010E800436A43F400134362012073E0056801F189
:1010F8001B0424012C5904F004049460002C6BD1C7
:10110800056801F11B0424012C59640D146004685E
:1011180001F11B0C4FEA0C1C54F80C4004F00204BB
:10112800D4600468A444DCF8045015F0080F5BD0C0
:1011380008241461046801F11B0C04EB0C146468A6
:10114800C4F307249461046804EB0C146468240C49
:101158005461026802EB0112D2F8B8211A700268D1
:1011680002EB0112D2F8B821C2F307225A700268C2
:1011780002EB0112D2F8B821C2F307429A70026852
:1011880002EB0112D2F8B821120EDA70026802EBF3
:101198000112D2F8BC211A71026802EB0112D2F8CE
:1011A800BC21C2F307225A71026802EB0112D2F87D
:1011B800BC21C2F307429A71026802EB0112D2F80D
:1011C800BC21120EDA71C1B90268D36843F020035A
:1011D800D360002030BC7047056801F11B0424016E
:1011E8002C59E408546092E701F11B0504EB05143F
:1011F800646804F00F0414619CE70268136943F003
:1012080020031361E5E7436A43F480234362012026
:10121800704790F82030013BDBB2012B05D9436AB7
:1012280043F48023436201207047026853690B43EB
:101238005361002070477047704770477047704788
:1012480070477047704770477047704770472DE97F
:10125800F84F054603685C69D3F804809F68D3F8A3
:101268000CA0D3F81090D3F818B014F001063BD0B6
:1012780017F0010616D001229A6017F0020F08D164
:1012880017F0040F0CD117F0080606D04FF480565B
:1012980008E0FFF7D0FF002604E0FFF7CFFF01E0EA
:1012A8004FF4006617F4807F0DD02B684FF48072DE
:1012B8009A6017F4007F40F0968017F4806F00F072
:1012C800968046F4005617F4803F0DD02B684FF4F3
:1012D80080329A6017F4003F40F0938017F4802F13
:1012E80000F0938046F4004614F0080F07D01AF077
:1012F800100F04D046F400762B681022DA6014F040
:10130800040F03D01AF0080F40F0898014F0020F80
:1013180005D02B68DB6813F0030F40F0878014F0CA
:10132800400F07D019F0100F04D046F480662B68E0
:1013380010221A6114F0200F02D019F0080F79D189
:1013480014F0100F04D02B681B6913F0030F78D129
:1013580014F4003F02D018F0100F76D114F4803F37
:1013680002D018F0080F77D114F4004F37D018F0D6
:10137800040F31D014F4807F04D01BF0010F01D08A
:1013880046F0010614F4007F04D01BF0020F01D0D0
:1013980046F0020614F4806F04D01BF0040F01D04D
:1013A80046F0040614F4006F16D01BF0700B13D02F
:1013B800BBF1400F66D056D8BBF1200F5CD0BBF113
:1013C800300F5CD0BBF1100F01D146F008062A6837
:1013D800936923F0700393612B6804225A60002EEE
:1013E80056D1BDE8F88F2846FFF726FF6BE717F4BC
:1013F800006F02D046F4804665E72846FFF71FFFD6
:1014080061E72846FFF719FF6EE717F4002F02D0AF
:1014180046F4803668E72846FFF712FF64E72B6832
:101428000822DA602846FFF70CFF6FE72846FFF727
:10143800DFF974E72B6808221A612846FFF703FFD3
:101448007EE72846FFF7FEFE82E72B6810225A60E7
:101458002846FFF7F9FE81E72B6808225A602846DC
:10146800FFF7F3FE80E7BBF1500F0ED0BBF1600F22
:10147800ADD146F48076AAE746F01006A7E746F015
:101488002006A4E746F04006A1E746F080069EE75E
:101498006B6A33436B622846FFF7D8FEA1E700006A
:1014A80008B5334B9B6803F00C03042B5BD0082B67
:1014B8005BD12F4B5A6802F03F025B6813F4800F30
:1014C8002CD02B4B5868C0F388104FEA401CBCEB5B
:1014D800000C6EEB0E0E4FEA8E1343EA9C634FEA44
:1014E8008C11B1EB0C0163EB0E03DB0043EA517383
:1014F800C90011EB000C43F10003590200234FEA25
:101508004C2041EADC51FEF721FF194B5B68C3F31D
:10151800014301335B00B0FBF3F008BD144B58687E
:10152800C0F388104FEA401CBCEB000C6EEB0E0EAB
:101538004FEA8E1343EA9C634FEA8C11B1EB0C011E
:1015480063EB0E03DB0043EA5173C90011EB000C97
:1015580043F10003990200234FEA8C2041EA9C5191
:10156800FEF7F4FED1E70348D7E70348D5E700BF05
:101578000038024000127A000024F400002800F02D
:101588009B8070B50D4604464F4B1B6803F007035C
:101598008B4208D2CBB24C4A1370136803F007038E
:1015A8008B4240F08B80236813F0020F17D013F0A2
:1015B800040F04D0454A936843F4E05393602368CA
:1015C80013F0080F04D0414A936843F460439360D2
:1015D8003E4A936823F0F003A1680B4393602368A5
:1015E80013F0010F32D06368012B21D09A1E012A13
:1015F80025D9364A126812F0020F61D033498A6839
:1016080022F0030213438B6000F042FE06462F4B84
:101618009B6803F00C036268B3EB820F16D000F0EE
:1016280037FE801B41F288339842F0D9032042E00C
:10163800264A126812F4003FE0D101203BE0234A19
:10164800126812F0007FD9D1012034E01E4B1B68CC
:1016580003F00703AB4207D9EAB21B4B1A701B68A9
:1016680003F00703AB422DD1236813F0040F06D013
:10167800164A936823F4E053E1680B4393602368A8
:1016880013F0080F07D0114A936823F460432169C7
:1016980043EAC1039360FFF703FF0C4B9B68C3F356
:1016A80003130B4AD35CD8400A4B18600A4B1868DE
:1016B80000F0A2FD002070BD012070470120FAE76C
:1016C8000120F8E70120F6E7003C0240003802401C
:1016D800D83000080800002004000020014B1868DA
:1016E800704700BF0800002008B5FFF7F7FF044B5C
:1016F8009B68C3F38223034AD35CD84008BD00BF6C
:1017080000380240D030000808B5FFF7E7FF044B67
:101718009B68C3F34233034AD35CD84008BD00BF7B
:1017280000380240D030000870B582B00446056821
:1017380015F001050DD0A84AD2F88C3023F0C0630B
:10174800C1690B43C2F88C30C369002B00F0BF801D
:101758000025236813F0020F0BD09F4AD2F88C3073
:1017680023F0C053216A0B43C2F88C30236A03B9B3
:101778000125236813F4005F0FD0974AD2F88C3004
:1017880023F44013A16C0B43C2F88C30A36C03B94B
:101798000125B3F5001F00F09C80236813F4804FE7
:1017A8000FD08D4AD2F88C3023F44003E16C0B4300
:1017B800C2F88C30E36C03B90125B3F5000F00F0D3
:1017C8009480236813F0080F40F09B80236813F07F
:1017D800040F04D094F85420804BC3F8E021236808
:1017E80013F0100F08D07C4AD2F8943023F4400349
:1017F800E16A0B43C2F89430236813F0200F0DD030
:10180800754AD2F8943023F00063216B0B43C2F879
:101818009430236BB3F1006F00F0DC80236813F081
:10182800400F08D06C4AD2F8943023F08053A16A54
:101838000B43C2F89430002D40F0D6802368802BEB
:1018480000F0D280236813F4807F08D0624AD2F86F
:101858008C3023F00043616B0B43C2F88C30236853
:1018680013F4007F08D05C4AD2F88C3023F400438C
:10187800A16B0B43C2F88C30236813F4806F08D037
:10188800554AD2F88C3023F00043E16B0B43C2F881
:101898008C30236813F4006F08D04F4AD2F88C308C
:1018A80023F48043216C0B43C2F88C30236813F473
:1018B800805F00F01E81484AD2F8943023F04043FC
:1018C800616C0B43C2F89430002002B070BD012552
:1018D8003FE74149D1F88C3023F4F8536269013A63
:1018E80043EA0223C1F88C3057E73B49D1F88C30E2
:1018F80023F4F8536269013A43EA0223C1F88C30B1
:101908005FE700230193344B1A6C42F080521A644B
:101918001B6C03F080530193019B314A136843F415
:101928008073136000F0B4FC06462D4B1B6813F45B
:10193800807F06D100F0ACFC801B0228F5D903207B
:10194800C3E7254B1B6F13F4407314D0626A02F48B
:1019580040729A420FD0204B1A6F22F440722149EC
:101968000120C1F8400E0020C1F8400E1A671B6F15
:1019780013F0010F12D1636A03F44072B2F5407F8D
:101988001DD0154A936823F4F813936012490B6F1E
:10199800626AC2F30B0213430B6717E700F078FC87
:1019A80006460D4B1B6F13F0020FE4D100F070FCDC
:1019B800801B41F288339842F3D9032085E7064912
:1019C8008A6822F4F81223F0704323F44073134317
:1019D8008B60DBE7012521E7003802400010474211
:1019E8000070004000004742434B00229A6600F016
:1019F8004FFC0546414B1B6813F0006F06D000F002
:101A080047FC401B0228F5D903205EE7226D3C4BBA
:101A1800C3F8D820236813F0010F01D0E269A2B1FE
:101A280013F0020F01D0226A7AB113F0200F03D00D
:101A3800226BB2F1006F08D013F0400F12D0A36AE6
:101A480083B9236BB3F1006F0CD16368A26843EAD2
:101A58008213E26843EA0263226943EA0273274A6F
:101A6800C2F88430236813F4005F01D0A26C22B15D
:101A780013F4804F19D0E36CBBB9204AD2F8841014
:101A88006368A06843EA801301F070610B43216921
:101A980043EA0173C2F88430D2F88C3023F01F0374
:101AA800A16901390B43C2F88C30236813F0800F09
:101AB8000CD06368A26843EA8213E26843EA0263CF
:101AC800226943EA02730D4AC2F884300A4B0122A4
:101AD8009A6600F0DDFB0546084B1B6813F0006FA3
:101AE8007FF4B0AE00F0D4FB401B0228F4D90320E9
:101AF800EBE60020E9E600BF00004742003802405C
:101B080000104742002800F0E98170B582B0044611
:101B1800036813F0010F3BD09F4B9B6803F00C0345
:101B2800042B2CD09C4B9B6803F00C03082B21D072
:101B38006368B3F5803F4FD0B3F5A02F52D0964BD2
:101B48001A6822F480321A601A6822F480221A6015
:101B58006368002B50D000F09BFB05468E4B1B683A
:101B680013F4003F14D100F093FB401B6428F5D90F
:101B78000320BAE1884B5B6813F4800FD8D0864BFA
:101B88001B6813F4003F03D06368002B00F0A881A2
:101B9800236813F0020F54D07F4B9B6813F00C0F8F
:101BA8003ED07D4B9B6803F00C03082B33D0E368D1
:101BB800002B68D0794B01221A6000F069FB0546BA
:101BC800754B1B6813F0020F54D100F061FB401BEA
:101BD8000228F5D9032088E16F4A136843F480335B
:101BE8001360B5E76C4B1A6842F480221A601A68D1
:101BF80042F480321A60ABE700F04AFB0546664BB8
:101C08001B6813F4003FC3D000F042FB401B64285C
:101C1800F5D9032069E1604B5B6813F4800FC6D1E6
:101C28005D4B1B6813F0020F03D0E368012B40F0F3
:101C38005981594A136823F0F803216943EAC1031B
:101C48001360236813F0080F42D063696BB3534BDA
:101C58000122C3F8802E00F01BFB05464E4B5B6F3C
:101C680013F0020F34D100F013FB401B0228F5D902
:101C780003203AE1484A136823F0F803216943EA4C
:101C8800C1031360DDE7454B00221A6000F000FB3A
:101C98000546414B1B6813F0020FD2D000F0F8FA4A
:101CA800401B0228F5D903201FE13C4B0022C3F852
:101CB800802E00F0EDFA0546374B5B6F13F0020FEC
:101CC80006D000F0E5FA401B0228F5D903200CE104
:101CD800236813F0040F77D02F4B1B6C13F0805F31
:101CE80033D1002301932C4B1A6C42F080521A64B2
:101CF8001B6C03F080530193019B0125284B1B6843
:101D080013F4807F23D0A368012B34D0052B38D05F
:101D1800214B1A6F22F001021A671A6F22F004028F
:101D28001A67A368002B3DD000F0B2FA06461A4B9A
:101D38001B6F13F0020F46D100F0AAFA801B41F284
:101D480088339842F3D90320CFE00025D6E7144A18
:101D5800136843F48073136000F09AFA0646104B38
:101D68001B6813F4807FCED100F092FA801B022802
:101D7800F5D90320B9E0084A136F43F0010313674C
:101D8800CFE7054B1A6F42F004021A671A6F42F048
:101D980001021A67C5E700BF003802400000474249
:101DA8000070004000F074FA0646584B1B6F13F0A1
:101DB800020F08D000F06CFA801B41F28833984279
:101DC800F3D9032091E0EDB9A369002B00F08C80D2
:101DD8004E4A926802F00C02082A54D0022B17D0FF
:101DE8004B4B00221A6600F053FA0446474B1B6817
:101DF80013F0007F45D000F04BFA001B0228F5D9FC
:101E0800032072E0414A136C23F080531364DBE72C
:101E18003F4B00221A6600F03BFA05463B4B1B6815
:101E280013F0007F06D000F033FA401B0228F5D9E2
:101E380003205AE0E369226A1343626A43EA821381
:101E4800A26A5208013A43EA0243E26A43EA026399
:101E5800226B43EA02732D4A53602D4B01221A6606
:101E680000F016FA0446294B1B6813F0007F06D1D0
:101E780000F00EFA001B0228F5D9032035E00020F7
:101E880033E0002031E0012B31D0204B5B6803F4B4
:101E98008001E26991422CD103F03F02216A8A4213
:101EA80029D1616A47F6C0721A40B2EB811F24D16A
:101EB80003F44031A26A5208013AB1EB024F1ED135
:101EC80003F07062E16AB2EB016F1AD103F0E043EC
:101ED800226BB3EB027F16D1002006E00120704789
:101EE800012002E0012000E0002002B070BD0120C6
:101EF800FBE70120F9E70120F7E70120F5E70120DA
:101F0800F3E70120F1E70120EFE700BF00380240C6
:101F18000000474200230F2B00F2E38070B582B027
:101F280065E085684FEA430E032404FA0EF425EAB7
:101F38000405CC6804FA0EF42C438460446824EA4F
:101F480002044A68C2F300129A40224342605CE0ED
:101F5800DC08083450F8242003F00705AD004FF0E2
:101F68000F0E0EFA05FE22EA0E0E0A69AA4042EA90
:101F78000E0240F824205CE0062200E0002202FA6B
:101F88000EF22A430234574D45F82420564A9468E5
:101F98006FEA0C0224EA0C054E6816F4801F01D083
:101FA8004CEA0405504CA560E46802EA04054E6852
:101FB80016F4001F01D04CEA04054B4CE560646838
:101FC80002EA04054E6816F4003F01D04CEA040505
:101FD800454C6560246822404D6815F4803F01D067
:101FE8004CEA0402404C226001330F2B77D80122BF
:101FF8009A400C6804EA020C32EA0404F4D14C68F2
:1020080004F00304013C012C8BD94A6802F0030256
:10201800032A09D0C4685D000322AA4024EA020406
:102028008A68AA402243C2604A6802F00302022A70
:102038008ED004684FEA430E032202FA0EF224EA15
:1020480002044A6802F0030202FA0EF22243026016
:102058004A6812F4403FC7D000220192234A546CC8
:1020680044F480445464526C02F480420192019A10
:102078009C08A51C1B4A52F8255003F0030E4FEA92
:102088008E0E0F2202FA0EF225EA0205184A904235
:102098003FF474AF02F58062904216D002F5806278
:1020A800904214D002F58062904212D002F580620C
:1020B800904210D002F5806290420ED002F5806204
:1020C80090423FF459AF072259E7012257E702220D
:1020D80055E7032253E7042251E705224FE702B0F0
:1020E80070BD704700380140003C01400038024094
:1020F800000002400AB1816170470904816170479C
:10210800002807DB00F01F02400901239340024A20
:1021180042F82030704700BF00E100E0002808DBEB
:102128000901C9B200F1604000F5614080F8001370
:10213800704700F00F000901C9B2014B19547047EC
:1021480014ED00E000B500F00700C0F1070CBCF189
:10215800040F28BF4FF0040C031D062B0FD9C31E14
:102168004FF0FF3E0EFA0CF021EA000199400EFAFA
:1021780003FE22EA0E0241EA02005DF804FB002396
:10218800EEE70000074AD36823F4E0631B041B0C46
:10219800000200F4E060034343F0BF6343F40033FC
:1021A800D360704700ED00E010B50446054BD868D1
:1021B800C0F30220FFF7C6FF01462046FFF7AEFF37
:1021C80010BD00BF00ED00E008B5FFF799FF08BD9E
:1021D8000138B0F1807F0BD24FF0E0235861054AF7
:1021E800F02182F823100020986107221A617047B5
:1021F8000120704700ED00E010B504460E4B1A7838
:102208004FF47A73B3FBF2F30C4A1068B0FBF3F0A7
:10221800FFF7DEFF68B90F2C01D901200AE0002280
:1022280021464FF0FF30FFF7BFFF054B1C60002031
:1022380000E0012010BD00BF0000002008000020C1
:102248000400002008B50B4B1A6842F400721A60AB
:102258001A6842F480621A601A6842F480721A603E
:102268000320FFF78FFF0020FFF7C6FFFEF782FC71
:10227800002008BD003C0240034A1168034B1B784C
:102288000B441360704700BF0006002000000020C8
:10229800014B1868704700BF0006002038B5044697
:1022A800FFF7F6FF0546B4F1FF3F02D0044B1B7859
:1022B8001C44FFF7EDFF401BA042FAD338BD00BF16
:1022C8000000002010B504460268136923F4405347
:1022D800C1680B431361836802691A4343691A434F
:1022E800C3691A430168CB6823F4164323F00C032F
:1022F8001343CB600268536923F4407381690B432D
:1023080053610368354A93420ED002F580629342C6
:102318000AD002F58062934206D002F580629342A9
:1023280002D0FFF7E1F901E0FFF7EEF9E369B3F551
:10233800004F29D00021031849411B1841F1000121
:10234800C90041EA5371DB00181863684FEA830239
:102358004FEA937341F10001FDF7F8FF204AA2FB11
:1023680000314909642303FB11031B013233A2FB2B
:1023780003235B0903F0F00202EB011203F00F03E1
:10238800216813448B6010BD0023021843EB03013E
:10239800121841F10001C90041EA5271D200101827
:1023A80041F10001626892185B41FDF7CFFF0C4ACA
:1023B800A2FB00314909642303FB1103DB0032331C
:1023C800A2FB03235B095A0002F4F87202EB011224
:1023D80003F00703216813448B60D4E70010014021
:1023E8001F85EB5160B310B5044690F8413013B324
:1023F800242384F841302268D36823F40053D3603F
:102408002046FFF75FFF2268136923F490431361A6
:102418002268536923F02A0353612268D36843F47E
:102428000053D36000206064202384F8413084F88E
:102438004230606310BD80F84030FEF737FCD7E7C4
:102448000120704730B583B0002800F08280044630
:10245800056890F89534C3B1032384F89534B5F131
:10246800A04F17D0206800F0FEF8237C8DF80030CC
:10247800231D0ECB206800F0ADF870B1022384F85C
:1024880095340125284603B030BD80F89434FEF712
:1024980045FCE1E70023A371E4E70021206800F090
:1024A8000FFA024608B9034617E0022384F8953468
:1024B8000125E7E703EBC30104EB8101012048751F
:1024C8000B75CB8500200876C861086203EBC30151
:1024D80004EB810148620133DBB220799842E9D8E4
:1024E80016E002EBC20304EB8303002183F85512C4
:1024F80083F8542283F85812C3F85C12C3F86012A8
:1025080002EBC20304EB8303C3F864120132D2B2B4
:102518009042E6D8237C8DF80030231D0ECB20682E
:1025280000F0F6F8054658B900236374012384F8CF
:102538009534237B012B08D0206800F0AFF9A1E780
:10254800022384F8953401259CE7204600F003F81F
:10255800F2E7012596E7034602680121C0F8D8147E
:10256800002083F8CC04936943F000639361536DB2
:1025780043F0805343F003035365704782B0002350
:102588000193019B01330193019BB3F1706F1CD838
:102598000369002BF5DA0A23019302E0019B013B52
:1025A8000193019B002BF9D1036943F001030361F7
:1025B800019B01330193019BB3F1706F08D8036944
:1025C80013F0010FF4D1002000E0032002B070479F
:1025D8000320FBE784B010B5044603A880E80E008A
:1025E8009DF81130012B21D1A36B23F48033A36311
:1025F800E36823F4840323F04003E360E36823F4EF
:102608004013E3609DF81830012B0AD02046FFF7ED
:10261800B5FF9DF80E30012B1CD0BDE8104004B06A
:102628007047E36843F48013E360EFE7E36843F03F
:102638004003E3602046FFF7A1FF9DF8153023B95A
:10264800A36B43F48033A363E3E7A36B23F48033E2
:10265800A363DEE7A36843F00603A360A36843F01F
:102668002003A360D9E7836823F001038360002077
:10267800704782B000230193019B01330193019BB2
:10268800B3F1706F15D80369002BF5DA00230193B5
:10269800890141F020010161019B01330193019BF4
:1026A800B3F1706F08D8036913F0200FF4D100203C
:1026B80000E0032002B070470320FBE782B000234C
:1026C8000193019B01330193019BB3F1706F13D800
:1026D8000369002BF5DA0023019310230361019BA2
:1026E80001330193019BB3F1706F08D8036913F0AC
:1026F800100FF4D1002000E0032002B0704703203F
:10270800FBE7D0F800381943C0F8001800207047DC
:1027180084B0F8B5044607A880E80E00002306E058
:1027280003F1400204EB82020021516001330E2BB9
:10273800F6D99DF8266006BBD4F8043843F00203A6
:10274800C4F80438A36B23F40013A363236843F08D
:1027580040032360236843F0800323600023C4F808
:10276800003E9DF82130012B11D19DF81F304BB947
:1027780000212046FFF7C5FF0DE0A36B43F40013CB
:10278800A363EBE701212046FFF7BBFF03E003212A
:102798002046FFF7B6FF10212046FFF76AFF0546DF
:1027A80000B101252046FFF789FF00B1012504F596
:1027B800006C0023CCF81030CCF81430CCF81C3066
:1027C8000AE0CBB94FF00060C2F8000900220A61A4
:1027D8004FF67F328A6001339DF81C10994210D958
:1027E80004EB431202F51061D2F800090028E8DB77
:1027F8000020C2F80009E9E74FF09040C2F800094C
:10280800E4E700230AE0BBB14FF09047C2F8007B31
:10281800002202614FF67F3282600133994210D95B
:1028280004EB431202F53060D2F8007B002FEADB9C
:102838000027C2F8007BEBE74FF00067C2F8007B87
:10284800E6E7DCF8103023F48073CCF8103000236E
:10285800A3616FF0804363619DF81E301BB9A369C3
:1028680043F01003A361A2690B4B1343A3619DF8C6
:1028780022301BB1A36943F00803A361012E04D0E1
:102888002846BDE8F84004B07047A36943F0804388
:1028980043F00403A361F3E700383C80D0F8003E1E
:1028A80023F00303C0F8003ED0F8043843F00203D5
:1028B800C0F8043800207047406900F001007047F4
:1028C80038B50546C36823F0C043C360012913D057
:1028D80019BBC36843F08043C36000240A20FFF794
:1028E800DDFC0A342846FFF7E7FF08B1C72CF5D905
:1028F800C82C14D0002038BDC36843F00053C3600F
:1029080000240A20FFF7CAFC0A342846FFF7D4FF40
:102918000128EDD0C72CF4D9EAE70120EBE7012024
:10292800E9E70000034AD2F8883043F47003C2F89C
:102938008830704700ED00E030B4036A026A22F084
:10294800010202624268846924F0730C0C6844EA4C
:102958000C0423F0020C8B6843EA0C03114DA842C7
:1029680003D005F58065A84205D123F00803CD689A
:102978002B4323F004030B4DA84203D005F58065D3
:10298800A84207D122F440724D6945EA020C8A69CF
:1029980042EA0C02426084614A684263036230BCC6
:1029A800704700BF0000014030B4036A026A22F495
:1029B800807202624268C46924F0730C0C6844EAAD
:1029C8000C0523F400738C6843EA0423114CA042DD
:1029D80003D004F58064A04206D123F40063CC68D8
:1029E80043EA042323F480630A4CA04203D004F58D
:1029F8008064A04207D122F440524C6942EA041292
:102A08008C6942EA04124260C5614A68C263036283
:102A180030BC70470000014030B4036A026A22F4F7
:102A2800805202624468C26922F4E6420D6842EAB2
:102A3800052223F400538D6843EA0533094DA84263
:102A480003D005F58065A84204D124F480444D697B
:102A580044EA85144460C2614A680264036230BC77
:102A6800704700BF0000014010B4036A046A24F0F4
:102A780001040462846924F0F00C4CEA021223F089
:102A88000A030B43826103625DF8044B704710B47C
:102A9800036A046A24F010040462846924F4704C04
:102AA8004CEA023223F0A00343EA01138261036275
:102AB8005DF8044B7047836823F070030B4343F0C1
:102AC80007038360704770470368324A904212D008
:102AD800B0F1804F0FD0A2F57C4290420BD002F5A6
:102AE8008062904207D002F58062904203D002F5DE
:102AF8007842904203D123F070034A681343254A71
:102B080090422AD0B0F1804F27D0A2F57C42904263
:102B180023D002F5806290421FD002F58062904275
:102B28001BD002F57842904217D002F570529042BD
:102B380013D002F5806290420FD002F58062904275
:102B48000BD0A2F59832904207D002F580629042ED
:102B580003D002F58062904203D123F44073CA681F
:102B6800134323F080034A6913438A68C2620A68E0
:102B78008262084A904203D002F58062904201D1F5
:102B88000A690263026842F004020260012242619B
:102B9800036070470000014040B310B5044690F848
:102BA8003D30F3B1022384F83D30214651F8040B3F
:102BB800FFF78AFF012384F8463084F83E3084F812
:102BC8003F3084F8403084F8413084F8423084F84B
:102BD800433084F8443084F8453084F83D30002090
:102BE80010BD80F83C30FEF71FF8DBE70120704786
:102BF80040B310B5044690F83D30F3B1022384F891
:102C08003D30214651F8040BFFF75EFF012384F89D
:102C1800463084F83E3084F83F3084F8403084F8F9
:102C2800413084F8423084F8433084F8443084F8E2
:102C3800453084F83D30002010BD80F83C30FFF767
:102C480042FFDBE70120704730B4036A026A22F0D2
:102C5800100202624468826922F4E6420D6842EA80
:102C6800052223F020038D6843EA0513114DA8427D
:102C780003D005F58065A84206D123F08003CD680E
:102C880043EA051323F040030A4DA84203D005F593
:102C98008065A84207D124F440644D6944EA85045C
:102CA8008D6944EA8504446082614A6882630362EC
:102CB80030BC70470000014038B590F83C30012B1B
:102CC80066D004460D46012380F83C300C2A5AD8B9
:102CD800DFE802F0075959591B59595930595959C0
:102CE80044000068FFF728FE2268936943F0080350
:102CF80093612268936923F00403936122689369BE
:102D080029690B43936100203EE00068FFF79CFFB0
:102D18002268936943F4006393612268936923F4FA
:102D28008063936122689369296943EA0123936167
:102D3800002029E00068FFF737FE2268D36943F0D6
:102D48000803D3612268D36923F00403D36122689E
:102D5800D36929690B43D361002015E00068FFF7A8
:102D68005BFE2268D36943F40063D3612268D369A8
:102D780023F48063D3612268D369296943EA012374
:102D8800D361002000E00120002384F83C3038BDE6
:102D98000220FCE710B4846824F47F4C42EA032242
:102DA8000A4342EA0C0282605DF8044B704790F8CF
:102DB8003C30012B78D010B50446012380F83C3014
:102DC800022380F83D300268936823F47F4323F0A0
:102DD800770393600B68602B4CD023D8402B54D0DA
:102DE80011D8202B03D00AD80BB1102B05D11946C6
:102DF8002068FFF760FE002028E0012026E0302B45
:102E0800F5D0012022E0502B0AD1CA684968006831
:102E1800FFF72AFE50212068FFF74DFE002015E03D
:102E2800012013E0B3F5805F3AD0B3F5005F14D00A
:102E3800702B37D1CB684A6889680068FFF7AAFF0A
:102E48002268936843F0770393600020012384F895
:102E58003D30002384F83C3010BDCB684A6889684F
:102E68000068FFF797FF2268936843F480439360F4
:102E78000020EBE7CA6849680068FFF708FE602190
:102E88002068FFF718FE0020E0E7CA684968006874
:102E9800FFF7EAFD40212068FFF70DFE0020D5E787
:102EA8000020D3E70120D1E70220704701F01F017D
:102EB8004FF0010C0CFA01FC036A23EA0C030362CD
:102EC800036A8A40134303627047000010B5044642
:102ED8000846002942D194F83E30DBB2013B18BFC6
:102EE8000123002B6ED1002851D1022384F83E30F3
:102EF800012201462068FFF7D9FF2368334A93422D
:102F080003D002F58062934203D15A6C42F4004226
:102F18005A6423682D4A934249D0B3F1804F46D072
:102F2800A2F57C42934242D002F5806293423ED0A1
:102F380002F5806293423AD002F57842934236D045
:102F480002F57052934232D0A2F5943293422ED0B9
:102F58001A6842F001021A60002032E0042908D001
:102F680008290DD094F84130DBB2013B18BF01238A
:102F7800B7E794F83F30DBB2013B18BF0123B0E755
:102F880094F84030DBB2013B18BF0123A9E70428BD
:102F980005D0082807D0022384F84130A8E7022387
:102FA80084F83F30A4E7022384F84030A0E79A6809
:102FB80002F00702062A07D01A6842F001021A60D6
:102FC800002010BD0120FCE70020FAE700000140C6
:102FD80090F83C20012A3DD010B40346012280F825
:102FE8003C20022280F83D2002685068946820F056
:102FF800700C086840EA0C0050601A681648824253
:103008001AD0B2F1804F17D0A0F57C40824213D07D
:1030180000F5806082420FD000F5806082420BD0BC
:1030280000F57840824207D000F57050824203D004
:10303800A0F59430824204D124F0800449682143E9
:103048009160012283F83D20002083F83C005DF860
:10305800044B70470220704700000140DFF834D06D
:10306800FFF760FC0C480D490D4A002302E0D458D4
:10307800C4500433C4188C42F9D30A4A0A4C0023BA
:1030880001E013600432A242FBD3FDF7E5F8FDF737
:10309800D5FA704700000520000000200C00002031
:1030A800F83000080C00002004060020FEE70000AD
:1030B800F8B500BFF8BC08BC9E467047F8B500BF1D
:0830C800F8BC08BC9E467047ED
:1030D00000000000010203040000000000000000E6
:0830E0000102030406070809C0
:0830E8009CD2FF7F01000000F3
:0430F0004102000891
:0430F40019020008B5
:0C30F80001000000100000000024F400A3
:04000005080030655A
:00000001FF
