:020000040800F2
:1000000000000520F52B0008C1090008C3090008FD
:10001000C5090008C7090008C90900080000000058
:10002000000000000000000000000000CB090008F4
:10003000CD09000800000000CF090008D109000820
:10004000452C0008452C0008452C0008452C0008CC
:10005000452C0008452C0008452C0008452C0008BC
:10006000452C0008452C0008452C0008452C0008AC
:10007000452C0008452C0008452C0008452C00089C
:10008000452C0008452C0008452C0008452C00088C
:10009000D9090008452C0008452C0008452C00080B
:1000A000452C0008452C0008452C0008452C00086C
:1000B000452C0008452C0008452C0008452C00085C
:1000C000452C0008452C0008452C0008452C00084C
:1000D000452C0008452C0008452C0008452C00083C
:1000E000452C0008452C0008452C0008452C00082C
:1000F000452C0008452C0008452C0008452C00081C
:10010000452C0008452C0008452C0008452C00080B
:10011000452C0008452C0008452C0008452C0008FB
:10012000452C0008452C0008452C0008452C0008EB
:10013000452C0008452C0008452C0008452C0008DB
:10014000452C0008452C0008452C0008452C0008CB
:10015000452C0008452C0008452C0008452C0008BB
:10016000452C0008452C0008452C0008452C0008AB
:10017000452C0008452C000800000000000000008D
:10018000452C0008452C0008452C0008452C00088B
:10019000452C0008452C000800000000452C0008F4
:1001A000452C0008452C000800000000000000005D
:1001B000452C00080000000000000000452C00084D
:1001C000452C0008452C0008452C0008452C00084B
:0801D000452C0008452C000835
:1001D8000348044B834202D0034B03B118477047CE
:1001E8000C0000200C000020000000000548064B11
:1001F8001B1AD90F01EBA301491002D0034B03B11D
:10020800184770470C0000200C0000200000000078
:1002180010B5064C237843B9FFF7DAFF044B13B146
:100228000448AFF300800123237010BD0C000020A8
:1002380000000000A02C000808B5044B1BB10449BD
:100248000448AFF30080BDE80840CFE70000000095
:1002580010000020A02C000853B94AB9002908BF93
:1002680000281CBF4FF0FF314FF0FF3000F09CB961
:10027800ADF1080C6DE904CE00F006F8DDF804E0F5
:10028800DDE9022304B070472DE9F04782B0064645
:10029800DDF828E00846B4460D46002B4ED18A42C8
:1002A80014466DD9B2FA82F242B1C2F120039540E8
:1002B80026FA03F394401D4306FA02FC260CA7B263
:1002C800B5FBF6F14FEA1C4306FB115543EA05431B
:1002D80001FB07F0984209D9E31801F1FF3580F0D6
:1002E8000381984240F20081023923441B1A1FFA05
:1002F8008CFCB3FBF6F006FB10334CEA034C00FB16
:1003080007F363450AD914EB0C0C00F1FF3580F0B4
:10031800ED80634540F2EA80A444023840EA014097
:10032800ACEB030C0021BEF1000F04D02CFA02F351
:100338000022CEE9003202B0BDE8F0878B4209D92D
:10034800BEF1000F01D0CEE900610021084602B0DD
:10035800BDE8F087B3FA83F1174600294DD18342EF
:1003680002D3B24200F20F81B6EB070C60EB030335
:1003780001201D46BEF1000FDDD0CEE900C5DAE749
:10038800002A00F098801A46B4FA84F3002B40F053
:10039800AF800B1B270CA6B20121B3FBF7F54FEA80
:1003A8001C4007FB153340EA034306FB05F8984554
:1003B80007D9E31805F1FF3002D2984500F2E8802A
:1003C8000546A3EB08031FFA8CFCB3FBF7F007FB09
:1003D80010334CEA034C06FB00F3634508D914EBD1
:1003E8000C0C00F1FF3602D2634500F2CE80304695
:1003F800ACEB030C40EA054095E7C1F120058B40C2
:1004080022FA05FC4CEA030C00FA01F426FA05F37B
:10041800E84002FA01F943EA04084FEA1C4206FAE6
:1004280001FAB0FBF2F71FFA8CF602FB17004FEA4D
:10043800184444EA004407FB06F0A0420AD91CEB22
:10044800040407F1FF3380F09C80A04240F29980B9
:10045800023F6444241A1FFA88F3B4FBF2F002FB4B
:10046800104443EA044300FB06F69E4209D91CEBFC
:10047800030300F1FF3480F082809E427FD9023866
:10048800634440EA0740A0FB09749B1BA3423E4615
:10049800A04664D361D0BEF1000F0AD0BAEB0602C1
:1004A80063EB080303FA05F5CA401543CB40CEE9D0
:1004B800005300213FE7730843EAC1734A08190C47
:1004C80041EA02414FEAC67C9BB2B2FBF4F02646F1
:1004D800A04627461F2243EA0143B1FBF4F1A3EBF0
:1004E800080341EA004158E72946FFE6284615E790
:1004F8001A46C3F120019C4026FA01F320FA01F1C3
:1005080090400343270C06FA02FCB1FBF7F0A6B2B1
:1005180007FB1015190C41EA054100FB06F58D4251
:100528003BD9611801D28D4220D8491B0138B1FB53
:10053800F7F5019505FB06F8019D9BB207FB151120
:1005480043EA0143434526D2E31805F1FF31C6D2F9
:100558004345C4D2A91E2344C1E7BA459BD2B7EB91
:10056800090664EB0C040138A04694E7651B29448E
:100578000238B1FBF7F5019505FB06F8DCE72046E4
:100588007FE71F4666E70846F4E6A44402382FE7EB
:10059800023D234415E70199A1E7491BB1FBF7F593
:1005A800019505FB06F8C7E7704700BF08B500F0DE
:1005B800E5F94FF40071064801F04AFB01210548AE
:1005C80001F046FB4FF47A7001F01EFCF1E700BF22
:1005D80000140240000402402DE9F04F8FB009AD2D
:1005E800002409940A940B940C940D940194604B84
:1005F8001A6B42F004021A631A6B02F004020192A9
:10060800019A02941A6B42F020021A631A6B02F0E4
:1006180020020292029A03941A6B42F080021A6333
:100628001A6B02F080020392039A04941A6B42F048
:1006380002021A631A6B02F002020492049A0594E9
:100648001A6B42F040021A631A6B02F040020592DC
:10065800059A06941A6B42F010021A631A6B02F09C
:1006680010020692069A07941A6B42F008021A635F
:100678001A6B02F008020792079A08941A6B42F064
:1006880001021A631B6B03F001030893089B394F9F
:1006980022464FF4A441384601F0D4FADFF8DCB022
:1006A800224644F28101584601F0CCFADFF8D080A6
:1006B800224642F24201404601F0C4FADFF8C490F3
:1006C80022464FF42061484601F0BCFA4FF4005A24
:1006D800CDF824A04FF488130A930B942946264892
:1006E80001F0B2F94FF48443099301260A960B945A
:1006F8000C942946384601F0A7F944F2810309937E
:100708000A960B940C942946584601F09DF94FF42B
:10071800805309930A960B960C942946384601F0A3
:1007280093F9CDF824A00A940B942946384601F091
:100738008BF942F2420309930A960B940C942946CA
:10074800404601F081F94FF4206309930A960B940F
:100758000C942946484601F077F9802309930A94B6
:100768000B942946404601F06FF90FB0BDE8F08FB1
:100778000038024000140240000802400004024011
:10078800001802400010024072B6FEE708B50D4896
:100798000D4B03601023436000238360C3604FF454
:1007A800E02202614FF400124261037643768376B9
:1007B800C3760377437700F039FA00B908BDFFF72D
:1007C800E3FF00BF9C0500200064004008B50A480C
:1007D8000A4B03604FF4E133436000238360C36036
:1007E80003610C2242618361C36101F0B1FB00B96E
:1007F80008BDFFF7C9FF00BF0C05002000480040F6
:1008080008B50C484FF0A043036006230371022289
:10081800C27100238371427201228272C372037310
:1008280042738273C37301F0C3FB00B908BDFFF7BD
:10083800ABFF00BF2800002000B58FB000230A934B
:100848000B930C930D9308930993019302930393CD
:1008580004930593069307931D484FF08042026066
:1008680060224260836044F61F62C2600361836154
:1008780001F05AFF10BB4FF480530A930AA9144899
:1008880002F062F8E0B9124801F07AFFD0B9089096
:10089800099008A90E4802F063F9A8B960230193EA
:1008A800029003900590082201A9094801F0D0FFA1
:1008B80060B9074800F004F90FB000BDFFF764FF06
:1008C800FFF762FFFFF760FFFFF75EFFFFF75CFFD0
:1008D8005405002010B594B007AC342200212046FE
:1008E80002F0ADF900230293039304930593069352
:1008F8000093204A116C41F080511164126C02F08F
:1009080080520092009A01931B4B1A6842F44042AD
:100918001A601B6803F440430193019B012307936A
:100928004FF4A023089302230D934FF480020E92F4
:1009380008220F924FF4C071109104211191129264
:100948001393204600F076FE78B90F230293022312
:10095800039304904FF4805205920690032102A855
:1009680000F0A8FB18B914B010BDFFF70DFFFFF792
:100978000BFF00BF003802400070004008B501F0CE
:1009880017FAFFF7A7FFFFF727FEFFF7FFFEFFF7AE
:100998001DFFFFF735FFFFF74FFF0821044802F05E
:1009A80061F801224FF48041024801F04BF908BD7B
:1009B8005405002000140240FEE7FEE7FEE7FEE7CC
:1009C800FEE770477047704708B501F00BFA08BD9D
:1009D80008B5024800F0DDF908BD00BF9C050020FD
:1009E80082B0002100910B4B5A6C42F480425A6449
:1009F8005A6C02F480420092009A01911A6C42F0FB
:100A080080521A641B6C03F080530193019B02B05F
:100A1800704700BF0038024000B589B00023039337
:100A280004930593069307930268184B9A4201D0E2
:100A380009B000BD0021019103F5EA331A6C42F0B8
:100A480000721A641A6C02F000720192019A029103
:100A58001A6B42F008021A631B6B03F00803029337
:100A6800029B03230393022204920693092307930C
:100A780003A9074800F0E8FF00221146142001F0FE
:100A880049F9142001F056F9D2E700BF006400408C
:100A9800000C02400368B3F1804F00D0704782B069
:100AA80000230193054B1A6C42F001021A641B6C77
:100AB80003F001030193019B02B070470038024024
:100AC80000B587B000230193029303930493059321
:100AD8000368B3F1804F01D007B000BD0023009335
:100AE8000A4B1A6B42F002021A631B6B03F00203F3
:100AF8000093009B4FF48063019302230293012328
:100B0800059301A9024800F09FFFE5E7003802407D
:100B18000004024000B589B00023039304930593B1
:100B2800069307930268154B9A4201D009B000BD9D
:100B38000021019103F5F8331A6C42F480221A64FB
:100B48001A6C02F480220192019A02911A6B42F007
:100B580008021A631B6B03F008030293029B4FF40D
:100B680040730393022304930323069307230793F5
:100B780003A9034800F068FFD8E700BF0048004019
:100B8800000C024030B59FB00446002119911A911B
:100B98001B911C911D91582203A802F050F823685C
:100BA800B3F1A04F01D01FB030BD2023039303A899
:100BB80000F056FB002832D100220192194C236B19
:100BC80043F001032363236B03F001030193019BAB
:100BD8004FF4E853199302231A9315461B920323E3
:100BE8001C930A231D9319A90F4800F02DFF4FF4F9
:100BF800007319931A951B9519A90B4800F024FF47
:100C0800636B43F0800363630295636C43F4804332
:100C18006364636C03F480430293029BC3E7FFF7AA
:100C2800B3FDC9E70038024000000240002800F088
:100C3800A18038B5044690F82030D3B122681368F3
:100C480043F00103136001F0D9F8054623685A6898
:100C580012F0010F10D101F0D1F8401B0A28F5D984
:100C6800636A43F400336362052384F8203001206B
:100C780038BDFFF7D1FEE1E71A6822F002021A60D8
:100C880001F0BCF8054623685A6812F0020F0DD02F
:100C980001F0B4F8401B0A28F5D9636A43F400331D
:100CA8006362052384F820300120E1E7227E012ACF
:100CB8003DD01A6822F080021A60637E012B3BD077
:100CC8002268136823F040031360A37E012B39D0F8
:100CD8002268136823F020031360E37E012B37D0CA
:100CE8002268136843F010031360237F012B35D06B
:100CF8002268136823F008031360637F012B33D045
:100D08002268136823F004031360A368E26813439E
:100D180022691343626913436268013A21681343E5
:100D2800CB6100206062012384F82030A0E71A68B4
:100D380042F080021A60C0E72268136843F040035B
:100D48001360C2E72268136843F020031360C4E706
:100D58002268136823F010031360C6E7226813683B
:100D680043F008031360C8E72268136843F00403DC
:100D78001360CAE701207047704770477047704793
:100D880070477047704770477047704770477047A3
:100D980070472DE9F84F054603685C69D3F804806D
:100DA8009F68DA6891461A6992469A69934614F0E0
:100DB80001063BD017F0010616D001229A6017F001
:100DC800020F08D117F0040F0CD117F0080606D04F
:100DD8004FF4805608E0FFF7CFFF002604E0FFF746
:100DE800CEFF01E04FF4006617F4807F0DD02B682A
:100DF8004FF480729A6017F4007F40F0928017F4E5
:100E0800806F00F0928046F4005617F4803F0DD0B2
:100E18002B684FF480329A6017F4003F40F08F80BF
:100E280017F4802F00F08F8046F4004614F0080F66
:100E380007D019F0100F04D046F400762B68102262
:100E4800DA6014F0040F03D019F0080F40F0858021
:100E580014F0020F05D02B68DB6813F0030F40F085
:100E6800838014F0400F07D01AF0100F04D046F416
:100E780080662B6810221A6114F0200F02D01AF035
:100E8800080F75D114F0100F04D02B681B6913F0EC
:100E9800030F74D114F4003F02D018F0100F72D170
:100EA80014F4803F02D018F0080F73D114F4004FE7
:100EB80033D018F0040F2DD014F4807F04D01BF029
:100EC800010F01D046F0010614F4007F04D01BF096
:100ED800020F01D046F0020614F4806F04D01BF014
:100EE800040F01D046F0040614F4006F12D01BF072
:100EF80070030FD0402B61D053D8202B58D0302B03
:100F080059D0102B01D146F008062A68936923F0BE
:100F1800700393612B6804225A60002E54D1BDE8F7
:100F2800F88F2846FFF729FF6FE717F4006F02D004
:100F380046F4804669E72846FFF722FF65E728461A
:100F4800FFF71CFF72E717F4002F02D046F4803633
:100F58006CE72846FFF715FF68E72B680822DA6078
:100F68002846FFF710FF73E72846FFF70BFF78E7DF
:100F78002B6808221A612846FFF707FF82E72846F0
:100F8800FFF702FF86E72B6810225A602846FFF712
:100F9800FDFE85E72B6808225A602846FFF7F7FE12
:100FA80084E7502B0DD0602BAFD146F48076ACE7A8
:100FB80046F01006A9E746F02006A6E746F04006E8
:100FC800A3E746F08006A0E76B6A33436B622846C6
:100FD800FFF7DEFEA3E7000008B5334B9B6803F07C
:100FE8000C03042B5BD0082B5BD12F4B5A6802F003
:100FF8003F025B6813F4800F2CD02B4B5868C0F36A
:1010080088104FEA401CBCEB000C6EEB0E0E4FEA4A
:101018008E1343EA9C634FEA8C11B1EB0C0163EB2E
:101028000E03DB0043EA5173C90011EB000C43F1D6
:101038000003590200234FEA4C2041EADC51FFF734
:101048000BF9194B5B68C3F3014301335B00B0FB39
:10105800F3F008BD144B5868C0F388104FEA401CE1
:10106800BCEB000C6EEB0E0E4FEA8E1343EA9C634A
:101078004FEA8C11B1EB0C0163EB0E03DB0043EA82
:101088005173C90011EB000C43F1000399020023CE
:101098004FEA8C2041EA9C51FFF7DEF8D1E703487C
:1010A800D7E70348D5E700BF0038024000127A00AE
:1010B8000024F400002800F09B8070B50D4604461B
:1010C8004F4B1B6803F007038B4208D2CBB24C4A44
:1010D8001370136803F007038B4240F08B8023687A
:1010E80013F0020F17D013F0040F04D0454A936889
:1010F80043F4E0539360236813F0080F04D0414A87
:10110800936843F4604393603E4A936823F0F00386
:10111800A1680B439360236813F0010F32D0636812
:10112800012B21D09A1E012A25D9364A126812F0BD
:10113800020F61D033498A6822F0030213438B609F
:1011480000F05CFE06462F4B9B6803F00C036268B8
:10115800B3EB820F16D000F051FE801B41F28833AA
:101168009842F0D9032042E0264A126812F4003F60
:10117800E0D101203BE0234A126812F0007FD9D168
:10118800012034E01E4B1B6803F00703AB4207D96C
:10119800EAB21B4B1A701B6803F00703AB422DD150
:1011A800236813F0040F06D0164A936823F4E0531B
:1011B800E1680B439360236813F0080F07D0114AC6
:1011C800936823F46043216943EAC1039360FFF7FE
:1011D80003FF0C4B9B68C3F303130B4AD35CD84043
:1011E8000A4B18600A4B186800F0BCFD002070BD5F
:1011F800012070470120FAE70120F8E70120F6E70F
:10120800003C024000380240C02C000808000020C2
:1012180004000020014B1868704700BF0800002038
:1012280008B5FFF7F7FF044B9B68C3F38223034A13
:10123800D35CD84008BD00BF00380240B82C000875
:1012480008B5FFF7E7FF044B9B68C3F34233034A33
:10125800D35CD84008BD00BF00380240B82C000855
:1012680070B582B00446056815F001050BD0AF4A89
:10127800D2F88C3023F0C063C1690B43C2F88C30BC
:10128800C36903B10025236813F0020F0BD0A74AE6
:10129800D2F88C3023F0C053216A0B43C2F88C304B
:1012A800236A03B90125236813F4005F0FD09F4A0E
:1012B800D2F88C3023F44013A16C0B43C2F88C3065
:1012C800A36C03B90125B3F5001F00F09A802368C9
:1012D80013F4804F0FD0954AD2F88C3023F4400392
:1012E800E16C0B43C2F88C30E36C03B90125B3F50C
:1012F800000F00F09280236813F0080F40F09980E7
:10130800236813F0040F04D094F85420884BC3F8D2
:10131800E021236813F0100F08D0844AD2F89430E3
:1013280023F44003E16A0B43C2F89430236813F0B6
:10133800200F0DD07D4AD2F8943023F00063216B42
:101348000B43C2F89430236BB3F1006F00F0DA80DE
:10135800236813F0400F08D0744AD2F8943023F071
:101368008053A16A0B43C2F89430002D40F0CC8022
:101378002368802B00F0C880236813F4807F08D08E
:101388006A4AD2F88C3023F00043616B0B43C2F8F1
:101398008C30236813F4007F08D0644AD2F88C306C
:1013A80023F40043A16B0B43C2F88C30236813F479
:1013B800806F08D05D4AD2F88C3023F00043E16B8F
:1013C8000B43C2F88C30236813F4006F08D0574AD7
:1013D800D2F88C3023F48043216C0B43C2F88C3054
:1013E800236813F4805F00F01C81504AD2F89430CF
:1013F80023F04043616C0B43C2F89430002002B0E4
:1014080070BD4A49D1F88C3023F4F8536269013A27
:1014180043EA0223C1F88C3059E74449D1F88C30AB
:1014280023F4F8536269013A43EA0223C1F88C3085
:1014380061E7002301933D4B1A6C42F080521A6415
:101448001B6C03F080530193019B3A4A136843F4E1
:101458008073136000F0D2FC0646364B1B6813F409
:10146800807F06D100F0CAFC801B0228F5D9032032
:10147800C5E72E4B1B6F13F4407314D0626A02F455
:1014880040729A420FD0294B1A6F22F440722A49AF
:101498000120C1F8400E0020C1F8400E1A671B6FEA
:1014A80013F0010F12D1636A03F44072B2F5407F62
:1014B8001DD01E4A936823F4F81393601B490B6FE1
:1014C800626AC2F30B0213430B6719E700F096FC3C
:1014D8000646164B1B6F13F0020FE4D100F08EFC8A
:1014E800801B41F288339842F3D9032087E70F49DC
:1014F8008A6822F4F81223F0704323F440731343EC
:101508008B60DBE7012523E70B4B00229A6600F08E
:1015180075FC0546054B1B6813F0006F0ED000F0F4
:101528006DFC401B0228F5D9032068E7003802400B
:10153800001047420070004000004742226D3A4BBD
:10154800C3F8D820236813F0010F01D0E269A2B1D3
:1015580013F0020F01D0226A7AB113F0200F03D0E2
:10156800226BB2F1006F08D013F0400F12D0A36ABB
:1015780083B9236BB3F1006F0CD16368A26843EAA7
:101588008213E26843EA0263226943EA0273274A44
:10159800C2F88430236813F4005F01D0A26C22B132
:1015A80013F4804F19D0E36CBBB9204AD2F88410E9
:1015B8006368A06843EA801301F070610B432169F6
:1015C80043EA0173C2F88430D2F88C3023F01F0349
:1015D800A16901390B43C2F88C30236813F0800FDE
:1015E8000CD06368A26843EA8213E26843EA0263A4
:1015F800226943EA02730D4AC2F884300C4B012277
:101608009A6600F0FBFB0546084B1B6813F0006F59
:101618007FF4B2AE00F0F2FB401B0228F4D903209D
:10162800EDE60020EBE600BF00104742003802401C
:1016380000004742002800F0EB8170B582B00446F4
:10164800036813F0010F3BD09B4B9B6803F00C031E
:10165800042B2CD0984B9B6803F00C03082B21D04B
:101668006368B3F5803F4FD0B3F5A02F52D0924BAB
:101678001A6822F480321A601A6822F480221A60EA
:101688006368002B50D000F0B9FB05468A4B1B68F5
:1016980013F4003F14D100F0B1FB401B6428F5D9C6
:1016A8000320BCE1844B5B6813F4800FD8D0824BD5
:1016B8001B6813F4003F03D06368002B00F0AA8175
:1016C800236813F0020F54D07B4B9B6813F00C0F68
:1016D8003ED0794B9B6803F00C03082B33D0E368AA
:1016E800002B68D0754B01221A6000F087FB054675
:1016F800714B1B6813F0020F54D100F07FFB401BA5
:101708000228F5D903208AE16B4A136843F4803331
:101718001360B5E7684B1A6842F480221A601A68A9
:1017280042F480321A60ABE700F068FB0546624B72
:101738001B6813F4003FC3D000F060FB401B642813
:10174800F5D903206BE15C4B5B6813F4800FC6D1BD
:10175800594B1B6813F0020F03D0E368012B40F0CC
:101768005B81554A136823F0F803216943EAC103F2
:101778001360236813F0080F42D063696BB34F4BB3
:101788000122C3F8802E00F039FB05464A4B5B6FF7
:1017980013F0020F34D100F031FB401B0228F5D9B9
:1017A80003203CE1444A136823F0F803216943EA23
:1017B800C1031360DDE7414B00221A6000F01EFBF5
:1017C80005463D4B1B6813F0020FD2D000F016FB04
:1017D800401B0228F5D9032021E1384B0022C3F829
:1017E800802E00F00BFB0546334B5B6F13F0020FA6
:1017F80006D000F003FB401B0228F5D903200EE1B8
:10180800236813F0040F79D02B4B1B6C13F0805F07
:1018180034D100230193284B1A6C42F080521A6489
:101828001B6C03F080530193019B01231E46244B3C
:101838001B6813F4807F24D0A368012B35D0052BB7
:1018480040D01D4B1A6F22F001021A671A6F22F05E
:1018580004021A67A368002B3ED000F0CFFA0546B1
:10186800154B1B6F13F0020F47D100F0C7FA401B4E
:1018780041F288339842F3D90320D0E000231E4672
:10188800D5E70F4A136843F48073136000F0B6FA83
:1018980005460B4B1B6813F4807FCDD100F0AEFAE0
:1018A800401B0228F5D90320B9E0034A136F43F01F
:1018B80001031367CEE700BF00380240000047422B
:1018C800007000405E4B1A6F42F004021A671A6FEC
:1018D80042F001021A67BDE700F090FA0546584B3E
:1018E8001B6F13F0020F08D000F088FA401B41F27A
:1018F80088339842F3D9032091E0EEB9A369002B0D
:1019080000F08C804E4A926802F00C02082A54D0EB
:10191800022B17D04B4B00221A6600F06FFA0446D0
:10192800474B1B6813F0007F45D000F067FA001B97
:101938000228F5D9032072E0414A136C23F0805342
:101948001364DBE73F4B00221A6600F057FA05469E
:101958003B4B1B6813F0007F06D000F04FFA401B8A
:101968000228F5D903205AE0E369226A1343626A20
:1019780043EA8213A26A5208013A43EA0243E26A3E
:1019880043EA0263226B43EA02732D4A53602D4BEC
:1019980001221A6600F032FA0446294B1B6813F03C
:1019A800007F06D100F02AFA001B0228F5D903208F
:1019B80035E0002033E0002031E0012B31D0204B0E
:1019C8005B6803F48001E26991422CD103F03F0285
:1019D800216A8A4229D1616A47F6C0721A40B2EB7D
:1019E800811F24D103F44031A26A5208013AB1EBB5
:1019F800024F1ED103F07062E16AB2EB016F1AD197
:101A080003F0E043226BB3EB027F16D1002006E01F
:101A180001207047012002E0012000E0184602B0D2
:101A280070BD0120FBE70120F9E70120F7E701205D
:101A3800F5E70120F3E70120F1E70120EFE700BF18
:101A4800003802400000474270B582B08E4600233D
:101A580069E085684FEA430C032101FA0CF125EA95
:101A68000105DEF80C1001FA0CF129438160416888
:101A780021EA0201DEF80420C2F300129A400A4368
:101A8800426065E0D908083150F8212003F00705C5
:101A9800AD004FF00F0C0CFA05FC22EA0C0CDEF836
:101AA8001020AA4042EA0C0240F8212067E00622F2
:101AB80000E0002202FA0CF22A4302315D4D45F89B
:101AC80021205D4A9168E24321EA0405DEF80460BA
:101AD80016F4801F01D044EA010557498D60C96892
:101AE80002EA0105DEF8046016F4001F01D044EA9A
:101AF80001055149CD60496802EA0105DEF8046034
:101B080016F4003F01D044EA01054B494D600968CD
:101B18000A40DEF8045015F4803F01D044EA01027F
:101B280045490A6001330F2B00F2818001229A4057
:101B3800DEF8001001EA020432EA0101F2D1DEF80F
:101B4800041001F0030C0CF1FF3CBCF1010F80D92B
:101B5800DEF8042002F00302032A0AD0C1685D00FF
:101B68000322AA4021EA0201DEF80820AA400A431B
:101B7800C260DEF8042002F00302022A82D0016863
:101B88004FEA430C032202FA0CF221EA0201DEF8C2
:101B9800042002F0030202FA0CF20A430260DEF8A3
:101BA800042012F4403FBDD000220192234A516C18
:101BB80041F480415164526C02F480420192019ACE
:101BC80099088D1C1B4A52F8255003F0030C4FEA64
:101BD8008C0C0F2202FA0CF225EA0205184A9042F0
:101BE8003FF467AF02F58062904216D002F580623A
:101BF800904214D002F58062904212D002F58062C1
:101C0800904210D002F5806290420ED002F58062B8
:101C180090423FF44CAF07224CE701224AE70222E8
:101C280048E7032246E7042244E7052242E702B0D8
:101C380070BD00BF00380140003C01400038024040
:101C4800000002400AB18161704709048161704750
:101C5800436901EA030221EA030141EA0241816181
:101C680070470000002807DB00F01F02400901232D
:101C78009340024A42F82030704700BF00E100E07C
:101C8800002808DB0901C9B200F1604000F5614095
:101C980080F80013704700F00F000901C9B2014B2A
:101CA8001954704714ED00E000B500F00700A0F1EA
:101CB800030CBCF1040F07D8C0F1070E0430062846
:101CC80006D84FF0000C03E04FF0040E4FF0000C64
:101CD8004FF0FF3303FA0EF021EA000101FA0CF18C
:101CE80003FA0CF322EA030241EA020000BD0000F5
:101CF800074AD36823F4E0631B041B0C000200F4BA
:101D0800E060034343F0BF6343F40033D36070479C
:101D180000ED00E010B50446054BD868C0F302207A
:101D2800FFF7C2FF01462046FFF7AAFF10BD00BF1C
:101D380000ED00E008B5FFF795FF08BD0138B0F1E8
:101D4800807F0BD24FF0E0235861054AF02182F8DA
:101D580023100020986107221A61704701207047FC
:101D680000ED00E010B504460E4B18680E4B1A78CB
:101D78004FF47A73B3FBF2F3B0FBF3F0FFF7DEFF37
:101D880068B90F2C01D901200AE0024621464FF01C
:101D9800FF30FFF7BFFF054B1C60002000E001206B
:101DA80010BD00BF08000020000000200400002033
:101DB80008B50B4B1A6842F400721A601A6842F4AC
:101DC80080621A601A6842F480721A600320FFF772
:101DD8008FFF0020FFF7C6FFFEF702FE002008BDB8
:101DE800003C0240034A1168034B1B780B44136004
:101DF800704700BFC405002000000020014B186890
:101E0800704700BFC405002038B50446FFF7F6FF49
:101E18000546B4F1FF3F02D0044B1B781C44FFF782
:101E2800EDFF401BA042FAD338BD00BF00000020E0
:101E380010B504460268136923F44053C1680B4384
:101E48001361836802691A4343691A43C3691A43D1
:101E58000168CB6823F4164323F00C031343CB60CB
:101E68000268536923F4407381690B435361036823
:101E7800354A93420ED002F5806293420AD002F5A9
:101E88008062934206D002F58062934202D0FFF747
:101E9800C7F901E0FFF7D4F9E369B3F5004F29D09A
:101EA8000021031849411B1841F10001C90041EA0A
:101EB8005371DB00181863684FEA83024FEA937383
:101EC80041F10001FEF7C8F9204AA2FB0031490997
:101ED800642303FB11031B013233A2FB03235B09B9
:101EE80003F0F00202EB011203F00F032168134420
:101EF8008B6010BD0023021843EB0301121841F157
:101F08000001C90041EA5271D200101841F10001E4
:101F1800626892185B41FEF79FF90C4AA2FB0031F8
:101F28004909642303FB1103DB003233A2FB0323BB
:101F38005B095A0002F4F87202EB011203F007037E
:101F4800216813448B60D4E7001001401F85EB51D2
:101F580060B310B5044690F8413013B3242384F8D5
:101F680041302268D36823F40053D3602046FFF73A
:101F78005FFF2268136923F4904313612268536951
:101F880023F02A0353612268D36843F40053D360D3
:101F980000206064202384F8413084F84230606374
:101FA80010BD80F84030FEF7B5FDD7E70120704737
:101FB80030B583B0002800F08580044603681D46CC
:101FC80090F89534CBB1032384F89534B5F1A04F3C
:101FD80018D0206800F001F9237C8DF80030231D0B
:101FE8000ECB206800F0B0F878B1022384F895345D
:101FF80001231D46284603B030BD80F89434FEF70F
:10200800C1FDE0E70023A371E3E70146206800F083
:1020180017FA0246B8B903462079984219D903EB52
:10202800C30104EB8101012048750B75CB850020A5
:102038000876C861086203EBC30104EB81014862BA
:102048000133DBB2E8E7022384F8953401231D4607
:10205800D0E7904217D902EBC20304EB83030021B7
:1020680083F8551283F8542283F85812C3F85C1287
:10207800C3F8601202EBC20304EB8303C3F86412D3
:102088000132D2B2E5E7237C8DF80030231D0ECB58
:10209800206800F0F7F8054650B96074012384F809
:1020A8009534237B012B09D0206800F0B7F9A1E70C
:1020B800022384F8953401231D469BE7204600F04F
:1020C80004F8F1E701231D4694E70346026801215D
:1020D800C0F8D814002083F8CC04936943F0006357
:1020E8009361536D43F0805343F003035365704786
:1020F80082B000230193019B01330193019BB3F14B
:10210800706F1CD80369002BF5DA0A23019302E0EB
:10211800019B013B0193019B002BF9D1036943F01B
:1021280001030361019B01330193019BB3F1706FBC
:1021380008D8036913F0010FF4D1002000E0032050
:1021480002B070470320FBE784B010B5044603A82B
:1021580080E80E009DF81130012B21D1A36B23F4E8
:102168008033A363E36823F4840323F04003E3602C
:10217800E36823F44013E3609DF81830012B0AD07C
:102188002046FFF7B5FF9DF80E30012B1CD0BDE8A7
:10219800104004B07047E36843F48013E360EFE74E
:1021A800E36843F04003E3602046FFF7A1FF9DF892
:1021B800153023B9A36B43F48033A363E3E7A36B20
:1021C80023F48033A363DEE7A36843F00603A36028
:1021D800A36843F02003A360D9E7836823F00103D1
:1021E80083600020704782B000230193019B013374
:1021F8000193019BB3F1706F15D80369002BF5DAD1
:1022080000230193890141F020010161019B013301
:102218000193019BB3F1706F08D8036913F0200F85
:10222800F4D1002000E0032002B070470320FBE750
:1022380082B000230193019B01330193019BB3F109
:10224800706F13D80369002BF5DA0023019310236C
:102258000361019B01330193019BB3F1706F08D8AF
:10226800036913F0100FF4D1002000E0032002B03E
:1022780070470320FBE7D0F800381943C0F800186E
:102288000020704784B070B5044605A880E80E00A9
:10229800002306E003F1400204EB820200215160B2
:1022A80001330E2BF6D99DF81E5005BBD4F804381F
:1022B80043F00203C4F80438A36B23F40013A363A8
:1022C800236843F040032360236843F080032360BE
:1022D8000023C4F8003E9DF81930012B11D19DF858
:1022E80017304BB919462046FFF7C5FF0DE0A36B21
:1022F80043F40013A363EBE701212046FFF7BBFF7C
:1023080003E003212046FFF7B6FF10212046FFF720
:102318006AFF064608B101231E462046FFF788FFDC
:1023280008B101231E4604F5006C0023CCF81030D8
:10233800CCF81430CCF81C300DE04FF09040C2F8C7
:10234800000902E00020C2F8000900220A614FF6E5
:102358007F328A6001339DF8141099420ED904EB3C
:10236800431202F51061D2F800090028EADA002BBE
:10237800E3D14FF00060C2F80009E6E700230AE065
:10238800CBB14FF0904EC2F800EB002202614FF63D
:102398007F3282600133994212D904EB431202F56D
:1023A8003060D2F800EBBEF1000FE9DB4FF0000E11
:1023B800C2F800EBE9E74FF0006EC2F800EBE4E783
:1023C800DCF8103023F48073CCF810300023A361BC
:1023D8006FF0804363619DF816301BB9A36943F021
:1023E8001003A361A2690C4B1343A3619DF81A3033
:1023F8001BB1A36943F00803A361012D04D0304643
:10240800BDE8704004B07047A36943F0804343F0CF
:102418000403A361F3E700BF00383C80D0F8003E16
:1024280023F00303C0F8003ED0F8043843F0020359
:10243800C0F8043800207047406900F00100704778
:1024480038B50546C36823F0C043C360012913D0DB
:1024580019BBC36843F08043C3600C460A20FFF7EA
:10246800D3FC0A342846FFF7E7FF08B1C72CF5D993
:10247800C82C14D0002038BDC36843F00053C36093
:1024880000240A20FFF7C0FC0A342846FFF7D4FFCF
:102498000128EDD0C72CF4D9EAE70120EBE70120A9
:1024A800E9E70000034AD2F8883043F47003C2F821
:1024B8008830704700ED00E010B5036A026A22F028
:1024C800010202624268D0F818C02CF0730C0C6844
:1024D80044EA0C0C23F0020E8B6843EA0E03DFF883
:1024E80048E0704503D00EF5806E704505D123F0A5
:1024F8000803CC68234323F00403DFF82CE070457D
:1025080003D00EF5806E704507D122F440724C69F5
:1025180044EA020E8A6942EA0E024260C0F818C014
:102528004A684263036210BD0000014010B5036AA7
:10253800026A22F4807202624268D0F81CC02CF051
:10254800730C0C6844EA0C0E23F400738C6843EA9D
:102558000423DFF84CC0604503D00CF5806C60455F
:1025680006D123F40063CC6843EA042323F4806390
:10257800DFF82CC0604503D00CF5806C604507D1AE
:1025880022F440524C6942EA04128C6942EA04126D
:102598004260C0F81CE04A68C263036210BD00BF15
:1025A8000000014010B5036A026A22F480520262F8
:1025B800D0F804C0C26922F4E6420C6842EA042258
:1025C80023F400538C6843EA0433DFF828E07045AD
:1025D80003D00EF5806E704504D12CF4804C4C6904
:1025E8004CEA841CC0F804C0C2614A6802640362F1
:1025F80010BD00BF00000140036AD0F820C02CF0D5
:10260800010CC0F820C0D0F818C02CF0F00C4CEA2F
:10261800021223F00A030B43826103627047036AC4
:10262800D0F820C02CF0100CC0F820C0D0F818C08A
:102638002CF4704C4CEA023223F0A00343EA011355
:10264800826103627047836823F070030B4343F091
:1026580007038360704770470368324A904212D07C
:10266800B0F1804F0FD0A2F57C4290420BD002F51A
:102678008062904207D002F58062904203D002F552
:102688007842904203D123F070034A681343254AE5
:1026980090422AD0B0F1804F27D0A2F57C429042D8
:1026A80023D002F5806290421FD002F580629042EA
:1026B8001BD002F57842904217D002F57052904232
:1026C80013D002F5806290420FD002F580629042EA
:1026D8000BD0A2F59832904207D002F58062904262
:1026E80003D002F58062904203D123F44073CA6894
:1026F800134323F080034A6913438A68C2620A6855
:102708008262084A904203D002F58062904201D169
:102718000A690263026842F004020260012242610F
:10272800036070470000014040B310B5044690F8BC
:102738003D30F3B1022384F83D30214651F8040BB3
:10274800FFF78AFF012384F8463084F83E3084F886
:102758003F3084F8403084F8413084F8423084F8BF
:10276800433084F8443084F8453084F83D30002004
:1027780010BD80F83C30FEF78DF9DBE7012070478B
:1027880040B310B5044690F83D30F3B1022384F805
:102798003D30214651F8040BFFF75EFF012384F812
:1027A800463084F83E3084F83F3084F8403084F86E
:1027B800413084F8423084F8433084F8443084F857
:1027C800453084F83D30002010BD80F83C30FFF7DC
:1027D80042FFDBE70120704710B5036A026A22F066
:1027E80010020262D0F804C0826922F4E6420C6842
:1027F80042EA042223F020038C6843EA0413DFF83A
:102808004CE0704503D00EF5806E704506D123F07C
:102818008003CC6843EA041323F04003DFF82CE07C
:10282800704503D00EF5806E704507D12CF4406CCE
:102838004C694CEA840C8C694CEA840CC0F804C0DE
:1028480082614A688263036210BD00BF00000140D4
:1028580038B590F83C30012B69D00446012380F844
:102868003C30082A4ED01BD8002A33D0042A15D170
:102878000D460068FFF7B0FF2268936943F40063D0
:1028880093612268936923F4806393612268936952
:10289800296943EA0123936100202FE018462DE0BF
:1028A8000C2A15D10D460068FFF77CFE2268D36913
:1028B80043F40063D3612268D36923F48063D3614E
:1028C8002268D369296943EA0123D361002015E00E
:1028D800012013E00D460068FFF7EEFD22689369BA
:1028E80043F0080393612268936923F0040393611A
:1028F8002268936929690B4393610020002384F8B7
:102908003C3038BD0D460068FFF710FE2268D369D9
:1029180043F00803D3612268D36923F00403D36129
:102928002268D36929690B43D3610020E6E70220B6
:10293800E7E7D0F808C02CF47F4C42EA03220A43A8
:1029480042EA0C028260704790F83C30012B78D044
:1029580010B50446012380F83C30022380F83D304E
:102968000268936823F47F4323F0770393600B682E
:10297800602B4CD023D8402B54D011D8202B03D017
:102988000AD80BB1102B05D119462068FFF75BFE5A
:10299800002028E0012026E0302BF5D0012022E09D
:1029A800502B0AD1CA6849680068FFF725FE5021F4
:1029B8002068FFF748FE002015E0012013E0B3F57A
:1029C800805F3AD0B3F5005F14D0702B37D1CB6855
:1029D8004A6889680068FFF7ACFF2268936843F08B
:1029E800770393600020012384F83D30002384F8A6
:1029F8003C3010BDCB684A6889680068FFF799FFCA
:102A08002268936843F4804393600020EBE7CA6828
:102A180049680068FFF703FE60212068FFF713FE8E
:102A28000020E0E7CA6849680068FFF7E5FD402133
:102A38002068FFF708FE0020D5E70020D3E7012033
:102A4800D1E70220704701F01F014FF0010C0CFA8A
:102A580001FC036A23EA0C030362036A8A401343F6
:102A68000362704710B504460846002941D194F81E
:102A78003E30013B18BF0123002B6BD100284ED1FB
:102A8800022384F83E30012201462068FFF7DBFF6D
:102A98002368324A934203D002F58062934203D1FD
:102AA8005A6C42F400425A6423682C4A934246D036
:102AB800B3F1804F43D0A2F57C4293423FD002F558
:102AC800806293423BD002F58062934237D002F590
:102AD8007842934233D002F5705293422FD0A2F538
:102AE800943293422BD01A6842F001021A600020F7
:102AF8002FE0042907D008290BD094F84130013B76
:102B080018BF0123B8E794F83F30013B18BF0123F1
:102B1800B2E794F84030013B18BF0123ACE7042822
:102B280005D0082807D0022384F84130ABE70223F8
:102B380084F83F30A7E7022384F84030A3E79A6877
:102B480002F00702062A07D01A6842F001021A604A
:102B5800002010BD0120FCE70020FAE7000001403A
:102B680090F83C20012A3DD000B50346012280F8A8
:102B78003C20022280F83D2002685068D2F808E024
:102B880020F0700C086840EA0C0050601A6816487B
:102B980082421AD0B2F1804F17D0A0F57C40824211
:102BA80013D000F5806082420FD000F58060824229
:102BB8000BD000F57840824207D000F57050824271
:102BC80003D0A0F59430824205D12EF0800E4968DA
:102BD80041EA0E019160012283F83D20002083F82C
:102BE8003C0000BD0220704700000140DFF834D0EF
:102BF800FFF758FC0C480D490D4A002302E0D45851
:102C0800C4500433C4188C42F9D30A4A0A4C00232E
:102C180001E013600432A242FBD300F019F8FDF77B
:102C2800C5FC704700000520000000200C000020B3
:102C3800E02C00080C000020C8050020FEE7024434
:102C48000346934200D1704703F8011BF9E70000DF
:102C580070B50D4B0D4C00261D1BB6EBA50F09D109
:102C680000F01AF80A4C0B4B00261D1BB6EBA50FFB
:102C780005D170BD54F8043B98470136EDE754F888
:102C8800043B98470136F1E7D82C0008D82C0008F7
:102C9800D82C0008DC2C0008F8B500BFF8BC08BC2C
:102CA8009E467047F8B500BFF8BC08BC9E46704702
:102CB8000000000001020304000000000000000002
:082CC8000102030406070809DC
:082CD000C0D5FF7F01000000E8
:042CD80041020008AD
:042CDC0019020008D1
:0C2CE00001000000100000000024F400BF
:0400000508002BF5CF
:00000001FF
